{
  "contractName": "Contador",
  "abi": [
    {
      "anonymous": false,
      "inputs": [
        {
          "indexed": false,
          "internalType": "string",
          "name": "msg",
          "type": "string"
        },
        {
          "indexed": false,
          "internalType": "uint8",
          "name": "out",
          "type": "uint8"
        }
      ],
      "name": "Tic",
      "type": "event"
    },
    {
      "inputs": [],
      "name": "valor",
      "outputs": [
        {
          "internalType": "uint8",
          "name": "",
          "type": "uint8"
        }
      ],
      "stateMutability": "view",
      "type": "function",
      "constant": true
    },
    {
      "stateMutability": "payable",
      "type": "receive",
      "payable": true
    },
    {
      "inputs": [],
      "name": "incr",
      "outputs": [],
      "stateMutability": "nonpayable",
      "type": "function"
    },
    {
      "inputs": [],
      "name": "decr",
      "outputs": [],
      "stateMutability": "nonpayable",
      "type": "function"
    },
    {
      "inputs": [],
      "name": "reset",
      "outputs": [],
      "stateMutability": "nonpayable",
      "type": "function"
    }
  ],
  "bytecode": "0x608060405260008060006101000a81548160ff021916908360ff16021790555034801561002b57600080fd5b506103c48061003b6000396000f3fe6080604052600436106100435760003560e01c8063119fbbd414610052578063d826f88f14610069578063d9f2ac8a14610080578063ecbac7cf146100975761004d565b3661004d57600080fd5b600080fd5b34801561005e57600080fd5b506100676100c2565b005b34801561007557600080fd5b5061007e61013f565b005b34801561008c57600080fd5b506100956101a0565b005b3480156100a357600080fd5b506100ac610238565b6040516100b99190610265565b60405180910390f35b60008081819054906101000a900460ff16809291906100e0906102af565b91906101000a81548160ff021916908360ff160217905550507f278733a8e0534f74d81486a11876429bb0d35a6968fa576ec403ad7aecfa2e6e60008054906101000a900460ff166040516101359190610336565b60405180910390a1565b60008060006101000a81548160ff021916908360ff1602179055507f278733a8e0534f74d81486a11876429bb0d35a6968fa576ec403ad7aecfa2e6e60008054906101000a900460ff166040516101969190610336565b60405180910390a1565b60008060009054906101000a900460ff1660ff1611156101f25760008081819054906101000a900460ff16809291906101d890610364565b91906101000a81548160ff021916908360ff160217905550505b7f278733a8e0534f74d81486a11876429bb0d35a6968fa576ec403ad7aecfa2e6e60008054906101000a900460ff1660405161022e9190610336565b60405180910390a1565b60008054906101000a900460ff1681565b600060ff82169050919050565b61025f81610249565b82525050565b600060208201905061027a6000830184610256565b92915050565b7f4e487b7100000000000000000000000000000000000000000000000000000000600052601160045260246000fd5b60006102ba82610249565b915060ff8214156102ce576102cd610280565b5b600182019050919050565b600082825260208201905092915050565b7f41637475616c697a61646f000000000000000000000000000000000000000000600082015250565b6000610320600b836102d9565b915061032b826102ea565b602082019050919050565b6000604082019050818103600083015261034f81610313565b905061035e6020830184610256565b92915050565b600061036f82610249565b9150600082141561038357610382610280565b5b60018203905091905056fea2646970667358221220d75d4cda16f19e6470aa9c3fdc5b41c3e49cd335ebfe85363b5a4a78a7cc8be464736f6c634300080a0033",
  "immutableReferences": {},
  "source": "/*\nTarea 1\n\nEl Smart Contract a usar en este ejercicio debe ser una modificación del contrato \nContador.sol visto en clase.\n\nDebe modificarse añadiendo dos métodos nuevos:\n\n    decr, que disminuye el valor actual del contador en una unidad.\n    reset, que pone a 0 el valor actual del contador.\n*/\n\n// SPDX-License-Identifier: UNLICENSED\npragma solidity ^0.8.0;\n\ncontract Contador {\n    \n    uint8 public valor = 0;\n    \n    event Tic(string msg, uint8 out);\n        \n    function incr() public {\n        valor++;\n        emit Tic(\"Actualizado\", valor);\n    }\n    \n    function decr() public {\n        if (valor > 0){\n            valor--;\n        }\n        emit Tic(\"Actualizado\", valor);\n    }\n\n    function reset() public{\n        valor=0;\n        emit Tic(\"Actualizado\", valor);\n\n    }\n\n    receive() external payable { \n        revert(); \n    }\n}\n",
  "sourcePath": "/home/yildirim/Desktop/UNI/BCDA/Practica4/contracts/Contador.sol",
  "compiler": {
    "name": "solc",
    "version": "0.8.10+commit.fc410830.Emscripten.clang"
  },
  "schemaVersion": "3.4.4",
  "updatedAt": "2021-12-31T16:53:30.856Z",
  "networkType": "ethereum",
  "devdoc": {
    "kind": "dev",
    "methods": {},
    "version": 1
  },
  "userdoc": {
    "kind": "user",
    "methods": {},
    "version": 1
  }
}