{
  "contractName": "Asignatura",
  "abi": [
    {
      "inputs": [
        {
          "internalType": "string",
          "name": "_nombre",
          "type": "string"
        },
        {
          "internalType": "string",
          "name": "_curso",
          "type": "string"
        }
      ],
      "stateMutability": "nonpayable",
      "type": "constructor"
    },
    {
      "inputs": [
        {
          "internalType": "string",
          "name": "dni",
          "type": "string"
        }
      ],
      "name": "DNIExistsError",
      "type": "error"
    },
    {
      "inputs": [
        {
          "internalType": "address",
          "name": "",
          "type": "address"
        },
        {
          "internalType": "uint256",
          "name": "",
          "type": "uint256"
        }
      ],
      "name": "calificaciones",
      "outputs": [
        {
          "internalType": "enum Asignatura.TipoNota",
          "name": "tipo",
          "type": "uint8"
        },
        {
          "internalType": "uint256",
          "name": "calificacion",
          "type": "uint256"
        }
      ],
      "stateMutability": "view",
      "type": "function",
      "constant": true
    },
    {
      "inputs": [],
      "name": "cerrada",
      "outputs": [
        {
          "internalType": "bool",
          "name": "",
          "type": "bool"
        }
      ],
      "stateMutability": "view",
      "type": "function",
      "constant": true
    },
    {
      "inputs": [],
      "name": "coordinador",
      "outputs": [
        {
          "internalType": "address",
          "name": "",
          "type": "address"
        }
      ],
      "stateMutability": "view",
      "type": "function",
      "constant": true
    },
    {
      "inputs": [],
      "name": "curso",
      "outputs": [
        {
          "internalType": "string",
          "name": "",
          "type": "string"
        }
      ],
      "stateMutability": "view",
      "type": "function",
      "constant": true
    },
    {
      "inputs": [
        {
          "internalType": "address",
          "name": "",
          "type": "address"
        }
      ],
      "name": "datosAlumno",
      "outputs": [
        {
          "internalType": "string",
          "name": "nombre",
          "type": "string"
        },
        {
          "internalType": "string",
          "name": "email",
          "type": "string"
        },
        {
          "internalType": "string",
          "name": "dni",
          "type": "string"
        }
      ],
      "stateMutability": "view",
      "type": "function",
      "constant": true
    },
    {
      "inputs": [
        {
          "internalType": "address",
          "name": "",
          "type": "address"
        }
      ],
      "name": "datosProfesor",
      "outputs": [
        {
          "internalType": "string",
          "name": "",
          "type": "string"
        }
      ],
      "stateMutability": "view",
      "type": "function",
      "constant": true
    },
    {
      "inputs": [
        {
          "internalType": "string",
          "name": "",
          "type": "string"
        }
      ],
      "name": "dniMap",
      "outputs": [
        {
          "internalType": "string",
          "name": "",
          "type": "string"
        }
      ],
      "stateMutability": "view",
      "type": "function",
      "constant": true
    },
    {
      "inputs": [
        {
          "internalType": "uint256",
          "name": "",
          "type": "uint256"
        }
      ],
      "name": "matriculas",
      "outputs": [
        {
          "internalType": "address",
          "name": "",
          "type": "address"
        }
      ],
      "stateMutability": "view",
      "type": "function",
      "constant": true
    },
    {
      "inputs": [],
      "name": "nombre",
      "outputs": [
        {
          "internalType": "string",
          "name": "",
          "type": "string"
        }
      ],
      "stateMutability": "view",
      "type": "function",
      "constant": true
    },
    {
      "inputs": [],
      "name": "owner",
      "outputs": [
        {
          "internalType": "address",
          "name": "",
          "type": "address"
        }
      ],
      "stateMutability": "view",
      "type": "function",
      "constant": true
    },
    {
      "inputs": [],
      "name": "profesor",
      "outputs": [
        {
          "internalType": "address",
          "name": "",
          "type": "address"
        }
      ],
      "stateMutability": "view",
      "type": "function",
      "constant": true
    },
    {
      "inputs": [
        {
          "internalType": "uint256",
          "name": "",
          "type": "uint256"
        }
      ],
      "name": "profesores",
      "outputs": [
        {
          "internalType": "address",
          "name": "",
          "type": "address"
        }
      ],
      "stateMutability": "view",
      "type": "function",
      "constant": true
    },
    {
      "inputs": [],
      "name": "version",
      "outputs": [
        {
          "internalType": "uint256",
          "name": "",
          "type": "uint256"
        }
      ],
      "stateMutability": "view",
      "type": "function",
      "constant": true
    },
    {
      "stateMutability": "payable",
      "type": "receive",
      "payable": true
    },
    {
      "inputs": [],
      "name": "getNombre",
      "outputs": [
        {
          "internalType": "string",
          "name": "",
          "type": "string"
        }
      ],
      "stateMutability": "view",
      "type": "function",
      "constant": true
    },
    {
      "inputs": [],
      "name": "getCurso",
      "outputs": [
        {
          "internalType": "string",
          "name": "",
          "type": "string"
        }
      ],
      "stateMutability": "view",
      "type": "function",
      "constant": true
    },
    {
      "inputs": [],
      "name": "getOwnerAddress",
      "outputs": [
        {
          "internalType": "address",
          "name": "",
          "type": "address"
        }
      ],
      "stateMutability": "view",
      "type": "function",
      "constant": true
    },
    {
      "inputs": [],
      "name": "getCoordinador",
      "outputs": [
        {
          "internalType": "address",
          "name": "",
          "type": "address"
        }
      ],
      "stateMutability": "view",
      "type": "function",
      "constant": true
    },
    {
      "inputs": [
        {
          "internalType": "address",
          "name": "dirProfesor",
          "type": "address"
        }
      ],
      "name": "getNombreProfesor",
      "outputs": [
        {
          "internalType": "string",
          "name": "",
          "type": "string"
        }
      ],
      "stateMutability": "view",
      "type": "function",
      "constant": true
    },
    {
      "inputs": [
        {
          "internalType": "address",
          "name": "dirAlumno",
          "type": "address"
        }
      ],
      "name": "getDatosAlumno",
      "outputs": [
        {
          "components": [
            {
              "internalType": "string",
              "name": "nombre",
              "type": "string"
            },
            {
              "internalType": "string",
              "name": "email",
              "type": "string"
            },
            {
              "internalType": "string",
              "name": "dni",
              "type": "string"
            }
          ],
          "internalType": "struct Asignatura.DatosAlumno",
          "name": "",
          "type": "tuple"
        }
      ],
      "stateMutability": "view",
      "type": "function",
      "constant": true
    },
    {
      "inputs": [
        {
          "internalType": "address",
          "name": "dirAlumno",
          "type": "address"
        },
        {
          "internalType": "uint256",
          "name": "indice",
          "type": "uint256"
        }
      ],
      "name": "getCalificacion",
      "outputs": [
        {
          "components": [
            {
              "internalType": "enum Asignatura.TipoNota",
              "name": "tipo",
              "type": "uint8"
            },
            {
              "internalType": "uint256",
              "name": "calificacion",
              "type": "uint256"
            }
          ],
          "internalType": "struct Asignatura.Nota",
          "name": "",
          "type": "tuple"
        }
      ],
      "stateMutability": "view",
      "type": "function",
      "constant": true
    },
    {
      "inputs": [
        {
          "internalType": "uint256",
          "name": "evaluacion",
          "type": "uint256"
        }
      ],
      "name": "miNota",
      "outputs": [
        {
          "internalType": "enum Asignatura.TipoNota",
          "name": "tipo",
          "type": "uint8"
        },
        {
          "internalType": "uint256",
          "name": "calificacion",
          "type": "uint256"
        }
      ],
      "stateMutability": "view",
      "type": "function",
      "constant": true
    },
    {
      "inputs": [
        {
          "internalType": "address",
          "name": "coord",
          "type": "address"
        }
      ],
      "name": "setCoordinador",
      "outputs": [],
      "stateMutability": "nonpayable",
      "type": "function"
    },
    {
      "inputs": [],
      "name": "cerrar",
      "outputs": [],
      "stateMutability": "nonpayable",
      "type": "function"
    },
    {
      "inputs": [
        {
          "internalType": "address",
          "name": "dirProfesor",
          "type": "address"
        },
        {
          "internalType": "string",
          "name": "nombreProfesor",
          "type": "string"
        }
      ],
      "name": "addProfesor",
      "outputs": [],
      "stateMutability": "nonpayable",
      "type": "function"
    },
    {
      "inputs": [],
      "name": "profesoresLength",
      "outputs": [
        {
          "internalType": "uint256",
          "name": "",
          "type": "uint256"
        }
      ],
      "stateMutability": "view",
      "type": "function",
      "constant": true
    },
    {
      "inputs": [],
      "name": "evaluacionesLength",
      "outputs": [
        {
          "internalType": "uint256",
          "name": "",
          "type": "uint256"
        }
      ],
      "stateMutability": "view",
      "type": "function",
      "constant": true
    },
    {
      "inputs": [
        {
          "internalType": "string",
          "name": "_nombre",
          "type": "string"
        },
        {
          "internalType": "uint256",
          "name": "_fecha",
          "type": "uint256"
        },
        {
          "internalType": "uint256",
          "name": "_puntos",
          "type": "uint256"
        }
      ],
      "name": "creaEvaluacion",
      "outputs": [
        {
          "internalType": "uint256",
          "name": "",
          "type": "uint256"
        }
      ],
      "stateMutability": "nonpayable",
      "type": "function"
    },
    {
      "inputs": [],
      "name": "matriculasLength",
      "outputs": [
        {
          "internalType": "uint256",
          "name": "",
          "type": "uint256"
        }
      ],
      "stateMutability": "view",
      "type": "function",
      "constant": true
    },
    {
      "inputs": [
        {
          "internalType": "string",
          "name": "_nombre",
          "type": "string"
        },
        {
          "internalType": "string",
          "name": "_email",
          "type": "string"
        },
        {
          "internalType": "string",
          "name": "_dni",
          "type": "string"
        }
      ],
      "name": "automatricula",
      "outputs": [],
      "stateMutability": "nonpayable",
      "type": "function"
    },
    {
      "inputs": [],
      "name": "quienSoy",
      "outputs": [
        {
          "internalType": "string",
          "name": "_nombre",
          "type": "string"
        },
        {
          "internalType": "string",
          "name": "_email",
          "type": "string"
        },
        {
          "internalType": "string",
          "name": "_dni",
          "type": "string"
        }
      ],
      "stateMutability": "view",
      "type": "function",
      "constant": true
    },
    {
      "inputs": [
        {
          "internalType": "address",
          "name": "alumno",
          "type": "address"
        },
        {
          "internalType": "uint256",
          "name": "evaluacion",
          "type": "uint256"
        },
        {
          "internalType": "enum Asignatura.TipoNota",
          "name": "tipo",
          "type": "uint8"
        },
        {
          "internalType": "uint256",
          "name": "calificacion",
          "type": "uint256"
        }
      ],
      "name": "califica",
      "outputs": [],
      "stateMutability": "nonpayable",
      "type": "function"
    }
  ],
  "bytecode": "0x60806040526107e56000553480156200001757600080fd5b5060405162003c1838038062003c1883398181016040528101906200003d9190620003fd565b60008290506000815114156200008a576040517f08c379a00000000000000000000000000000000000000000000000000000000081526004016200008190620004e3565b60405180910390fd5b6000829050600081511415620000d7576040517f08c379a0000000000000000000000000000000000000000000000000000000008152600401620000ce906200057b565b60405180910390fd5b8360029080519060200190620000ef929190620001b0565b50826003908051906020019062000108929190620001b0565b5033600160006101000a81548173ffffffffffffffffffffffffffffffffffffffff021916908373ffffffffffffffffffffffffffffffffffffffff16021790555033600460006101000a81548173ffffffffffffffffffffffffffffffffffffffff021916908373ffffffffffffffffffffffffffffffffffffffff1602179055506000600560146101000a81548160ff0219169083151502179055505050505062000602565b828054620001be90620005cc565b90600052602060002090601f016020900481019282620001e257600085556200022e565b82601f10620001fd57805160ff19168380011785556200022e565b828001600101855582156200022e579182015b828111156200022d57825182559160200191906001019062000210565b5b5090506200023d919062000241565b5090565b5b808211156200025c57600081600090555060010162000242565b5090565b6000604051905090565b600080fd5b600080fd5b600080fd5b600080fd5b6000601f19601f8301169050919050565b7f4e487b7100000000000000000000000000000000000000000000000000000000600052604160045260246000fd5b620002c9826200027e565b810181811067ffffffffffffffff82111715620002eb57620002ea6200028f565b5b80604052505050565b60006200030062000260565b90506200030e8282620002be565b919050565b600067ffffffffffffffff8211156200033157620003306200028f565b5b6200033c826200027e565b9050602081019050919050565b60005b83811015620003695780820151818401526020810190506200034c565b8381111562000379576000848401525b50505050565b600062000396620003908462000313565b620002f4565b905082815260208101848484011115620003b557620003b462000279565b5b620003c284828562000349565b509392505050565b600082601f830112620003e257620003e162000274565b5b8151620003f48482602086016200037f565b91505092915050565b600080604083850312156200041757620004166200026a565b5b600083015167ffffffffffffffff8111156200043857620004376200026f565b5b6200044685828601620003ca565b925050602083015167ffffffffffffffff8111156200046a57620004696200026f565b5b6200047885828601620003ca565b9150509250929050565b600082825260208201905092915050565b7f5375626a6563742773206e616d652063616e277420626520626c616e6b000000600082015250565b6000620004cb601d8362000482565b9150620004d88262000493565b602082019050919050565b60006020820190508181036000830152620004fe81620004bc565b9050919050565b7f5375626a65637427732061636164656d696320796561722063616e277420626560008201527f20626c616e6b0000000000000000000000000000000000000000000000000000602082015250565b60006200056360268362000482565b9150620005708262000505565b604082019050919050565b60006020820190508181036000830152620005968162000554565b9050919050565b7f4e487b7100000000000000000000000000000000000000000000000000000000600052602260045260246000fd5b60006002820490506001821680620005e557607f821691505b60208210811415620005fc57620005fb6200059d565b5b50919050565b61360680620006126000396000f3fe6080604052600436106101dc5760003560e01c80637810ff1e11610102578063d27c3f3c11610095578063deafcc4111610064578063deafcc4114610748578063df09657614610773578063e81378d91461079e578063f967f986146107db5761021c565b8063d27c3f3c1461069f578063d51b4584146106dd578063d75cbf9b14610706578063dab6ff28146107315761021c565b8063bc7b35b2116100d1578063bc7b35b2146105bd578063c7918139146105e8578063c837375014610625578063d017da1f146106625761021c565b80637810ff1e146104ff5780638da5cb5b1461052a57806393a3a345146105555780639e1d8f4b146105925761021c565b8063479f6c6f1161017a578063641945bf11610149578063641945bf1461041d578063681d4ca61461045a5780636bf8aad6146104835780636fbb9dc7146104c25761021c565b8063479f6c6f1461036f578063488cf4f51461039a57806353766883146103c557806354fd4d50146103f25761021c565b80631d2e4d2b116101b65780631d2e4d2b146102b457806322c4e394146102dd57806330322c9b1461030857806342a6dde2146103315761021c565b80630c2e7895146102215780630c4f65bd1461025e5780630d126bc4146102895761021c565b3661021c576040517f08c379a0000000000000000000000000000000000000000000000000000000008152600401610213906124bf565b60405180910390fd5b600080fd5b34801561022d57600080fd5b5061024860048036038101906102439190612587565b610806565b604051610255919061267c565b60405180910390f35b34801561026a57600080fd5b506102736108b6565b60405161028091906126a6565b60405180910390f35b34801561029557600080fd5b5061029e6108e0565b6040516102ab9190612749565b60405180910390f35b3480156102c057600080fd5b506102db60048036038101906102d691906128a0565b610972565b005b3480156102e957600080fd5b506102f2610bb6565b6040516102ff9190612917565b60405180910390f35b34801561031457600080fd5b5061032f600480360381019061032a9190612957565b610bc9565b005b34801561033d57600080fd5b5061035860048036038101906103539190612587565b610e43565b6040516103669291906129dc565b60405180910390f35b34801561037b57600080fd5b50610384610e81565b60405161039191906126a6565b60405180910390f35b3480156103a657600080fd5b506103af610eab565b6040516103bc9190612a05565b60405180910390f35b3480156103d157600080fd5b506103da610eb8565b6040516103e993929190612a20565b60405180910390f35b3480156103fe57600080fd5b50610407611124565b6040516104149190612a05565b60405180910390f35b34801561042957600080fd5b50610444600480360381019061043f9190612a6c565b61112a565b6040516104519190612749565b60405180910390f35b34801561046657600080fd5b50610481600480360381019061047c9190612a99565b6111ca565b005b34801561048f57600080fd5b506104aa60048036038101906104a59190612a6c565b611597565b6040516104b993929190612a20565b60405180910390f35b3480156104ce57600080fd5b506104e960048036038101906104e49190612a6c565b611759565b6040516104f69190612be8565b60405180910390f35b34801561050b57600080fd5b50610514611968565b60405161052191906126a6565b60405180910390f35b34801561053657600080fd5b5061053f61198e565b60405161054c91906126a6565b60405180910390f35b34801561056157600080fd5b5061057c60048036038101906105779190612c0a565b6119b4565b6040516105899190612749565b60405180910390f35b34801561059e57600080fd5b506105a7611a6a565b6040516105b49190612a05565b60405180910390f35b3480156105c957600080fd5b506105d2611a77565b6040516105df9190612749565b60405180910390f35b3480156105f457600080fd5b5061060f600480360381019061060a9190612c53565b611b05565b60405161061c91906126a6565b60405180910390f35b34801561063157600080fd5b5061064c60048036038101906106479190612c53565b611b44565b60405161065991906126a6565b60405180910390f35b34801561066e57600080fd5b5061068960048036038101906106849190612c80565b611b83565b6040516106969190612a05565b60405180910390f35b3480156106ab57600080fd5b506106c660048036038101906106c19190612c53565b611d49565b6040516106d49291906129dc565b60405180910390f35b3480156106e957600080fd5b5061070460048036038101906106ff9190612a6c565b611e93565b005b34801561071257600080fd5b5061071b611fbd565b6040516107289190612749565b60405180910390f35b34801561073d57600080fd5b5061074661204f565b005b34801561075457600080fd5b5061075d6120fc565b60405161076a9190612749565b60405180910390f35b34801561077f57600080fd5b5061078861218a565b60405161079591906126a6565b60405180910390f35b3480156107aa57600080fd5b506107c560048036038101906107c09190612a6c565b6121b0565b6040516107d29190612749565b60405180910390f35b3480156107e757600080fd5b506107f0612281565b6040516107fd9190612a05565b60405180910390f35b61080e612372565b600c60008473ffffffffffffffffffffffffffffffffffffffff1673ffffffffffffffffffffffffffffffffffffffff16815260200190815260200160002060008381526020019081526020016000206040518060400160405290816000820160009054906101000a900460ff16600281111561088e5761088d6125c7565b5b60028111156108a05761089f6125c7565b5b8152602001600182015481525050905092915050565b6000600460009054906101000a900473ffffffffffffffffffffffffffffffffffffffff16905090565b6060600380546108ef90612d1e565b80601f016020809104026020016040519081016040528092919081815260200182805461091b90612d1e565b80156109685780601f1061093d57610100808354040283529160200191610968565b820191906000526020600020905b81548152906001019060200180831161094b57829003601f168201915b5050505050905090565b600460009054906101000a900473ffffffffffffffffffffffffffffffffffffffff1673ffffffffffffffffffffffffffffffffffffffff163373ffffffffffffffffffffffffffffffffffffffff1614610a02576040517f08c379a00000000000000000000000000000000000000000000000000000000081526004016109f990612d9c565b60405180910390fd5b60001515600560149054906101000a900460ff16151514610a58576040517f08c379a0000000000000000000000000000000000000000000000000000000008152600401610a4f90612e2e565b60405180910390fd5b6000819050600081511415610aa2576040517f08c379a0000000000000000000000000000000000000000000000000000000008152600401610a9990612e9a565b60405180910390fd5b6000610aad846121b0565b905060008190506000815114610af8576040517f08c379a0000000000000000000000000000000000000000000000000000000008152600401610aef90612f2c565b60405180910390fd5b6007859080600181540180825580915050600190039060005260206000200160009091909190916101000a81548173ffffffffffffffffffffffffffffffffffffffff021916908373ffffffffffffffffffffffffffffffffffffffff16021790555083600660008773ffffffffffffffffffffffffffffffffffffffff1673ffffffffffffffffffffffffffffffffffffffff1681526020019081526020016000209080519060200190610bae92919061239e565b505050505050565b600560149054906101000a900460ff1681565b600160009054906101000a900473ffffffffffffffffffffffffffffffffffffffff1673ffffffffffffffffffffffffffffffffffffffff163373ffffffffffffffffffffffffffffffffffffffff1614610c59576040517f08c379a0000000000000000000000000000000000000000000000000000000008152600401610c5090612f98565b60405180910390fd5b60001515600560149054906101000a900460ff16151514610caf576040517f08c379a0000000000000000000000000000000000000000000000000000000008152600401610ca690612e2e565b60405180910390fd5b610cb88461228e565b610cf7576040517f08c379a0000000000000000000000000000000000000000000000000000000008152600401610cee9061302a565b60405180910390fd5b6008805490508310610d3e576040517f08c379a0000000000000000000000000000000000000000000000000000000008152600401610d35906130bc565b60405180910390fd5b6103e8811115610d83576040517f08c379a0000000000000000000000000000000000000000000000000000000008152600401610d7a9061314e565b60405180910390fd5b60006040518060400160405280846002811115610da357610da26125c7565b5b815260200183815250905080600c60008773ffffffffffffffffffffffffffffffffffffffff1673ffffffffffffffffffffffffffffffffffffffff168152602001908152602001600020600086815260200190815260200160002060008201518160000160006101000a81548160ff02191690836002811115610e2a57610e296125c7565b5b0217905550602082015181600101559050505050505050565b600c602052816000526040600020602052806000526040600020600091509150508060000160009054906101000a900460ff16908060010154905082565b6000600560009054906101000a900473ffffffffffffffffffffffffffffffffffffffff16905090565b6000600880549050905090565b6060806060610ec63361228e565b610f05576040517f08c379a0000000000000000000000000000000000000000000000000000000008152600401610efc906131ba565b60405180910390fd5b6000600960003373ffffffffffffffffffffffffffffffffffffffff1673ffffffffffffffffffffffffffffffffffffffff168152602001908152602001600020604051806060016040529081600082018054610f6190612d1e565b80601f0160208091040260200160405190810160405280929190818152602001828054610f8d90612d1e565b8015610fda5780601f10610faf57610100808354040283529160200191610fda565b820191906000526020600020905b815481529060010190602001808311610fbd57829003601f168201915b50505050508152602001600182018054610ff390612d1e565b80601f016020809104026020016040519081016040528092919081815260200182805461101f90612d1e565b801561106c5780601f106110415761010080835404028352916020019161106c565b820191906000526020600020905b81548152906001019060200180831161104f57829003601f168201915b5050505050815260200160028201805461108590612d1e565b80601f01602080910402602001604051908101604052809291908181526020018280546110b190612d1e565b80156110fe5780601f106110d3576101008083540402835291602001916110fe565b820191906000526020600020905b8154815290600101906020018083116110e157829003601f168201915b505050505081525050905080600001519350806020015192508060400151915050909192565b60005481565b6006602052806000526040600020600091509050805461114990612d1e565b80601f016020809104026020016040519081016040528092919081815260200182805461117590612d1e565b80156111c25780601f10611197576101008083540402835291602001916111c2565b820191906000526020600020905b8154815290600101906020018083116111a557829003601f168201915b505050505081565b60001515600560149054906101000a900460ff16151514611220576040517f08c379a000000000000000000000000000000000000000000000000000000000815260040161121790612e2e565b60405180910390fd5b6112293361228e565b15611269576040517f08c379a00000000000000000000000000000000000000000000000000000000081526004016112609061324c565b60405180910390fd5b60008390506000815114156112b3576040517f08c379a00000000000000000000000000000000000000000000000000000000081526004016112aa906132b8565b60405180910390fd5b60008390506000815114156112fd576040517f08c379a00000000000000000000000000000000000000000000000000000000081526004016112f490613324565b60405180910390fd5b6000839050600081511415611347576040517f08c379a000000000000000000000000000000000000000000000000000000000815260040161133e90613390565b60405180910390fd5b6000600a8560405161135991906133ec565b9081526020016040518091039020805461137290612d1e565b80601f016020809104026020016040519081016040528092919081815260200182805461139e90612d1e565b80156113eb5780601f106113c0576101008083540402835291602001916113eb565b820191906000526020600020905b8154815290600101906020018083116113ce57829003601f168201915b505050505090506000819050600081511461143d57816040517f995e03530000000000000000000000000000000000000000000000000000000081526004016114349190612749565b60405180910390fd5b600060405180606001604052808a815260200189815260200188815250905080600960003373ffffffffffffffffffffffffffffffffffffffff1673ffffffffffffffffffffffffffffffffffffffff16815260200190815260200160002060008201518160000190805190602001906114b892919061239e565b5060208201518160010190805190602001906114d592919061239e565b5060408201518160020190805190602001906114f292919061239e565b5090505088600a8860405161150791906133ec565b9081526020016040518091039020908051906020019061152892919061239e565b50600b339080600181540180825580915050600190039060005260206000200160009091909190916101000a81548173ffffffffffffffffffffffffffffffffffffffff021916908373ffffffffffffffffffffffffffffffffffffffff160217905550505050505050505050565b60096020528060005260406000206000915090508060000180546115ba90612d1e565b80601f01602080910402602001604051908101604052809291908181526020018280546115e690612d1e565b80156116335780601f1061160857610100808354040283529160200191611633565b820191906000526020600020905b81548152906001019060200180831161161657829003601f168201915b50505050509080600101805461164890612d1e565b80601f016020809104026020016040519081016040528092919081815260200182805461167490612d1e565b80156116c15780601f10611696576101008083540402835291602001916116c1565b820191906000526020600020905b8154815290600101906020018083116116a457829003601f168201915b5050505050908060020180546116d690612d1e565b80601f016020809104026020016040519081016040528092919081815260200182805461170290612d1e565b801561174f5780601f106117245761010080835404028352916020019161174f565b820191906000526020600020905b81548152906001019060200180831161173257829003601f168201915b5050505050905083565b611761612424565b600960008373ffffffffffffffffffffffffffffffffffffffff1673ffffffffffffffffffffffffffffffffffffffff1681526020019081526020016000206040518060600160405290816000820180546117bb90612d1e565b80601f01602080910402602001604051908101604052809291908181526020018280546117e790612d1e565b80156118345780601f1061180957610100808354040283529160200191611834565b820191906000526020600020905b81548152906001019060200180831161181757829003601f168201915b5050505050815260200160018201805461184d90612d1e565b80601f016020809104026020016040519081016040528092919081815260200182805461187990612d1e565b80156118c65780601f1061189b576101008083540402835291602001916118c6565b820191906000526020600020905b8154815290600101906020018083116118a957829003601f168201915b505050505081526020016002820180546118df90612d1e565b80601f016020809104026020016040519081016040528092919081815260200182805461190b90612d1e565b80156119585780601f1061192d57610100808354040283529160200191611958565b820191906000526020600020905b81548152906001019060200180831161193b57829003601f168201915b5050505050815250509050919050565b600560009054906101000a900473ffffffffffffffffffffffffffffffffffffffff1681565b600460009054906101000a900473ffffffffffffffffffffffffffffffffffffffff1681565b600a8180516020810182018051848252602083016020850120818352809550505050505060009150905080546119e990612d1e565b80601f0160208091040260200160405190810160405280929190818152602001828054611a1590612d1e565b8015611a625780601f10611a3757610100808354040283529160200191611a62565b820191906000526020600020905b815481529060010190602001808311611a4557829003601f168201915b505050505081565b6000600b80549050905090565b60028054611a8490612d1e565b80601f0160208091040260200160405190810160405280929190818152602001828054611ab090612d1e565b8015611afd5780601f10611ad257610100808354040283529160200191611afd565b820191906000526020600020905b815481529060010190602001808311611ae057829003601f168201915b505050505081565b600b8181548110611b1557600080fd5b906000526020600020016000915054906101000a900473ffffffffffffffffffffffffffffffffffffffff1681565b60078181548110611b5457600080fd5b906000526020600020016000915054906101000a900473ffffffffffffffffffffffffffffffffffffffff1681565b6000801515600560149054906101000a900460ff16151514611bda576040517f08c379a0000000000000000000000000000000000000000000000000000000008152600401611bd190612e2e565b60405180910390fd5b600560009054906101000a900473ffffffffffffffffffffffffffffffffffffffff1673ffffffffffffffffffffffffffffffffffffffff163373ffffffffffffffffffffffffffffffffffffffff1614611c6a576040517f08c379a0000000000000000000000000000000000000000000000000000000008152600401611c619061344f565b60405180910390fd5b6000849050600081511415611cb4576040517f08c379a0000000000000000000000000000000000000000000000000000000008152600401611cab906134bb565b60405180910390fd5b600860405180606001604052808781526020018681526020018581525090806001815401808255809150506001900390600052602060002090600302016000909190919091506000820151816000019080519060200190611d1692919061239e565b50602082015181600101556040820151816002015550506001600880549050611d3f919061350a565b9150509392505050565b600080611d553361228e565b611d94576040517f08c379a0000000000000000000000000000000000000000000000000000000008152600401611d8b906131ba565b60405180910390fd5b6008805490508310611ddb576040517f08c379a0000000000000000000000000000000000000000000000000000000008152600401611dd2906135b0565b60405180910390fd5b6000600c60003373ffffffffffffffffffffffffffffffffffffffff1673ffffffffffffffffffffffffffffffffffffffff16815260200190815260200160002060008581526020019081526020016000206040518060400160405290816000820160009054906101000a900460ff166002811115611e5d57611e5c6125c7565b5b6002811115611e6f57611e6e6125c7565b5b81526020016001820154815250509050806000015192508060200151915050915091565b600460009054906101000a900473ffffffffffffffffffffffffffffffffffffffff1673ffffffffffffffffffffffffffffffffffffffff163373ffffffffffffffffffffffffffffffffffffffff1614611f23576040517f08c379a0000000000000000000000000000000000000000000000000000000008152600401611f1a90612d9c565b60405180910390fd5b60001515600560149054906101000a900460ff16151514611f79576040517f08c379a0000000000000000000000000000000000000000000000000000000008152600401611f7090612e2e565b60405180910390fd5b80600560006101000a81548173ffffffffffffffffffffffffffffffffffffffff021916908373ffffffffffffffffffffffffffffffffffffffff16021790555050565b606060028054611fcc90612d1e565b80601f0160208091040260200160405190810160405280929190818152602001828054611ff890612d1e565b80156120455780601f1061201a57610100808354040283529160200191612045565b820191906000526020600020905b81548152906001019060200180831161202857829003601f168201915b5050505050905090565b600560009054906101000a900473ffffffffffffffffffffffffffffffffffffffff1673ffffffffffffffffffffffffffffffffffffffff163373ffffffffffffffffffffffffffffffffffffffff16146120df576040517f08c379a00000000000000000000000000000000000000000000000000000000081526004016120d69061344f565b60405180910390fd5b6001600560146101000a81548160ff021916908315150217905550565b6003805461210990612d1e565b80601f016020809104026020016040519081016040528092919081815260200182805461213590612d1e565b80156121825780601f1061215757610100808354040283529160200191612182565b820191906000526020600020905b81548152906001019060200180831161216557829003601f168201915b505050505081565b600160009054906101000a900473ffffffffffffffffffffffffffffffffffffffff1681565b6060600660008373ffffffffffffffffffffffffffffffffffffffff1673ffffffffffffffffffffffffffffffffffffffff16815260200190815260200160002080546121fc90612d1e565b80601f016020809104026020016040519081016040528092919081815260200182805461222890612d1e565b80156122755780601f1061224a57610100808354040283529160200191612275565b820191906000526020600020905b81548152906001019060200180831161225857829003601f168201915b50505050509050919050565b6000600780549050905090565b600080600960008473ffffffffffffffffffffffffffffffffffffffff1673ffffffffffffffffffffffffffffffffffffffff16815260200190815260200160002060000180546122de90612d1e565b80601f016020809104026020016040519081016040528092919081815260200182805461230a90612d1e565b80156123575780601f1061232c57610100808354040283529160200191612357565b820191906000526020600020905b81548152906001019060200180831161233a57829003601f168201915b50505050509050600081905060008151141592505050919050565b604051806040016040528060006002811115612391576123906125c7565b5b8152602001600081525090565b8280546123aa90612d1e565b90600052602060002090601f0160209004810192826123cc5760008555612413565b82601f106123e557805160ff1916838001178555612413565b82800160010185558215612413579182015b828111156124125782518255916020019190600101906123f7565b5b5090506124209190612445565b5090565b60405180606001604052806060815260200160608152602001606081525090565b5b8082111561245e576000816000905550600101612446565b5090565b600082825260208201905092915050565b7f4e6f206d6f6e6579207472616e7366657220616c6c6f77656400000000000000600082015250565b60006124a9601983612462565b91506124b482612473565b602082019050919050565b600060208201905081810360008301526124d88161249c565b9050919050565b6000604051905090565b600080fd5b600080fd5b600073ffffffffffffffffffffffffffffffffffffffff82169050919050565b600061251e826124f3565b9050919050565b61252e81612513565b811461253957600080fd5b50565b60008135905061254b81612525565b92915050565b6000819050919050565b61256481612551565b811461256f57600080fd5b50565b6000813590506125818161255b565b92915050565b6000806040838503121561259e5761259d6124e9565b5b60006125ac8582860161253c565b92505060206125bd85828601612572565b9150509250929050565b7f4e487b7100000000000000000000000000000000000000000000000000000000600052602160045260246000fd5b60038110612607576126066125c7565b5b50565b6000819050612618826125f6565b919050565b60006126288261260a565b9050919050565b6126388161261d565b82525050565b61264781612551565b82525050565b604082016000820151612663600085018261262f565b506020820151612676602085018261263e565b50505050565b6000604082019050612691600083018461264d565b92915050565b6126a081612513565b82525050565b60006020820190506126bb6000830184612697565b92915050565b600081519050919050565b60005b838110156126ea5780820151818401526020810190506126cf565b838111156126f9576000848401525b50505050565b6000601f19601f8301169050919050565b600061271b826126c1565b6127258185612462565b93506127358185602086016126cc565b61273e816126ff565b840191505092915050565b600060208201905081810360008301526127638184612710565b905092915050565b600080fd5b600080fd5b7f4e487b7100000000000000000000000000000000000000000000000000000000600052604160045260246000fd5b6127ad826126ff565b810181811067ffffffffffffffff821117156127cc576127cb612775565b5b80604052505050565b60006127df6124df565b90506127eb82826127a4565b919050565b600067ffffffffffffffff82111561280b5761280a612775565b5b612814826126ff565b9050602081019050919050565b82818337600083830152505050565b600061284361283e846127f0565b6127d5565b90508281526020810184848401111561285f5761285e612770565b5b61286a848285612821565b509392505050565b600082601f8301126128875761288661276b565b5b8135612897848260208601612830565b91505092915050565b600080604083850312156128b7576128b66124e9565b5b60006128c58582860161253c565b925050602083013567ffffffffffffffff8111156128e6576128e56124ee565b5b6128f285828601612872565b9150509250929050565b60008115159050919050565b612911816128fc565b82525050565b600060208201905061292c6000830184612908565b92915050565b6003811061293f57600080fd5b50565b60008135905061295181612932565b92915050565b60008060008060808587031215612971576129706124e9565b5b600061297f8782880161253c565b945050602061299087828801612572565b93505060406129a187828801612942565b92505060606129b287828801612572565b91505092959194509250565b6129c78161261d565b82525050565b6129d681612551565b82525050565b60006040820190506129f160008301856129be565b6129fe60208301846129cd565b9392505050565b6000602082019050612a1a60008301846129cd565b92915050565b60006060820190508181036000830152612a3a8186612710565b90508181036020830152612a4e8185612710565b90508181036040830152612a628184612710565b9050949350505050565b600060208284031215612a8257612a816124e9565b5b6000612a908482850161253c565b91505092915050565b600080600060608486031215612ab257612ab16124e9565b5b600084013567ffffffffffffffff811115612ad057612acf6124ee565b5b612adc86828701612872565b935050602084013567ffffffffffffffff811115612afd57612afc6124ee565b5b612b0986828701612872565b925050604084013567ffffffffffffffff811115612b2a57612b296124ee565b5b612b3686828701612872565b9150509250925092565b600082825260208201905092915050565b6000612b5c826126c1565b612b668185612b40565b9350612b768185602086016126cc565b612b7f816126ff565b840191505092915050565b60006060830160008301518482036000860152612ba78282612b51565b91505060208301518482036020860152612bc18282612b51565b91505060408301518482036040860152612bdb8282612b51565b9150508091505092915050565b60006020820190508181036000830152612c028184612b8a565b905092915050565b600060208284031215612c2057612c1f6124e9565b5b600082013567ffffffffffffffff811115612c3e57612c3d6124ee565b5b612c4a84828501612872565b91505092915050565b600060208284031215612c6957612c686124e9565b5b6000612c7784828501612572565b91505092915050565b600080600060608486031215612c9957612c986124e9565b5b600084013567ffffffffffffffff811115612cb757612cb66124ee565b5b612cc386828701612872565b9350506020612cd486828701612572565b9250506040612ce586828701612572565b9150509250925092565b7f4e487b7100000000000000000000000000000000000000000000000000000000600052602260045260246000fd5b60006002820490506001821680612d3657607f821691505b60208210811415612d4a57612d49612cef565b5b50919050565b7f4f6e6c7920636f6e74726163742773206f776e657220616c6c6f776564000000600082015250565b6000612d86601d83612462565b9150612d9182612d50565b602082019050919050565b60006020820190508181036000830152612db581612d79565b9050919050565b7f4f6e6c7920616c6c6f77656420696620746865207375626a656374206973206f60008201527f70656e0000000000000000000000000000000000000000000000000000000000602082015250565b6000612e18602383612462565b9150612e2382612dbc565b604082019050919050565b60006020820190508181036000830152612e4781612e0b565b9050919050565b7f50726f666573736f722773206e616d652063616e277420626520626c616e6b00600082015250565b6000612e84601f83612462565b9150612e8f82612e4e565b602082019050919050565b60006020820190508181036000830152612eb381612e77565b9050919050565b7f43616e27742061646420612070726f666573736f72206d756c7469706c65207460008201527f696d657300000000000000000000000000000000000000000000000000000000602082015250565b6000612f16602483612462565b9150612f2182612eba565b604082019050919050565b60006020820190508181036000830152612f4581612f09565b9050919050565b7f4f6e6c792070726f666665736f7220616c6c6f77656400000000000000000000600082015250565b6000612f82601683612462565b9150612f8d82612f4c565b602082019050919050565b60006020820190508181036000830152612fb181612f75565b9050919050565b7f596f752063616e206f6e6c79206d61726b20616e20656e726f6c6c656420737460008201527f7564656e74000000000000000000000000000000000000000000000000000000602082015250565b6000613014602583612462565b915061301f82612fb8565b604082019050919050565b6000602082019050818103600083015261304381613007565b9050919050565b7f596f752063616e2774206d61726b2061206e6f6e2d6578697374616e7420657660008201527f616c756174696f6e000000000000000000000000000000000000000000000000602082015250565b60006130a6602883612462565b91506130b18261304a565b604082019050919050565b600060208201905081810360008301526130d581613099565b9050919050565b7f596f752063616e2774206d61726b207769746820686967686572207468616e2060008201527f3130303000000000000000000000000000000000000000000000000000000000602082015250565b6000613138602483612462565b9150613143826130dc565b604082019050919050565b600060208201905081810360008301526131678161312b565b9050919050565b7f4f6e6c7920656e726f6c6c65642073747564656e747320616c6c6f7765640000600082015250565b60006131a4601e83612462565b91506131af8261316e565b602082019050919050565b600060208201905081810360008301526131d381613197565b9050919050565b7f4f6e6c79206e6f6e2d656e726f6c6c65642073747564656e747320616c6c6f7760008201527f6564000000000000000000000000000000000000000000000000000000000000602082015250565b6000613236602283612462565b9150613241826131da565b604082019050919050565b6000602082019050818103600083015261326581613229565b9050919050565b7f4e616d652063616e277420626520626c616e6b00000000000000000000000000600082015250565b60006132a2601383612462565b91506132ad8261326c565b602082019050919050565b600060208201905081810360008301526132d181613295565b9050919050565b7f456d61696c2063616e277420626520626c616e6b000000000000000000000000600082015250565b600061330e601483612462565b9150613319826132d8565b602082019050919050565b6000602082019050818103600083015261333d81613301565b9050919050565b7f4944206e756d6265722063616e277420626520626c616e6b0000000000000000600082015250565b600061337a601883612462565b915061338582613344565b602082019050919050565b600060208201905081810360008301526133a98161336d565b9050919050565b600081905092915050565b60006133c6826126c1565b6133d081856133b0565b93506133e08185602086016126cc565b80840191505092915050565b60006133f882846133bb565b915081905092915050565b7f4f6e6c7920436f6f7264696e61746f7220616c6c6f7765640000000000000000600082015250565b6000613439601883612462565b915061344482613403565b602082019050919050565b600060208201905081810360008301526134688161342c565b9050919050565b7f4576616c756174696f6e2773206e616d652063616e277420626520626c616e6b600082015250565b60006134a5602083612462565b91506134b08261346f565b602082019050919050565b600060208201905081810360008301526134d481613498565b9050919050565b7f4e487b7100000000000000000000000000000000000000000000000000000000600052601160045260246000fd5b600061351582612551565b915061352083612551565b925082821015613533576135326134db565b5b828203905092915050565b7f4576616c756174696f6e277320696e64657820646f6573206e6f74206578697360008201527f7400000000000000000000000000000000000000000000000000000000000000602082015250565b600061359a602183612462565b91506135a58261353e565b604082019050919050565b600060208201905081810360008301526135c98161358d565b905091905056fea2646970667358221220d950400b7640acbcbf150330e392feeaad4b6ff5204029633fde27e5c6542fc864736f6c634300080b0033",
  "immutableReferences": {},
  "source": "// Authors: Javier Sanz Sez\n//          Javier Antn Yuste\n\n// SPDX-License-Identifier: GPL-3.O\npragma solidity ^0.8.7;\n\ncontract Asignatura {\n    uint public version = 2021;\n    /**\n     * address del profesor que ha desplegado el contrato.\n     * El contrato lo despliega el profesor.\n     */\n\n    address public profesor;\n    string public nombre; // Subject's name\n    string public curso;  // Academic year\n    address public owner; // User that has deployed the contract\n    address public coordinador; // Coordinator's address\n    bool public cerrada; // Boolean to check whether the subject is closed or not\n    mapping(address => string) public datosProfesor;  // Dict: name-address\n    address[] public profesores; // Proffessors' user addresses\n    \n    // Error definition\n    error DNIExistsError (string dni);\n\n    /**\n     * Datos de una evaluacin\n     */\n    struct Evaluacion {\n        string nombreEval;\n        uint fecha;\n        uint puntos;\n    }\n    \n    /// Evaluaciones de la asignatura\n    Evaluacion[] evaluaciones;\n    \n    /// Datos de un getAlumno\n    struct DatosAlumno{\n        string nombre;\n        string email;\n        string dni;\n    }\n    \n    /// Acceder a los datos de un alumno dada su direccin\n    mapping(address => DatosAlumno) public datosAlumno;\n    \n    // Mapping para poder comprobar si existe el DNI \n    mapping(string => string) public dniMap;\n    \n    /// Array con las direcciones de los alumnos matriculados\n    address[] public matriculas;\n    \n    /// Tipos de notas: no presentado, nota entre 0 y 10, y matricula\n    enum TipoNota { NP, Normal, MH }\n    \n    /**\n     * Datos de una nota.\n     * La calificacin est multiplicada por 100 porque no hay decimales\n     */\n     struct Nota {\n        TipoNota tipo;\n        uint calificacion;\n    }\n    \n    // Dada pa direccion de un alumno, y el indice de la evaluacin, devuelve\n    // la nota del alumno\n    mapping (address => mapping (uint => Nota)) public calificaciones;\n    \n    // Constructor \n     constructor(string memory _nombre, string memory _curso) {\n         \n        bytes memory bn = bytes(_nombre);\n        require(bn.length != 0, \"Subject's name can't be blank\");\n         \n        bytes memory bc = bytes(_curso);\n        require(bc.length != 0, \"Subject's academic year can't be blank\");\n         \n        nombre = _nombre;\n        curso = _curso;\n        profesor = msg.sender;\n        owner = msg.sender;\n        cerrada = false;\n    }\n    \n    // Getters\n    function getNombre() public view returns (string memory){\n        return nombre;\n    }\n    function getCurso() public view returns (string memory){\n        return curso;\n    }\n    function getOwnerAddress() public view returns (address){\n        return owner;\n    }\n    function getCoordinador() public view returns (address){\n        return coordinador;\n    }\n    function getNombreProfesor(address dirProfesor) public view returns (string memory){\n        return datosProfesor[dirProfesor];\n    }\n    function getDatosAlumno(address dirAlumno) public view returns (DatosAlumno memory){\n        return datosAlumno[dirAlumno];\n    }\n    function getCalificacion(address dirAlumno, uint indice) public view returns (Nota memory){\n        return calificaciones[dirAlumno][indice];\n    } \n    function miNota(uint evaluacion) soloMatriculados public view returns (TipoNota tipo, uint calificacion){\n        require(evaluacion < evaluaciones.length, \"Evaluation's index does not exist\");\n        Nota memory nota = calificaciones[msg.sender][evaluacion];\n        \n        tipo = nota.tipo;\n        calificacion = nota.calificacion;\n    }\n     \n    // Setter\n    function setCoordinador(address coord) soloOwner soloAbierta public {\n        coordinador = coord;\n    }\n      \n    function cerrar() soloCoordinador public{\n        cerrada = true;\n    }\n    \n    function addProfesor(address dirProfesor, string memory nombreProfesor) soloOwner soloAbierta public {\n        \n        bytes memory bn = bytes(nombreProfesor);\n        require(bn.length != 0, \"Professor's name can't be blank\");\n        \n        string memory existeProfesor = getNombreProfesor(dirProfesor);\n        bytes memory bep = bytes(existeProfesor);\n        require(bep.length == 0, \"Can't add a professor multiple times\");\n        \n        profesores.push(dirProfesor);\n        datosProfesor[dirProfesor] = nombreProfesor;\n    }\n    \n    function profesoresLength() public view returns (uint) {\n        return profesores.length;\n    }\n\n     function evaluacionesLength () public view returns (uint) {\n        return evaluaciones.length;\n    }\n    \n    function creaEvaluacion (string memory _nombre, uint _fecha, uint _puntos) soloAbierta soloCoordinador public returns (uint) {\n                \n        bytes memory bn = bytes(_nombre);\n        require(bn.length != 0, \"Evaluation's name can't be blank\");\n        \n        evaluaciones.push (Evaluacion (_nombre, _fecha, _puntos));\n        return evaluaciones.length - 1;\n    }\n\n     function matriculasLength () public view returns (uint) {\n        return matriculas.length;\n    }\n\n    function automatricula (string memory _nombre, string memory _email, string memory _dni) soloAbierta noMatriculados public {\n                \n        bytes memory bn = bytes(_nombre);\n        require(bn.length != 0, \"Name can't be blank\");\n        bytes memory em = bytes(_email);\n        require(em.length != 0, \"Email can't be blank\");\n        bytes memory bdni = bytes(_dni);\n        require(bdni.length != 0, \"ID number can't be blank\");\n        \n        string memory DNIExists = dniMap[_dni];\n        bytes memory bdni_exists = bytes(DNIExists);\n\n        if (bdni_exists.length != 0){\n            revert DNIExistsError({\n                dni:DNIExists\n            });\n        }\n        \n        DatosAlumno memory datos = DatosAlumno(_nombre,_email,_dni);\n        \n        datosAlumno[msg.sender] = datos;\n        dniMap[_dni] = _nombre;\n        \n        matriculas.push(msg.sender);\n    \n    }\n    \n    function quienSoy() soloMatriculados public view returns (string memory _nombre, string memory _email, string memory _dni){\n        DatosAlumno memory datos = datosAlumno[msg.sender];\n        _nombre = datos.nombre;\n        _email = datos.email;\n        _dni = datos.dni;\n    }\n    \n    function califica(address alumno, uint evaluacion, TipoNota tipo, uint calificacion) soloProfesor soloAbierta public{\n        \n        require(estaMatriculado(alumno), \"You can only mark an enrolled student\");\n        require(evaluacion < evaluaciones.length, \"You can't mark a non-existant evaluation\");\n        require(calificacion <= 1000, \"You can't mark with higher than 1000\");\n        \n        Nota memory nota = Nota(tipo, calificacion);\n        \n        calificaciones[alumno][evaluacion] = nota;\n    }\n    \n     function estaMatriculado(address alumno) private view returns (bool){\n         \n         string memory _nombre = datosAlumno[alumno].nombre;\n         bytes memory b = bytes(_nombre);\n         return b.length != 0;\n     }\n    \n    \n    // Modifiers\n     modifier soloProfesor() {\n         require(msg.sender == profesor, \"Only proffesor allowed\");\n         _;\n     }\n     modifier soloMatriculados(){\n         require(estaMatriculado(msg.sender), \"Only enrolled students allowed\");\n         _;\n     }\n     modifier noMatriculados(){\n         require(!estaMatriculado(msg.sender), \"Only non-enrolled students allowed\");\n         _;\n     }\n     modifier soloOwner(){\n         require(msg.sender == owner, \"Only contract's owner allowed\");\n         _;\n     }\n     modifier soloCoordinador(){\n         require(msg.sender == coordinador, \"Only Coordinator allowed\");\n         _;\n     }\n      modifier soloAbierta(){\n          require(cerrada == false, \"Only allowed if the subject is open\");\n          _;\n      }\n     \n      receive() external payable{\n          revert(\"No money transfer allowed\");\n      }\n\n}\n",
  "sourcePath": "/home/yildirim/Desktop/UNI/BCDA/Practica4/contracts/Asignatura.sol",
  "compiler": {
    "name": "solc",
    "version": "0.8.11+commit.d7f03943.Emscripten.clang"
  },
  "schemaVersion": "3.4.4",
  "updatedAt": "2021-12-31T20:10:31.015Z",
  "networkType": "ethereum",
  "devdoc": {
    "kind": "dev",
    "methods": {},
    "version": 1
  },
  "userdoc": {
    "kind": "user",
    "methods": {
      "datosAlumno(address)": {
        "notice": "Acceder a los datos de un alumno dada su direccin"
      },
      "matriculas(uint256)": {
        "notice": "Array con las direcciones de los alumnos matriculados"
      },
      "profesor()": {
        "notice": "address del profesor que ha desplegado el contrato. El contrato lo despliega el profesor."
      }
    },
    "version": 1
  }
}