{
  "contractName": "Asignatura",
  "abi": [
    {
      "inputs": [
        {
          "internalType": "string",
          "name": "_nombre",
          "type": "string"
        },
        {
          "internalType": "string",
          "name": "_curso",
          "type": "string"
        }
      ],
      "stateMutability": "nonpayable",
      "type": "constructor"
    },
    {
      "inputs": [
        {
          "internalType": "string",
          "name": "dni",
          "type": "string"
        }
      ],
      "name": "DNIExistsError",
      "type": "error"
    },
    {
      "inputs": [
        {
          "internalType": "address",
          "name": "",
          "type": "address"
        },
        {
          "internalType": "uint256",
          "name": "",
          "type": "uint256"
        }
      ],
      "name": "calificaciones",
      "outputs": [
        {
          "internalType": "enum Asignatura.TipoNota",
          "name": "tipo",
          "type": "uint8"
        },
        {
          "internalType": "uint256",
          "name": "calificacion",
          "type": "uint256"
        }
      ],
      "stateMutability": "view",
      "type": "function",
      "constant": true
    },
    {
      "inputs": [],
      "name": "cerrada",
      "outputs": [
        {
          "internalType": "bool",
          "name": "",
          "type": "bool"
        }
      ],
      "stateMutability": "view",
      "type": "function",
      "constant": true
    },
    {
      "inputs": [],
      "name": "coordinador",
      "outputs": [
        {
          "internalType": "address",
          "name": "",
          "type": "address"
        }
      ],
      "stateMutability": "view",
      "type": "function",
      "constant": true
    },
    {
      "inputs": [],
      "name": "curso",
      "outputs": [
        {
          "internalType": "string",
          "name": "",
          "type": "string"
        }
      ],
      "stateMutability": "view",
      "type": "function",
      "constant": true
    },
    {
      "inputs": [
        {
          "internalType": "address",
          "name": "",
          "type": "address"
        }
      ],
      "name": "datosAlumno",
      "outputs": [
        {
          "internalType": "string",
          "name": "nombre",
          "type": "string"
        },
        {
          "internalType": "string",
          "name": "email",
          "type": "string"
        },
        {
          "internalType": "string",
          "name": "dni",
          "type": "string"
        }
      ],
      "stateMutability": "view",
      "type": "function",
      "constant": true
    },
    {
      "inputs": [
        {
          "internalType": "address",
          "name": "",
          "type": "address"
        }
      ],
      "name": "datosProfesor",
      "outputs": [
        {
          "internalType": "string",
          "name": "",
          "type": "string"
        }
      ],
      "stateMutability": "view",
      "type": "function",
      "constant": true
    },
    {
      "inputs": [
        {
          "internalType": "string",
          "name": "",
          "type": "string"
        }
      ],
      "name": "dniMap",
      "outputs": [
        {
          "internalType": "string",
          "name": "",
          "type": "string"
        }
      ],
      "stateMutability": "view",
      "type": "function",
      "constant": true
    },
    {
      "inputs": [
        {
          "internalType": "uint256",
          "name": "",
          "type": "uint256"
        }
      ],
      "name": "matriculas",
      "outputs": [
        {
          "internalType": "address",
          "name": "",
          "type": "address"
        }
      ],
      "stateMutability": "view",
      "type": "function",
      "constant": true
    },
    {
      "inputs": [],
      "name": "nombre",
      "outputs": [
        {
          "internalType": "string",
          "name": "",
          "type": "string"
        }
      ],
      "stateMutability": "view",
      "type": "function",
      "constant": true
    },
    {
      "inputs": [],
      "name": "owner",
      "outputs": [
        {
          "internalType": "address",
          "name": "",
          "type": "address"
        }
      ],
      "stateMutability": "view",
      "type": "function",
      "constant": true
    },
    {
      "inputs": [],
      "name": "profesor",
      "outputs": [
        {
          "internalType": "address",
          "name": "",
          "type": "address"
        }
      ],
      "stateMutability": "view",
      "type": "function",
      "constant": true
    },
    {
      "inputs": [
        {
          "internalType": "uint256",
          "name": "",
          "type": "uint256"
        }
      ],
      "name": "profesores",
      "outputs": [
        {
          "internalType": "address",
          "name": "",
          "type": "address"
        }
      ],
      "stateMutability": "view",
      "type": "function",
      "constant": true
    },
    {
      "inputs": [],
      "name": "version",
      "outputs": [
        {
          "internalType": "uint256",
          "name": "",
          "type": "uint256"
        }
      ],
      "stateMutability": "view",
      "type": "function",
      "constant": true
    },
    {
      "stateMutability": "payable",
      "type": "receive",
      "payable": true
    },
    {
      "inputs": [
        {
          "internalType": "address",
          "name": "dirProfesor",
          "type": "address"
        }
      ],
      "name": "getNombreProfesor",
      "outputs": [
        {
          "internalType": "string",
          "name": "",
          "type": "string"
        }
      ],
      "stateMutability": "view",
      "type": "function",
      "constant": true
    },
    {
      "inputs": [
        {
          "internalType": "address",
          "name": "dirAlumno",
          "type": "address"
        }
      ],
      "name": "getDatosAlumno",
      "outputs": [
        {
          "components": [
            {
              "internalType": "string",
              "name": "nombre",
              "type": "string"
            },
            {
              "internalType": "string",
              "name": "email",
              "type": "string"
            },
            {
              "internalType": "string",
              "name": "dni",
              "type": "string"
            }
          ],
          "internalType": "struct Asignatura.DatosAlumno",
          "name": "",
          "type": "tuple"
        }
      ],
      "stateMutability": "view",
      "type": "function",
      "constant": true
    },
    {
      "inputs": [
        {
          "internalType": "address",
          "name": "dirAlumno",
          "type": "address"
        },
        {
          "internalType": "uint256",
          "name": "indice",
          "type": "uint256"
        }
      ],
      "name": "getCalificacion",
      "outputs": [
        {
          "components": [
            {
              "internalType": "enum Asignatura.TipoNota",
              "name": "tipo",
              "type": "uint8"
            },
            {
              "internalType": "uint256",
              "name": "calificacion",
              "type": "uint256"
            }
          ],
          "internalType": "struct Asignatura.Nota",
          "name": "",
          "type": "tuple"
        }
      ],
      "stateMutability": "view",
      "type": "function",
      "constant": true
    },
    {
      "inputs": [
        {
          "internalType": "uint256",
          "name": "evaluacion",
          "type": "uint256"
        }
      ],
      "name": "miNota",
      "outputs": [
        {
          "internalType": "enum Asignatura.TipoNota",
          "name": "tipo",
          "type": "uint8"
        },
        {
          "internalType": "uint256",
          "name": "calificacion",
          "type": "uint256"
        }
      ],
      "stateMutability": "view",
      "type": "function",
      "constant": true
    },
    {
      "inputs": [
        {
          "internalType": "address",
          "name": "coord",
          "type": "address"
        }
      ],
      "name": "setCoordinador",
      "outputs": [],
      "stateMutability": "nonpayable",
      "type": "function"
    },
    {
      "inputs": [],
      "name": "cerrar",
      "outputs": [],
      "stateMutability": "nonpayable",
      "type": "function"
    },
    {
      "inputs": [],
      "name": "abrir",
      "outputs": [],
      "stateMutability": "nonpayable",
      "type": "function"
    },
    {
      "inputs": [
        {
          "internalType": "address",
          "name": "dirProfesor",
          "type": "address"
        },
        {
          "internalType": "string",
          "name": "nombreProfesor",
          "type": "string"
        }
      ],
      "name": "addProfesor",
      "outputs": [],
      "stateMutability": "nonpayable",
      "type": "function"
    },
    {
      "inputs": [],
      "name": "profesoresLength",
      "outputs": [
        {
          "internalType": "uint256",
          "name": "",
          "type": "uint256"
        }
      ],
      "stateMutability": "view",
      "type": "function",
      "constant": true
    },
    {
      "inputs": [],
      "name": "evaluacionesLength",
      "outputs": [
        {
          "internalType": "uint256",
          "name": "",
          "type": "uint256"
        }
      ],
      "stateMutability": "view",
      "type": "function",
      "constant": true
    },
    {
      "inputs": [
        {
          "internalType": "string",
          "name": "_nombre",
          "type": "string"
        },
        {
          "internalType": "uint256",
          "name": "_fecha",
          "type": "uint256"
        },
        {
          "internalType": "uint256",
          "name": "_puntos",
          "type": "uint256"
        }
      ],
      "name": "creaEvaluacion",
      "outputs": [
        {
          "internalType": "uint256",
          "name": "",
          "type": "uint256"
        }
      ],
      "stateMutability": "nonpayable",
      "type": "function"
    },
    {
      "inputs": [],
      "name": "matriculasLength",
      "outputs": [
        {
          "internalType": "uint256",
          "name": "",
          "type": "uint256"
        }
      ],
      "stateMutability": "view",
      "type": "function",
      "constant": true
    },
    {
      "inputs": [
        {
          "internalType": "string",
          "name": "_nombre",
          "type": "string"
        },
        {
          "internalType": "string",
          "name": "_email",
          "type": "string"
        },
        {
          "internalType": "string",
          "name": "_dni",
          "type": "string"
        }
      ],
      "name": "automatricula",
      "outputs": [],
      "stateMutability": "nonpayable",
      "type": "function"
    },
    {
      "inputs": [],
      "name": "quienSoy",
      "outputs": [
        {
          "internalType": "string",
          "name": "_nombre",
          "type": "string"
        },
        {
          "internalType": "string",
          "name": "_email",
          "type": "string"
        },
        {
          "internalType": "string",
          "name": "_dni",
          "type": "string"
        }
      ],
      "stateMutability": "view",
      "type": "function",
      "constant": true
    },
    {
      "inputs": [
        {
          "internalType": "address",
          "name": "alumno",
          "type": "address"
        },
        {
          "internalType": "uint256",
          "name": "evaluacion",
          "type": "uint256"
        },
        {
          "internalType": "enum Asignatura.TipoNota",
          "name": "tipo",
          "type": "uint8"
        },
        {
          "internalType": "uint256",
          "name": "calificacion",
          "type": "uint256"
        }
      ],
      "name": "califica",
      "outputs": [],
      "stateMutability": "nonpayable",
      "type": "function"
    }
  ],
  "bytecode": "0x60806040526107e56000553480156200001757600080fd5b5060405162003a9738038062003a9783398181016040528101906200003d9190620003fd565b60008290506000815114156200008a576040517f08c379a00000000000000000000000000000000000000000000000000000000081526004016200008190620004e3565b60405180910390fd5b6000829050600081511415620000d7576040517f08c379a0000000000000000000000000000000000000000000000000000000008152600401620000ce906200057b565b60405180910390fd5b8360029080519060200190620000ef929190620001b0565b50826003908051906020019062000108929190620001b0565b5033600160006101000a81548173ffffffffffffffffffffffffffffffffffffffff021916908373ffffffffffffffffffffffffffffffffffffffff16021790555033600460006101000a81548173ffffffffffffffffffffffffffffffffffffffff021916908373ffffffffffffffffffffffffffffffffffffffff1602179055506000600560146101000a81548160ff0219169083151502179055505050505062000602565b828054620001be90620005cc565b90600052602060002090601f016020900481019282620001e257600085556200022e565b82601f10620001fd57805160ff19168380011785556200022e565b828001600101855582156200022e579182015b828111156200022d57825182559160200191906001019062000210565b5b5090506200023d919062000241565b5090565b5b808211156200025c57600081600090555060010162000242565b5090565b6000604051905090565b600080fd5b600080fd5b600080fd5b600080fd5b6000601f19601f8301169050919050565b7f4e487b7100000000000000000000000000000000000000000000000000000000600052604160045260246000fd5b620002c9826200027e565b810181811067ffffffffffffffff82111715620002eb57620002ea6200028f565b5b80604052505050565b60006200030062000260565b90506200030e8282620002be565b919050565b600067ffffffffffffffff8211156200033157620003306200028f565b5b6200033c826200027e565b9050602081019050919050565b60005b83811015620003695780820151818401526020810190506200034c565b8381111562000379576000848401525b50505050565b600062000396620003908462000313565b620002f4565b905082815260208101848484011115620003b557620003b462000279565b5b620003c284828562000349565b509392505050565b600082601f830112620003e257620003e162000274565b5b8151620003f48482602086016200037f565b91505092915050565b600080604083850312156200041757620004166200026a565b5b600083015167ffffffffffffffff8111156200043857620004376200026f565b5b6200044685828601620003ca565b925050602083015167ffffffffffffffff8111156200046a57620004696200026f565b5b6200047885828601620003ca565b9150509250929050565b600082825260208201905092915050565b7f5375626a6563742773206e616d652063616e277420626520626c616e6b000000600082015250565b6000620004cb601d8362000482565b9150620004d88262000493565b602082019050919050565b60006020820190508181036000830152620004fe81620004bc565b9050919050565b7f5375626a65637427732061636164656d696320796561722063616e277420626560008201527f20626c616e6b0000000000000000000000000000000000000000000000000000602082015250565b60006200056360268362000482565b9150620005708262000505565b604082019050919050565b60006020820190508181036000830152620005968162000554565b9050919050565b7f4e487b7100000000000000000000000000000000000000000000000000000000600052602260045260246000fd5b60006002820490506001821680620005e557607f821691505b60208210811415620005fc57620005fb6200059d565b5b50919050565b61348580620006126000396000f3fe6080604052600436106101bb5760003560e01c80638da5cb5b116100ec578063d27c3f3c1161008a578063deafcc4111610064578063deafcc4114610692578063df096576146106bd578063e81378d9146106e8578063f967f98614610725576101fb565b8063d27c3f3c14610614578063d51b458414610652578063dab6ff281461067b576101fb565b8063bc7b35b2116100c6578063bc7b35b214610532578063c79181391461055d578063c83737501461059a578063d017da1f146105d7576101fb565b80638da5cb5b1461049f57806393a3a345146104ca5780639e1d8f4b14610507576101fb565b806354fd4d50116101595780636bf8aad6116101335780636bf8aad6146103e15780636fbb9dc7146104205780637810ff1e1461045d5780638ab724c414610488576101fb565b806354fd4d5014610350578063641945bf1461037b578063681d4ca6146103b8576101fb565b806330322c9b1161019557806330322c9b1461029157806342a6dde2146102ba578063488cf4f5146102f85780635376688314610323576101fb565b80630c2e7895146102005780631d2e4d2b1461023d57806322c4e39414610266576101fb565b366101fb576040517f08c379a00000000000000000000000000000000000000000000000000000000081526004016101f29061233e565b60405180910390fd5b600080fd5b34801561020c57600080fd5b5061022760048036038101906102229190612406565b610750565b60405161023491906124fb565b60405180910390f35b34801561024957600080fd5b50610264600480360381019061025f919061265c565b610800565b005b34801561027257600080fd5b5061027b610a44565b60405161028891906126d3565b60405180910390f35b34801561029d57600080fd5b506102b860048036038101906102b39190612713565b610a57565b005b3480156102c657600080fd5b506102e160048036038101906102dc9190612406565b610cd1565b6040516102ef929190612798565b60405180910390f35b34801561030457600080fd5b5061030d610d0f565b60405161031a91906127c1565b60405180910390f35b34801561032f57600080fd5b50610338610d1c565b60405161034793929190612853565b60405180910390f35b34801561035c57600080fd5b50610365610f88565b60405161037291906127c1565b60405180910390f35b34801561038757600080fd5b506103a2600480360381019061039d919061289f565b610f8e565b6040516103af91906128cc565b60405180910390f35b3480156103c457600080fd5b506103df60048036038101906103da91906128ee565b61102e565b005b3480156103ed57600080fd5b506104086004803603810190610403919061289f565b6113fb565b60405161041793929190612853565b60405180910390f35b34801561042c57600080fd5b506104476004803603810190610442919061289f565b6115bd565b6040516104549190612a3d565b60405180910390f35b34801561046957600080fd5b506104726117cc565b60405161047f9190612a6e565b60405180910390f35b34801561049457600080fd5b5061049d6117f2565b005b3480156104ab57600080fd5b506104b461189f565b6040516104c19190612a6e565b60405180910390f35b3480156104d657600080fd5b506104f160048036038101906104ec9190612a89565b6118c5565b6040516104fe91906128cc565b60405180910390f35b34801561051357600080fd5b5061051c61197b565b60405161052991906127c1565b60405180910390f35b34801561053e57600080fd5b50610547611988565b60405161055491906128cc565b60405180910390f35b34801561056957600080fd5b50610584600480360381019061057f9190612ad2565b611a16565b6040516105919190612a6e565b60405180910390f35b3480156105a657600080fd5b506105c160048036038101906105bc9190612ad2565b611a55565b6040516105ce9190612a6e565b60405180910390f35b3480156105e357600080fd5b506105fe60048036038101906105f99190612aff565b611a94565b60405161060b91906127c1565b60405180910390f35b34801561062057600080fd5b5061063b60048036038101906106369190612ad2565b611c5a565b604051610649929190612798565b60405180910390f35b34801561065e57600080fd5b506106796004803603810190610674919061289f565b611da4565b005b34801561068757600080fd5b50610690611ece565b005b34801561069e57600080fd5b506106a7611f7b565b6040516106b491906128cc565b60405180910390f35b3480156106c957600080fd5b506106d2612009565b6040516106df9190612a6e565b60405180910390f35b3480156106f457600080fd5b5061070f600480360381019061070a919061289f565b61202f565b60405161071c91906128cc565b60405180910390f35b34801561073157600080fd5b5061073a612100565b60405161074791906127c1565b60405180910390f35b6107586121f1565b600c60008473ffffffffffffffffffffffffffffffffffffffff1673ffffffffffffffffffffffffffffffffffffffff16815260200190815260200160002060008381526020019081526020016000206040518060400160405290816000820160009054906101000a900460ff1660028111156107d8576107d7612446565b5b60028111156107ea576107e9612446565b5b8152602001600182015481525050905092915050565b600460009054906101000a900473ffffffffffffffffffffffffffffffffffffffff1673ffffffffffffffffffffffffffffffffffffffff163373ffffffffffffffffffffffffffffffffffffffff1614610890576040517f08c379a000000000000000000000000000000000000000000000000000000000815260040161088790612bba565b60405180910390fd5b60001515600560149054906101000a900460ff161515146108e6576040517f08c379a00000000000000000000000000000000000000000000000000000000081526004016108dd90612c4c565b60405180910390fd5b6000819050600081511415610930576040517f08c379a000000000000000000000000000000000000000000000000000000000815260040161092790612cb8565b60405180910390fd5b600061093b8461202f565b905060008190506000815114610986576040517f08c379a000000000000000000000000000000000000000000000000000000000815260040161097d90612d4a565b60405180910390fd5b6007859080600181540180825580915050600190039060005260206000200160009091909190916101000a81548173ffffffffffffffffffffffffffffffffffffffff021916908373ffffffffffffffffffffffffffffffffffffffff16021790555083600660008773ffffffffffffffffffffffffffffffffffffffff1673ffffffffffffffffffffffffffffffffffffffff1681526020019081526020016000209080519060200190610a3c92919061221d565b505050505050565b600560149054906101000a900460ff1681565b600160009054906101000a900473ffffffffffffffffffffffffffffffffffffffff1673ffffffffffffffffffffffffffffffffffffffff163373ffffffffffffffffffffffffffffffffffffffff1614610ae7576040517f08c379a0000000000000000000000000000000000000000000000000000000008152600401610ade90612db6565b60405180910390fd5b60001515600560149054906101000a900460ff16151514610b3d576040517f08c379a0000000000000000000000000000000000000000000000000000000008152600401610b3490612c4c565b60405180910390fd5b610b468461210d565b610b85576040517f08c379a0000000000000000000000000000000000000000000000000000000008152600401610b7c90612e48565b60405180910390fd5b6008805490508310610bcc576040517f08c379a0000000000000000000000000000000000000000000000000000000008152600401610bc390612eda565b60405180910390fd5b6103e8811115610c11576040517f08c379a0000000000000000000000000000000000000000000000000000000008152600401610c0890612f6c565b60405180910390fd5b60006040518060400160405280846002811115610c3157610c30612446565b5b815260200183815250905080600c60008773ffffffffffffffffffffffffffffffffffffffff1673ffffffffffffffffffffffffffffffffffffffff168152602001908152602001600020600086815260200190815260200160002060008201518160000160006101000a81548160ff02191690836002811115610cb857610cb7612446565b5b0217905550602082015181600101559050505050505050565b600c602052816000526040600020602052806000526040600020600091509150508060000160009054906101000a900460ff16908060010154905082565b6000600880549050905090565b6060806060610d2a3361210d565b610d69576040517f08c379a0000000000000000000000000000000000000000000000000000000008152600401610d6090612fd8565b60405180910390fd5b6000600960003373ffffffffffffffffffffffffffffffffffffffff1673ffffffffffffffffffffffffffffffffffffffff168152602001908152602001600020604051806060016040529081600082018054610dc590613027565b80601f0160208091040260200160405190810160405280929190818152602001828054610df190613027565b8015610e3e5780601f10610e1357610100808354040283529160200191610e3e565b820191906000526020600020905b815481529060010190602001808311610e2157829003601f168201915b50505050508152602001600182018054610e5790613027565b80601f0160208091040260200160405190810160405280929190818152602001828054610e8390613027565b8015610ed05780601f10610ea557610100808354040283529160200191610ed0565b820191906000526020600020905b815481529060010190602001808311610eb357829003601f168201915b50505050508152602001600282018054610ee990613027565b80601f0160208091040260200160405190810160405280929190818152602001828054610f1590613027565b8015610f625780601f10610f3757610100808354040283529160200191610f62565b820191906000526020600020905b815481529060010190602001808311610f4557829003601f168201915b505050505081525050905080600001519350806020015192508060400151915050909192565b60005481565b60066020528060005260406000206000915090508054610fad90613027565b80601f0160208091040260200160405190810160405280929190818152602001828054610fd990613027565b80156110265780601f10610ffb57610100808354040283529160200191611026565b820191906000526020600020905b81548152906001019060200180831161100957829003601f168201915b505050505081565b60001515600560149054906101000a900460ff16151514611084576040517f08c379a000000000000000000000000000000000000000000000000000000000815260040161107b90612c4c565b60405180910390fd5b61108d3361210d565b156110cd576040517f08c379a00000000000000000000000000000000000000000000000000000000081526004016110c4906130cb565b60405180910390fd5b6000839050600081511415611117576040517f08c379a000000000000000000000000000000000000000000000000000000000815260040161110e90613137565b60405180910390fd5b6000839050600081511415611161576040517f08c379a0000000000000000000000000000000000000000000000000000000008152600401611158906131a3565b60405180910390fd5b60008390506000815114156111ab576040517f08c379a00000000000000000000000000000000000000000000000000000000081526004016111a29061320f565b60405180910390fd5b6000600a856040516111bd919061326b565b908152602001604051809103902080546111d690613027565b80601f016020809104026020016040519081016040528092919081815260200182805461120290613027565b801561124f5780601f106112245761010080835404028352916020019161124f565b820191906000526020600020905b81548152906001019060200180831161123257829003601f168201915b50505050509050600081905060008151146112a157816040517f995e035300000000000000000000000000000000000000000000000000000000815260040161129891906128cc565b60405180910390fd5b600060405180606001604052808a815260200189815260200188815250905080600960003373ffffffffffffffffffffffffffffffffffffffff1673ffffffffffffffffffffffffffffffffffffffff168152602001908152602001600020600082015181600001908051906020019061131c92919061221d565b50602082015181600101908051906020019061133992919061221d565b50604082015181600201908051906020019061135692919061221d565b5090505088600a8860405161136b919061326b565b9081526020016040518091039020908051906020019061138c92919061221d565b50600b339080600181540180825580915050600190039060005260206000200160009091909190916101000a81548173ffffffffffffffffffffffffffffffffffffffff021916908373ffffffffffffffffffffffffffffffffffffffff160217905550505050505050505050565b600960205280600052604060002060009150905080600001805461141e90613027565b80601f016020809104026020016040519081016040528092919081815260200182805461144a90613027565b80156114975780601f1061146c57610100808354040283529160200191611497565b820191906000526020600020905b81548152906001019060200180831161147a57829003601f168201915b5050505050908060010180546114ac90613027565b80601f01602080910402602001604051908101604052809291908181526020018280546114d890613027565b80156115255780601f106114fa57610100808354040283529160200191611525565b820191906000526020600020905b81548152906001019060200180831161150857829003601f168201915b50505050509080600201805461153a90613027565b80601f016020809104026020016040519081016040528092919081815260200182805461156690613027565b80156115b35780601f10611588576101008083540402835291602001916115b3565b820191906000526020600020905b81548152906001019060200180831161159657829003601f168201915b5050505050905083565b6115c56122a3565b600960008373ffffffffffffffffffffffffffffffffffffffff1673ffffffffffffffffffffffffffffffffffffffff16815260200190815260200160002060405180606001604052908160008201805461161f90613027565b80601f016020809104026020016040519081016040528092919081815260200182805461164b90613027565b80156116985780601f1061166d57610100808354040283529160200191611698565b820191906000526020600020905b81548152906001019060200180831161167b57829003601f168201915b505050505081526020016001820180546116b190613027565b80601f01602080910402602001604051908101604052809291908181526020018280546116dd90613027565b801561172a5780601f106116ff5761010080835404028352916020019161172a565b820191906000526020600020905b81548152906001019060200180831161170d57829003601f168201915b5050505050815260200160028201805461174390613027565b80601f016020809104026020016040519081016040528092919081815260200182805461176f90613027565b80156117bc5780601f10611791576101008083540402835291602001916117bc565b820191906000526020600020905b81548152906001019060200180831161179f57829003601f168201915b5050505050815250509050919050565b600560009054906101000a900473ffffffffffffffffffffffffffffffffffffffff1681565b600560009054906101000a900473ffffffffffffffffffffffffffffffffffffffff1673ffffffffffffffffffffffffffffffffffffffff163373ffffffffffffffffffffffffffffffffffffffff1614611882576040517f08c379a0000000000000000000000000000000000000000000000000000000008152600401611879906132ce565b60405180910390fd5b6000600560146101000a81548160ff021916908315150217905550565b600460009054906101000a900473ffffffffffffffffffffffffffffffffffffffff1681565b600a8180516020810182018051848252602083016020850120818352809550505050505060009150905080546118fa90613027565b80601f016020809104026020016040519081016040528092919081815260200182805461192690613027565b80156119735780601f1061194857610100808354040283529160200191611973565b820191906000526020600020905b81548152906001019060200180831161195657829003601f168201915b505050505081565b6000600b80549050905090565b6002805461199590613027565b80601f01602080910402602001604051908101604052809291908181526020018280546119c190613027565b8015611a0e5780601f106119e357610100808354040283529160200191611a0e565b820191906000526020600020905b8154815290600101906020018083116119f157829003601f168201915b505050505081565b600b8181548110611a2657600080fd5b906000526020600020016000915054906101000a900473ffffffffffffffffffffffffffffffffffffffff1681565b60078181548110611a6557600080fd5b906000526020600020016000915054906101000a900473ffffffffffffffffffffffffffffffffffffffff1681565b6000801515600560149054906101000a900460ff16151514611aeb576040517f08c379a0000000000000000000000000000000000000000000000000000000008152600401611ae290612c4c565b60405180910390fd5b600560009054906101000a900473ffffffffffffffffffffffffffffffffffffffff1673ffffffffffffffffffffffffffffffffffffffff163373ffffffffffffffffffffffffffffffffffffffff1614611b7b576040517f08c379a0000000000000000000000000000000000000000000000000000000008152600401611b72906132ce565b60405180910390fd5b6000849050600081511415611bc5576040517f08c379a0000000000000000000000000000000000000000000000000000000008152600401611bbc9061333a565b60405180910390fd5b600860405180606001604052808781526020018681526020018581525090806001815401808255809150506001900390600052602060002090600302016000909190919091506000820151816000019080519060200190611c2792919061221d565b50602082015181600101556040820151816002015550506001600880549050611c509190613389565b9150509392505050565b600080611c663361210d565b611ca5576040517f08c379a0000000000000000000000000000000000000000000000000000000008152600401611c9c90612fd8565b60405180910390fd5b6008805490508310611cec576040517f08c379a0000000000000000000000000000000000000000000000000000000008152600401611ce39061342f565b60405180910390fd5b6000600c60003373ffffffffffffffffffffffffffffffffffffffff1673ffffffffffffffffffffffffffffffffffffffff16815260200190815260200160002060008581526020019081526020016000206040518060400160405290816000820160009054906101000a900460ff166002811115611d6e57611d6d612446565b5b6002811115611d8057611d7f612446565b5b81526020016001820154815250509050806000015192508060200151915050915091565b600460009054906101000a900473ffffffffffffffffffffffffffffffffffffffff1673ffffffffffffffffffffffffffffffffffffffff163373ffffffffffffffffffffffffffffffffffffffff1614611e34576040517f08c379a0000000000000000000000000000000000000000000000000000000008152600401611e2b90612bba565b60405180910390fd5b60001515600560149054906101000a900460ff16151514611e8a576040517f08c379a0000000000000000000000000000000000000000000000000000000008152600401611e8190612c4c565b60405180910390fd5b80600560006101000a81548173ffffffffffffffffffffffffffffffffffffffff021916908373ffffffffffffffffffffffffffffffffffffffff16021790555050565b600560009054906101000a900473ffffffffffffffffffffffffffffffffffffffff1673ffffffffffffffffffffffffffffffffffffffff163373ffffffffffffffffffffffffffffffffffffffff1614611f5e576040517f08c379a0000000000000000000000000000000000000000000000000000000008152600401611f55906132ce565b60405180910390fd5b6001600560146101000a81548160ff021916908315150217905550565b60038054611f8890613027565b80601f0160208091040260200160405190810160405280929190818152602001828054611fb490613027565b80156120015780601f10611fd657610100808354040283529160200191612001565b820191906000526020600020905b815481529060010190602001808311611fe457829003601f168201915b505050505081565b600160009054906101000a900473ffffffffffffffffffffffffffffffffffffffff1681565b6060600660008373ffffffffffffffffffffffffffffffffffffffff1673ffffffffffffffffffffffffffffffffffffffff168152602001908152602001600020805461207b90613027565b80601f01602080910402602001604051908101604052809291908181526020018280546120a790613027565b80156120f45780601f106120c9576101008083540402835291602001916120f4565b820191906000526020600020905b8154815290600101906020018083116120d757829003601f168201915b50505050509050919050565b6000600780549050905090565b600080600960008473ffffffffffffffffffffffffffffffffffffffff1673ffffffffffffffffffffffffffffffffffffffff168152602001908152602001600020600001805461215d90613027565b80601f016020809104026020016040519081016040528092919081815260200182805461218990613027565b80156121d65780601f106121ab576101008083540402835291602001916121d6565b820191906000526020600020905b8154815290600101906020018083116121b957829003601f168201915b50505050509050600081905060008151141592505050919050565b6040518060400160405280600060028111156122105761220f612446565b5b8152602001600081525090565b82805461222990613027565b90600052602060002090601f01602090048101928261224b5760008555612292565b82601f1061226457805160ff1916838001178555612292565b82800160010185558215612292579182015b82811115612291578251825591602001919060010190612276565b5b50905061229f91906122c4565b5090565b60405180606001604052806060815260200160608152602001606081525090565b5b808211156122dd5760008160009055506001016122c5565b5090565b600082825260208201905092915050565b7f4e6f206d6f6e6579207472616e7366657220616c6c6f77656400000000000000600082015250565b60006123286019836122e1565b9150612333826122f2565b602082019050919050565b600060208201905081810360008301526123578161231b565b9050919050565b6000604051905090565b600080fd5b600080fd5b600073ffffffffffffffffffffffffffffffffffffffff82169050919050565b600061239d82612372565b9050919050565b6123ad81612392565b81146123b857600080fd5b50565b6000813590506123ca816123a4565b92915050565b6000819050919050565b6123e3816123d0565b81146123ee57600080fd5b50565b600081359050612400816123da565b92915050565b6000806040838503121561241d5761241c612368565b5b600061242b858286016123bb565b925050602061243c858286016123f1565b9150509250929050565b7f4e487b7100000000000000000000000000000000000000000000000000000000600052602160045260246000fd5b6003811061248657612485612446565b5b50565b600081905061249782612475565b919050565b60006124a782612489565b9050919050565b6124b78161249c565b82525050565b6124c6816123d0565b82525050565b6040820160008201516124e260008501826124ae565b5060208201516124f560208501826124bd565b50505050565b600060408201905061251060008301846124cc565b92915050565b600080fd5b600080fd5b6000601f19601f8301169050919050565b7f4e487b7100000000000000000000000000000000000000000000000000000000600052604160045260246000fd5b61256982612520565b810181811067ffffffffffffffff8211171561258857612587612531565b5b80604052505050565b600061259b61235e565b90506125a78282612560565b919050565b600067ffffffffffffffff8211156125c7576125c6612531565b5b6125d082612520565b9050602081019050919050565b82818337600083830152505050565b60006125ff6125fa846125ac565b612591565b90508281526020810184848401111561261b5761261a61251b565b5b6126268482856125dd565b509392505050565b600082601f83011261264357612642612516565b5b81356126538482602086016125ec565b91505092915050565b6000806040838503121561267357612672612368565b5b6000612681858286016123bb565b925050602083013567ffffffffffffffff8111156126a2576126a161236d565b5b6126ae8582860161262e565b9150509250929050565b60008115159050919050565b6126cd816126b8565b82525050565b60006020820190506126e860008301846126c4565b92915050565b600381106126fb57600080fd5b50565b60008135905061270d816126ee565b92915050565b6000806000806080858703121561272d5761272c612368565b5b600061273b878288016123bb565b945050602061274c878288016123f1565b935050604061275d878288016126fe565b925050606061276e878288016123f1565b91505092959194509250565b6127838161249c565b82525050565b612792816123d0565b82525050565b60006040820190506127ad600083018561277a565b6127ba6020830184612789565b9392505050565b60006020820190506127d66000830184612789565b92915050565b600081519050919050565b60005b838110156128055780820151818401526020810190506127ea565b83811115612814576000848401525b50505050565b6000612825826127dc565b61282f81856122e1565b935061283f8185602086016127e7565b61284881612520565b840191505092915050565b6000606082019050818103600083015261286d818661281a565b90508181036020830152612881818561281a565b90508181036040830152612895818461281a565b9050949350505050565b6000602082840312156128b5576128b4612368565b5b60006128c3848285016123bb565b91505092915050565b600060208201905081810360008301526128e6818461281a565b905092915050565b60008060006060848603121561290757612906612368565b5b600084013567ffffffffffffffff8111156129255761292461236d565b5b6129318682870161262e565b935050602084013567ffffffffffffffff8111156129525761295161236d565b5b61295e8682870161262e565b925050604084013567ffffffffffffffff81111561297f5761297e61236d565b5b61298b8682870161262e565b9150509250925092565b600082825260208201905092915050565b60006129b1826127dc565b6129bb8185612995565b93506129cb8185602086016127e7565b6129d481612520565b840191505092915050565b600060608301600083015184820360008601526129fc82826129a6565b91505060208301518482036020860152612a1682826129a6565b91505060408301518482036040860152612a3082826129a6565b9150508091505092915050565b60006020820190508181036000830152612a5781846129df565b905092915050565b612a6881612392565b82525050565b6000602082019050612a836000830184612a5f565b92915050565b600060208284031215612a9f57612a9e612368565b5b600082013567ffffffffffffffff811115612abd57612abc61236d565b5b612ac98482850161262e565b91505092915050565b600060208284031215612ae857612ae7612368565b5b6000612af6848285016123f1565b91505092915050565b600080600060608486031215612b1857612b17612368565b5b600084013567ffffffffffffffff811115612b3657612b3561236d565b5b612b428682870161262e565b9350506020612b53868287016123f1565b9250506040612b64868287016123f1565b9150509250925092565b7f4f6e6c7920636f6e74726163742773206f776e657220616c6c6f776564000000600082015250565b6000612ba4601d836122e1565b9150612baf82612b6e565b602082019050919050565b60006020820190508181036000830152612bd381612b97565b9050919050565b7f4f6e6c7920616c6c6f77656420696620746865207375626a656374206973206f60008201527f70656e0000000000000000000000000000000000000000000000000000000000602082015250565b6000612c366023836122e1565b9150612c4182612bda565b604082019050919050565b60006020820190508181036000830152612c6581612c29565b9050919050565b7f50726f666573736f722773206e616d652063616e277420626520626c616e6b00600082015250565b6000612ca2601f836122e1565b9150612cad82612c6c565b602082019050919050565b60006020820190508181036000830152612cd181612c95565b9050919050565b7f43616e27742061646420612070726f666573736f72206d756c7469706c65207460008201527f696d657300000000000000000000000000000000000000000000000000000000602082015250565b6000612d346024836122e1565b9150612d3f82612cd8565b604082019050919050565b60006020820190508181036000830152612d6381612d27565b9050919050565b7f4f6e6c792070726f666665736f7220616c6c6f77656400000000000000000000600082015250565b6000612da06016836122e1565b9150612dab82612d6a565b602082019050919050565b60006020820190508181036000830152612dcf81612d93565b9050919050565b7f596f752063616e206f6e6c79206d61726b20616e20656e726f6c6c656420737460008201527f7564656e74000000000000000000000000000000000000000000000000000000602082015250565b6000612e326025836122e1565b9150612e3d82612dd6565b604082019050919050565b60006020820190508181036000830152612e6181612e25565b9050919050565b7f596f752063616e2774206d61726b2061206e6f6e2d6578697374616e7420657660008201527f616c756174696f6e000000000000000000000000000000000000000000000000602082015250565b6000612ec46028836122e1565b9150612ecf82612e68565b604082019050919050565b60006020820190508181036000830152612ef381612eb7565b9050919050565b7f596f752063616e2774206d61726b207769746820686967686572207468616e2060008201527f3130303000000000000000000000000000000000000000000000000000000000602082015250565b6000612f566024836122e1565b9150612f6182612efa565b604082019050919050565b60006020820190508181036000830152612f8581612f49565b9050919050565b7f4f6e6c7920656e726f6c6c65642073747564656e747320616c6c6f7765640000600082015250565b6000612fc2601e836122e1565b9150612fcd82612f8c565b602082019050919050565b60006020820190508181036000830152612ff181612fb5565b9050919050565b7f4e487b7100000000000000000000000000000000000000000000000000000000600052602260045260246000fd5b6000600282049050600182168061303f57607f821691505b6020821081141561305357613052612ff8565b5b50919050565b7f4f6e6c79206e6f6e2d656e726f6c6c65642073747564656e747320616c6c6f7760008201527f6564000000000000000000000000000000000000000000000000000000000000602082015250565b60006130b56022836122e1565b91506130c082613059565b604082019050919050565b600060208201905081810360008301526130e4816130a8565b9050919050565b7f4e616d652063616e277420626520626c616e6b00000000000000000000000000600082015250565b60006131216013836122e1565b915061312c826130eb565b602082019050919050565b6000602082019050818103600083015261315081613114565b9050919050565b7f456d61696c2063616e277420626520626c616e6b000000000000000000000000600082015250565b600061318d6014836122e1565b915061319882613157565b602082019050919050565b600060208201905081810360008301526131bc81613180565b9050919050565b7f4944206e756d6265722063616e277420626520626c616e6b0000000000000000600082015250565b60006131f96018836122e1565b9150613204826131c3565b602082019050919050565b60006020820190508181036000830152613228816131ec565b9050919050565b600081905092915050565b6000613245826127dc565b61324f818561322f565b935061325f8185602086016127e7565b80840191505092915050565b6000613277828461323a565b915081905092915050565b7f4f6e6c7920436f6f7264696e61746f7220616c6c6f7765640000000000000000600082015250565b60006132b86018836122e1565b91506132c382613282565b602082019050919050565b600060208201905081810360008301526132e7816132ab565b9050919050565b7f4576616c756174696f6e2773206e616d652063616e277420626520626c616e6b600082015250565b60006133246020836122e1565b915061332f826132ee565b602082019050919050565b6000602082019050818103600083015261335381613317565b9050919050565b7f4e487b7100000000000000000000000000000000000000000000000000000000600052601160045260246000fd5b6000613394826123d0565b915061339f836123d0565b9250828210156133b2576133b161335a565b5b828203905092915050565b7f4576616c756174696f6e277320696e64657820646f6573206e6f74206578697360008201527f7400000000000000000000000000000000000000000000000000000000000000602082015250565b60006134196021836122e1565b9150613424826133bd565b604082019050919050565b600060208201905081810360008301526134488161340c565b905091905056fea2646970667358221220b2d52783fa145d587c63c2e3f97ee05baf46cec54fc9857c33cee42945fda6ba64736f6c634300080b0033",
  "immutableReferences": {},
  "source": "// Authors: Javier Sanz Sez\n//          Javier Antn Yuste\n\n// SPDX-License-Identifier: GPL-3.O\npragma solidity ^0.8.7;\n\ncontract Asignatura {\n    uint public version = 2021;\n    /**\n     * address del profesor que ha desplegado el contrato.\n     * El contrato lo despliega el profesor.\n     */\n\n    address public profesor;\n    string public nombre; // Subject's name\n    string public curso;  // Academic year\n    address public owner; // User that has deployed the contract\n    address public coordinador; // Coordinator's address\n    bool public cerrada; // Boolean to check whether the subject is closed or not\n    mapping(address => string) public datosProfesor;  // Dict: name-address\n    address[] public profesores; // Proffessors' user addresses\n    \n    // Error definition\n    error DNIExistsError (string dni);\n\n    /**\n     * Datos de una evaluacin\n     */\n    struct Evaluacion {\n        string nombreEval;\n        uint fecha;\n        uint puntos;\n    }\n    \n    /// Evaluaciones de la asignatura\n    Evaluacion[] evaluaciones;\n    \n    /// Datos de un getAlumno\n    struct DatosAlumno{\n        string nombre;\n        string email;\n        string dni;\n    }\n    \n    /// Acceder a los datos de un alumno dada su direccin\n    mapping(address => DatosAlumno) public datosAlumno;\n    \n    // Mapping para poder comprobar si existe el DNI \n    mapping(string => string) public dniMap;\n    \n    /// Array con las direcciones de los alumnos matriculados\n    address[] public matriculas;\n    \n    /// Tipos de notas: no presentado, nota entre 0 y 10, y matricula\n    enum TipoNota { NP, Normal, MH }\n    \n    /**\n     * Datos de una nota.\n     * La calificacin est multiplicada por 100 porque no hay decimales\n     */\n     struct Nota {\n        TipoNota tipo;\n        uint calificacion;\n    }\n    \n    // Dada pa direccion de un alumno, y el indice de la evaluacin, devuelve\n    // la nota del alumno\n    mapping (address => mapping (uint => Nota)) public calificaciones;\n    \n    // Constructor \n     constructor(string memory _nombre, string memory _curso) {\n         \n        bytes memory bn = bytes(_nombre);\n        require(bn.length != 0, \"Subject's name can't be blank\");\n         \n        bytes memory bc = bytes(_curso);\n        require(bc.length != 0, \"Subject's academic year can't be blank\");\n         \n        nombre = _nombre;\n        curso = _curso;\n        profesor = msg.sender;\n        owner = msg.sender;\n        cerrada = false;\n    }\n    \n    // Getters\n    function getNombreProfesor(address dirProfesor) public view returns (string memory){\n        return datosProfesor[dirProfesor];\n    }\n    function getDatosAlumno(address dirAlumno) public view returns (DatosAlumno memory){\n        return datosAlumno[dirAlumno];\n    }\n    function getCalificacion(address dirAlumno, uint indice) public view returns (Nota memory){\n        return calificaciones[dirAlumno][indice];\n    } \n    function miNota(uint evaluacion) soloMatriculados public view returns (TipoNota tipo, uint calificacion){\n        require(evaluacion < evaluaciones.length, \"Evaluation's index does not exist\");\n        Nota memory nota = calificaciones[msg.sender][evaluacion];\n        \n        tipo = nota.tipo;\n        calificacion = nota.calificacion;\n    }\n     \n    // Setter\n    function setCoordinador(address coord) soloOwner soloAbierta public {\n        coordinador = coord;\n    }\n      \n    function cerrar() soloCoordinador public{\n        cerrada = true;\n    }\n\n    function abrir() soloCoordinador public{\n        cerrada = false;\n    }\n    \n    function addProfesor(address dirProfesor, string memory nombreProfesor) soloOwner soloAbierta public {\n        \n        bytes memory bn = bytes(nombreProfesor);\n        require(bn.length != 0, \"Professor's name can't be blank\");\n        \n        string memory existeProfesor = getNombreProfesor(dirProfesor);\n        bytes memory bep = bytes(existeProfesor);\n        require(bep.length == 0, \"Can't add a professor multiple times\");\n        \n        profesores.push(dirProfesor);\n        datosProfesor[dirProfesor] = nombreProfesor;\n    }\n    \n    function profesoresLength() public view returns (uint) {\n        return profesores.length;\n    }\n\n     function evaluacionesLength () public view returns (uint) {\n        return evaluaciones.length;\n    }\n    \n    function creaEvaluacion (string memory _nombre, uint _fecha, uint _puntos) soloAbierta soloCoordinador public returns (uint) {\n                \n        bytes memory bn = bytes(_nombre);\n        require(bn.length != 0, \"Evaluation's name can't be blank\");\n        \n        evaluaciones.push (Evaluacion (_nombre, _fecha, _puntos));\n        return evaluaciones.length - 1;\n    }\n\n     function matriculasLength () public view returns (uint) {\n        return matriculas.length;\n    }\n\n    function automatricula (string memory _nombre, string memory _email, string memory _dni) soloAbierta noMatriculados public {\n                \n        bytes memory bn = bytes(_nombre);\n        require(bn.length != 0, \"Name can't be blank\");\n        bytes memory em = bytes(_email);\n        require(em.length != 0, \"Email can't be blank\");\n        bytes memory bdni = bytes(_dni);\n        require(bdni.length != 0, \"ID number can't be blank\");\n        \n        string memory DNIExists = dniMap[_dni];\n        bytes memory bdni_exists = bytes(DNIExists);\n\n        if (bdni_exists.length != 0){\n            revert DNIExistsError({\n                dni:DNIExists\n            });\n        }\n        \n        DatosAlumno memory datos = DatosAlumno(_nombre,_email,_dni);\n        \n        datosAlumno[msg.sender] = datos;\n        dniMap[_dni] = _nombre;\n        \n        matriculas.push(msg.sender);\n    \n    }\n    \n    function quienSoy() soloMatriculados public view returns (string memory _nombre, string memory _email, string memory _dni){\n        DatosAlumno memory datos = datosAlumno[msg.sender];\n        _nombre = datos.nombre;\n        _email = datos.email;\n        _dni = datos.dni;\n    }\n    \n    function califica(address alumno, uint evaluacion, TipoNota tipo, uint calificacion) soloProfesor soloAbierta public{\n        \n        require(estaMatriculado(alumno), \"You can only mark an enrolled student\");\n        require(evaluacion < evaluaciones.length, \"You can't mark a non-existant evaluation\");\n        require(calificacion <= 1000, \"You can't mark with higher than 1000\");\n        \n        Nota memory nota = Nota(tipo, calificacion);\n        \n        calificaciones[alumno][evaluacion] = nota;\n    }\n    \n     function estaMatriculado(address alumno) private view returns (bool){\n         \n         string memory _nombre = datosAlumno[alumno].nombre;\n         bytes memory b = bytes(_nombre);\n         return b.length != 0;\n     }\n    \n    \n    // Modifiers\n     modifier soloProfesor() {\n         require(msg.sender == profesor, \"Only proffesor allowed\");\n         _;\n     }\n     modifier soloMatriculados(){\n         require(estaMatriculado(msg.sender), \"Only enrolled students allowed\");\n         _;\n     }\n     modifier noMatriculados(){\n         require(!estaMatriculado(msg.sender), \"Only non-enrolled students allowed\");\n         _;\n     }\n     modifier soloOwner(){\n         require(msg.sender == owner, \"Only contract's owner allowed\");\n         _;\n     }\n     modifier soloCoordinador(){\n         require(msg.sender == coordinador, \"Only Coordinator allowed\");\n         _;\n     }\n      modifier soloAbierta(){\n          require(cerrada == false, \"Only allowed if the subject is open\");\n          _;\n      }\n     \n      receive() external payable{\n          revert(\"No money transfer allowed\");\n      }\n\n}\n",
  "sourcePath": "/home/yildirim/Desktop/UNI/BCDA/Practica4/contracts/Asignatura.sol",
  "compiler": {
    "name": "solc",
    "version": "0.8.11+commit.d7f03943.Emscripten.clang"
  },
  "schemaVersion": "3.4.4",
  "updatedAt": "2022-01-02T21:40:36.816Z",
  "networkType": "ethereum",
  "devdoc": {
    "kind": "dev",
    "methods": {},
    "version": 1
  },
  "userdoc": {
    "kind": "user",
    "methods": {
      "datosAlumno(address)": {
        "notice": "Acceder a los datos de un alumno dada su direccin"
      },
      "matriculas(uint256)": {
        "notice": "Array con las direcciones de los alumnos matriculados"
      },
      "profesor()": {
        "notice": "address del profesor que ha desplegado el contrato. El contrato lo despliega el profesor."
      }
    },
    "version": 1
  }
}