{
  "contractName": "Asignatura",
  "abi": [
    {
      "inputs": [
        {
          "internalType": "string",
          "name": "_nombre",
          "type": "string"
        },
        {
          "internalType": "string",
          "name": "_curso",
          "type": "string"
        }
      ],
      "stateMutability": "nonpayable",
      "type": "constructor"
    },
    {
      "inputs": [
        {
          "internalType": "string",
          "name": "dni",
          "type": "string"
        }
      ],
      "name": "DNIExistsError",
      "type": "error"
    },
    {
      "inputs": [
        {
          "internalType": "address",
          "name": "",
          "type": "address"
        },
        {
          "internalType": "uint256",
          "name": "",
          "type": "uint256"
        }
      ],
      "name": "calificaciones",
      "outputs": [
        {
          "internalType": "enum Asignatura.TipoNota",
          "name": "tipo",
          "type": "uint8"
        },
        {
          "internalType": "uint256",
          "name": "calificacion",
          "type": "uint256"
        }
      ],
      "stateMutability": "view",
      "type": "function",
      "constant": true
    },
    {
      "inputs": [],
      "name": "cerrada",
      "outputs": [
        {
          "internalType": "bool",
          "name": "",
          "type": "bool"
        }
      ],
      "stateMutability": "view",
      "type": "function",
      "constant": true
    },
    {
      "inputs": [],
      "name": "coordinador",
      "outputs": [
        {
          "internalType": "address",
          "name": "",
          "type": "address"
        }
      ],
      "stateMutability": "view",
      "type": "function",
      "constant": true
    },
    {
      "inputs": [],
      "name": "curso",
      "outputs": [
        {
          "internalType": "string",
          "name": "",
          "type": "string"
        }
      ],
      "stateMutability": "view",
      "type": "function",
      "constant": true
    },
    {
      "inputs": [
        {
          "internalType": "address",
          "name": "",
          "type": "address"
        }
      ],
      "name": "datosAlumno",
      "outputs": [
        {
          "internalType": "string",
          "name": "nombre",
          "type": "string"
        },
        {
          "internalType": "string",
          "name": "email",
          "type": "string"
        },
        {
          "internalType": "string",
          "name": "dni",
          "type": "string"
        }
      ],
      "stateMutability": "view",
      "type": "function",
      "constant": true
    },
    {
      "inputs": [
        {
          "internalType": "address",
          "name": "",
          "type": "address"
        }
      ],
      "name": "datosProfesor",
      "outputs": [
        {
          "internalType": "string",
          "name": "",
          "type": "string"
        }
      ],
      "stateMutability": "view",
      "type": "function",
      "constant": true
    },
    {
      "inputs": [
        {
          "internalType": "string",
          "name": "",
          "type": "string"
        }
      ],
      "name": "dniMap",
      "outputs": [
        {
          "internalType": "string",
          "name": "",
          "type": "string"
        }
      ],
      "stateMutability": "view",
      "type": "function",
      "constant": true
    },
    {
      "inputs": [
        {
          "internalType": "uint256",
          "name": "",
          "type": "uint256"
        }
      ],
      "name": "evaluaciones",
      "outputs": [
        {
          "internalType": "string",
          "name": "nombre",
          "type": "string"
        },
        {
          "internalType": "uint256",
          "name": "fecha",
          "type": "uint256"
        },
        {
          "internalType": "uint256",
          "name": "puntos",
          "type": "uint256"
        }
      ],
      "stateMutability": "view",
      "type": "function",
      "constant": true
    },
    {
      "inputs": [
        {
          "internalType": "uint256",
          "name": "",
          "type": "uint256"
        }
      ],
      "name": "matriculas",
      "outputs": [
        {
          "internalType": "address",
          "name": "",
          "type": "address"
        }
      ],
      "stateMutability": "view",
      "type": "function",
      "constant": true
    },
    {
      "inputs": [],
      "name": "nombre",
      "outputs": [
        {
          "internalType": "string",
          "name": "",
          "type": "string"
        }
      ],
      "stateMutability": "view",
      "type": "function",
      "constant": true
    },
    {
      "inputs": [],
      "name": "owner",
      "outputs": [
        {
          "internalType": "address",
          "name": "",
          "type": "address"
        }
      ],
      "stateMutability": "view",
      "type": "function",
      "constant": true
    },
    {
      "inputs": [],
      "name": "profesor",
      "outputs": [
        {
          "internalType": "address",
          "name": "",
          "type": "address"
        }
      ],
      "stateMutability": "view",
      "type": "function",
      "constant": true
    },
    {
      "inputs": [
        {
          "internalType": "uint256",
          "name": "",
          "type": "uint256"
        }
      ],
      "name": "profesores",
      "outputs": [
        {
          "internalType": "address",
          "name": "",
          "type": "address"
        }
      ],
      "stateMutability": "view",
      "type": "function",
      "constant": true
    },
    {
      "inputs": [],
      "name": "version",
      "outputs": [
        {
          "internalType": "uint256",
          "name": "",
          "type": "uint256"
        }
      ],
      "stateMutability": "view",
      "type": "function",
      "constant": true
    },
    {
      "stateMutability": "payable",
      "type": "receive",
      "payable": true
    },
    {
      "inputs": [
        {
          "internalType": "address",
          "name": "dirProfesor",
          "type": "address"
        }
      ],
      "name": "getNombreProfesor",
      "outputs": [
        {
          "internalType": "string",
          "name": "",
          "type": "string"
        }
      ],
      "stateMutability": "view",
      "type": "function",
      "constant": true
    },
    {
      "inputs": [
        {
          "internalType": "address",
          "name": "dirAlumno",
          "type": "address"
        }
      ],
      "name": "getDatosAlumno",
      "outputs": [
        {
          "components": [
            {
              "internalType": "string",
              "name": "nombre",
              "type": "string"
            },
            {
              "internalType": "string",
              "name": "email",
              "type": "string"
            },
            {
              "internalType": "string",
              "name": "dni",
              "type": "string"
            }
          ],
          "internalType": "struct Asignatura.DatosAlumno",
          "name": "",
          "type": "tuple"
        }
      ],
      "stateMutability": "view",
      "type": "function",
      "constant": true
    },
    {
      "inputs": [
        {
          "internalType": "address",
          "name": "dirAlumno",
          "type": "address"
        },
        {
          "internalType": "uint256",
          "name": "indice",
          "type": "uint256"
        }
      ],
      "name": "getCalificacion",
      "outputs": [
        {
          "components": [
            {
              "internalType": "enum Asignatura.TipoNota",
              "name": "tipo",
              "type": "uint8"
            },
            {
              "internalType": "uint256",
              "name": "calificacion",
              "type": "uint256"
            }
          ],
          "internalType": "struct Asignatura.Nota",
          "name": "",
          "type": "tuple"
        }
      ],
      "stateMutability": "view",
      "type": "function",
      "constant": true
    },
    {
      "inputs": [
        {
          "internalType": "uint256",
          "name": "evaluacion",
          "type": "uint256"
        }
      ],
      "name": "miNota",
      "outputs": [
        {
          "internalType": "enum Asignatura.TipoNota",
          "name": "tipo",
          "type": "uint8"
        },
        {
          "internalType": "uint256",
          "name": "calificacion",
          "type": "uint256"
        }
      ],
      "stateMutability": "view",
      "type": "function",
      "constant": true
    },
    {
      "inputs": [
        {
          "internalType": "address",
          "name": "coord",
          "type": "address"
        }
      ],
      "name": "setCoordinador",
      "outputs": [],
      "stateMutability": "nonpayable",
      "type": "function"
    },
    {
      "inputs": [],
      "name": "cerrar",
      "outputs": [],
      "stateMutability": "nonpayable",
      "type": "function"
    },
    {
      "inputs": [],
      "name": "abrir",
      "outputs": [],
      "stateMutability": "nonpayable",
      "type": "function"
    },
    {
      "inputs": [
        {
          "internalType": "address",
          "name": "dirProfesor",
          "type": "address"
        },
        {
          "internalType": "string",
          "name": "nombreProfesor",
          "type": "string"
        }
      ],
      "name": "addProfesor",
      "outputs": [],
      "stateMutability": "nonpayable",
      "type": "function"
    },
    {
      "inputs": [],
      "name": "profesoresLength",
      "outputs": [
        {
          "internalType": "uint256",
          "name": "",
          "type": "uint256"
        }
      ],
      "stateMutability": "view",
      "type": "function",
      "constant": true
    },
    {
      "inputs": [],
      "name": "evaluacionesLength",
      "outputs": [
        {
          "internalType": "uint256",
          "name": "",
          "type": "uint256"
        }
      ],
      "stateMutability": "view",
      "type": "function",
      "constant": true
    },
    {
      "inputs": [
        {
          "internalType": "string",
          "name": "_nombre",
          "type": "string"
        },
        {
          "internalType": "uint256",
          "name": "_fecha",
          "type": "uint256"
        },
        {
          "internalType": "uint256",
          "name": "_puntos",
          "type": "uint256"
        }
      ],
      "name": "creaEvaluacion",
      "outputs": [
        {
          "internalType": "uint256",
          "name": "",
          "type": "uint256"
        }
      ],
      "stateMutability": "nonpayable",
      "type": "function"
    },
    {
      "inputs": [],
      "name": "matriculasLength",
      "outputs": [
        {
          "internalType": "uint256",
          "name": "",
          "type": "uint256"
        }
      ],
      "stateMutability": "view",
      "type": "function",
      "constant": true
    },
    {
      "inputs": [
        {
          "internalType": "string",
          "name": "_nombre",
          "type": "string"
        },
        {
          "internalType": "string",
          "name": "_email",
          "type": "string"
        },
        {
          "internalType": "string",
          "name": "_dni",
          "type": "string"
        }
      ],
      "name": "automatricula",
      "outputs": [],
      "stateMutability": "nonpayable",
      "type": "function"
    },
    {
      "inputs": [],
      "name": "quienSoy",
      "outputs": [
        {
          "internalType": "string",
          "name": "_nombre",
          "type": "string"
        },
        {
          "internalType": "string",
          "name": "_email",
          "type": "string"
        },
        {
          "internalType": "string",
          "name": "_dni",
          "type": "string"
        }
      ],
      "stateMutability": "view",
      "type": "function",
      "constant": true
    },
    {
      "inputs": [
        {
          "internalType": "address",
          "name": "alumno",
          "type": "address"
        },
        {
          "internalType": "uint256",
          "name": "evaluacion",
          "type": "uint256"
        },
        {
          "internalType": "enum Asignatura.TipoNota",
          "name": "tipo",
          "type": "uint8"
        },
        {
          "internalType": "uint256",
          "name": "calificacion",
          "type": "uint256"
        }
      ],
      "name": "califica",
      "outputs": [],
      "stateMutability": "nonpayable",
      "type": "function"
    }
  ],
  "bytecode": "0x60806040526107e56000553480156200001757600080fd5b5060405162003be138038062003be183398181016040528101906200003d9190620003fd565b60008290506000815114156200008a576040517f08c379a00000000000000000000000000000000000000000000000000000000081526004016200008190620004e3565b60405180910390fd5b6000829050600081511415620000d7576040517f08c379a0000000000000000000000000000000000000000000000000000000008152600401620000ce906200057b565b60405180910390fd5b8360029080519060200190620000ef929190620001b0565b50826003908051906020019062000108929190620001b0565b5033600160006101000a81548173ffffffffffffffffffffffffffffffffffffffff021916908373ffffffffffffffffffffffffffffffffffffffff16021790555033600460006101000a81548173ffffffffffffffffffffffffffffffffffffffff021916908373ffffffffffffffffffffffffffffffffffffffff1602179055506000600560146101000a81548160ff0219169083151502179055505050505062000602565b828054620001be90620005cc565b90600052602060002090601f016020900481019282620001e257600085556200022e565b82601f10620001fd57805160ff19168380011785556200022e565b828001600101855582156200022e579182015b828111156200022d57825182559160200191906001019062000210565b5b5090506200023d919062000241565b5090565b5b808211156200025c57600081600090555060010162000242565b5090565b6000604051905090565b600080fd5b600080fd5b600080fd5b600080fd5b6000601f19601f8301169050919050565b7f4e487b7100000000000000000000000000000000000000000000000000000000600052604160045260246000fd5b620002c9826200027e565b810181811067ffffffffffffffff82111715620002eb57620002ea6200028f565b5b80604052505050565b60006200030062000260565b90506200030e8282620002be565b919050565b600067ffffffffffffffff8211156200033157620003306200028f565b5b6200033c826200027e565b9050602081019050919050565b60005b83811015620003695780820151818401526020810190506200034c565b8381111562000379576000848401525b50505050565b600062000396620003908462000313565b620002f4565b905082815260208101848484011115620003b557620003b462000279565b5b620003c284828562000349565b509392505050565b600082601f830112620003e257620003e162000274565b5b8151620003f48482602086016200037f565b91505092915050565b600080604083850312156200041757620004166200026a565b5b600083015167ffffffffffffffff8111156200043857620004376200026f565b5b6200044685828601620003ca565b925050602083015167ffffffffffffffff8111156200046a57620004696200026f565b5b6200047885828601620003ca565b9150509250929050565b600082825260208201905092915050565b7f5375626a6563742773206e616d652063616e277420626520626c616e6b000000600082015250565b6000620004cb601d8362000482565b9150620004d88262000493565b602082019050919050565b60006020820190508181036000830152620004fe81620004bc565b9050919050565b7f5375626a65637427732061636164656d696320796561722063616e277420626560008201527f20626c616e6b0000000000000000000000000000000000000000000000000000602082015250565b60006200056360268362000482565b9150620005708262000505565b604082019050919050565b60006020820190508181036000830152620005968162000554565b9050919050565b7f4e487b7100000000000000000000000000000000000000000000000000000000600052602260045260246000fd5b60006002820490506001821680620005e557607f821691505b60208210811415620005fc57620005fb6200059d565b5b50919050565b6135cf80620006126000396000f3fe6080604052600436106101c65760003560e01c80638ab724c4116100f7578063d017da1f11610095578063deafcc4111610064578063deafcc41146106dc578063df09657614610707578063e81378d914610732578063f967f9861461076f57610206565b8063d017da1f14610621578063d27c3f3c1461065e578063d51b45841461069c578063dab6ff28146106c557610206565b80639e1d8f4b116100d15780639e1d8f4b14610551578063bc7b35b21461057c578063c7918139146105a7578063c8373750146105e457610206565b80638ab724c4146104d25780638da5cb5b146104e957806393a3a3451461051457610206565b80635376688311610164578063681d4ca61161013e578063681d4ca6146104025780636bf8aad61461042b5780636fbb9dc71461046a5780637810ff1e146104a757610206565b8063537668831461036d57806354fd4d501461039a578063641945bf146103c557610206565b806330322c9b116101a057806330322c9b1461029c57806342a6dde2146102c557806344f7a8cc14610303578063488cf4f51461034257610206565b80630c2e78951461020b5780631d2e4d2b1461024857806322c4e3941461027157610206565b36610206576040517f08c379a00000000000000000000000000000000000000000000000000000000081526004016101fd9061244a565b60405180910390fd5b600080fd5b34801561021757600080fd5b50610232600480360381019061022d9190612512565b61079a565b60405161023f9190612607565b60405180910390f35b34801561025457600080fd5b5061026f600480360381019061026a9190612768565b61084a565b005b34801561027d57600080fd5b50610286610a8e565b60405161029391906127df565b60405180910390f35b3480156102a857600080fd5b506102c360048036038101906102be919061281f565b610aa1565b005b3480156102d157600080fd5b506102ec60048036038101906102e79190612512565b610d1b565b6040516102fa9291906128a4565b60405180910390f35b34801561030f57600080fd5b5061032a600480360381019061032591906128cd565b610d59565b60405161033993929190612971565b60405180910390f35b34801561034e57600080fd5b50610357610e1b565b60405161036491906129af565b60405180910390f35b34801561037957600080fd5b50610382610e28565b604051610391939291906129ca565b60405180910390f35b3480156103a657600080fd5b506103af611094565b6040516103bc91906129af565b60405180910390f35b3480156103d157600080fd5b506103ec60048036038101906103e79190612a16565b61109a565b6040516103f99190612a43565b60405180910390f35b34801561040e57600080fd5b5061042960048036038101906104249190612a65565b61113a565b005b34801561043757600080fd5b50610452600480360381019061044d9190612a16565b611507565b604051610461939291906129ca565b60405180910390f35b34801561047657600080fd5b50610491600480360381019061048c9190612a16565b6116c9565b60405161049e9190612bb4565b60405180910390f35b3480156104b357600080fd5b506104bc6118d8565b6040516104c99190612be5565b60405180910390f35b3480156104de57600080fd5b506104e76118fe565b005b3480156104f557600080fd5b506104fe6119ab565b60405161050b9190612be5565b60405180910390f35b34801561052057600080fd5b5061053b60048036038101906105369190612c00565b6119d1565b6040516105489190612a43565b60405180910390f35b34801561055d57600080fd5b50610566611a87565b60405161057391906129af565b60405180910390f35b34801561058857600080fd5b50610591611a94565b60405161059e9190612a43565b60405180910390f35b3480156105b357600080fd5b506105ce60048036038101906105c991906128cd565b611b22565b6040516105db9190612be5565b60405180910390f35b3480156105f057600080fd5b5061060b600480360381019061060691906128cd565b611b61565b6040516106189190612be5565b60405180910390f35b34801561062d57600080fd5b5061064860048036038101906106439190612c49565b611ba0565b60405161065591906129af565b60405180910390f35b34801561066a57600080fd5b50610685600480360381019061068091906128cd565b611d66565b6040516106939291906128a4565b60405180910390f35b3480156106a857600080fd5b506106c360048036038101906106be9190612a16565b611eb0565b005b3480156106d157600080fd5b506106da611fda565b005b3480156106e857600080fd5b506106f1612087565b6040516106fe9190612a43565b60405180910390f35b34801561071357600080fd5b5061071c612115565b6040516107299190612be5565b60405180910390f35b34801561073e57600080fd5b5061075960048036038101906107549190612a16565b61213b565b6040516107669190612a43565b60405180910390f35b34801561077b57600080fd5b5061078461220c565b60405161079191906129af565b60405180910390f35b6107a26122fd565b600c60008473ffffffffffffffffffffffffffffffffffffffff1673ffffffffffffffffffffffffffffffffffffffff16815260200190815260200160002060008381526020019081526020016000206040518060400160405290816000820160009054906101000a900460ff16600281111561082257610821612552565b5b600281111561083457610833612552565b5b8152602001600182015481525050905092915050565b600460009054906101000a900473ffffffffffffffffffffffffffffffffffffffff1673ffffffffffffffffffffffffffffffffffffffff163373ffffffffffffffffffffffffffffffffffffffff16146108da576040517f08c379a00000000000000000000000000000000000000000000000000000000081526004016108d190612d04565b60405180910390fd5b60001515600560149054906101000a900460ff16151514610930576040517f08c379a000000000000000000000000000000000000000000000000000000000815260040161092790612d96565b60405180910390fd5b600081905060008151141561097a576040517f08c379a000000000000000000000000000000000000000000000000000000000815260040161097190612e02565b60405180910390fd5b60006109858461213b565b9050600081905060008151146109d0576040517f08c379a00000000000000000000000000000000000000000000000000000000081526004016109c790612e94565b60405180910390fd5b6007859080600181540180825580915050600190039060005260206000200160009091909190916101000a81548173ffffffffffffffffffffffffffffffffffffffff021916908373ffffffffffffffffffffffffffffffffffffffff16021790555083600660008773ffffffffffffffffffffffffffffffffffffffff1673ffffffffffffffffffffffffffffffffffffffff1681526020019081526020016000209080519060200190610a86929190612329565b505050505050565b600560149054906101000a900460ff1681565b600160009054906101000a900473ffffffffffffffffffffffffffffffffffffffff1673ffffffffffffffffffffffffffffffffffffffff163373ffffffffffffffffffffffffffffffffffffffff1614610b31576040517f08c379a0000000000000000000000000000000000000000000000000000000008152600401610b2890612f00565b60405180910390fd5b60001515600560149054906101000a900460ff16151514610b87576040517f08c379a0000000000000000000000000000000000000000000000000000000008152600401610b7e90612d96565b60405180910390fd5b610b9084612219565b610bcf576040517f08c379a0000000000000000000000000000000000000000000000000000000008152600401610bc690612f92565b60405180910390fd5b6008805490508310610c16576040517f08c379a0000000000000000000000000000000000000000000000000000000008152600401610c0d90613024565b60405180910390fd5b6103e8811115610c5b576040517f08c379a0000000000000000000000000000000000000000000000000000000008152600401610c52906130b6565b60405180910390fd5b60006040518060400160405280846002811115610c7b57610c7a612552565b5b815260200183815250905080600c60008773ffffffffffffffffffffffffffffffffffffffff1673ffffffffffffffffffffffffffffffffffffffff168152602001908152602001600020600086815260200190815260200160002060008201518160000160006101000a81548160ff02191690836002811115610d0257610d01612552565b5b0217905550602082015181600101559050505050505050565b600c602052816000526040600020602052806000526040600020600091509150508060000160009054906101000a900460ff16908060010154905082565b60088181548110610d6957600080fd5b9060005260206000209060030201600091509050806000018054610d8c90613105565b80601f0160208091040260200160405190810160405280929190818152602001828054610db890613105565b8015610e055780601f10610dda57610100808354040283529160200191610e05565b820191906000526020600020905b815481529060010190602001808311610de857829003601f168201915b5050505050908060010154908060020154905083565b6000600880549050905090565b6060806060610e3633612219565b610e75576040517f08c379a0000000000000000000000000000000000000000000000000000000008152600401610e6c90613183565b60405180910390fd5b6000600960003373ffffffffffffffffffffffffffffffffffffffff1673ffffffffffffffffffffffffffffffffffffffff168152602001908152602001600020604051806060016040529081600082018054610ed190613105565b80601f0160208091040260200160405190810160405280929190818152602001828054610efd90613105565b8015610f4a5780601f10610f1f57610100808354040283529160200191610f4a565b820191906000526020600020905b815481529060010190602001808311610f2d57829003601f168201915b50505050508152602001600182018054610f6390613105565b80601f0160208091040260200160405190810160405280929190818152602001828054610f8f90613105565b8015610fdc5780601f10610fb157610100808354040283529160200191610fdc565b820191906000526020600020905b815481529060010190602001808311610fbf57829003601f168201915b50505050508152602001600282018054610ff590613105565b80601f016020809104026020016040519081016040528092919081815260200182805461102190613105565b801561106e5780601f106110435761010080835404028352916020019161106e565b820191906000526020600020905b81548152906001019060200180831161105157829003601f168201915b505050505081525050905080600001519350806020015192508060400151915050909192565b60005481565b600660205280600052604060002060009150905080546110b990613105565b80601f01602080910402602001604051908101604052809291908181526020018280546110e590613105565b80156111325780601f1061110757610100808354040283529160200191611132565b820191906000526020600020905b81548152906001019060200180831161111557829003601f168201915b505050505081565b60001515600560149054906101000a900460ff16151514611190576040517f08c379a000000000000000000000000000000000000000000000000000000000815260040161118790612d96565b60405180910390fd5b61119933612219565b156111d9576040517f08c379a00000000000000000000000000000000000000000000000000000000081526004016111d090613215565b60405180910390fd5b6000839050600081511415611223576040517f08c379a000000000000000000000000000000000000000000000000000000000815260040161121a90613281565b60405180910390fd5b600083905060008151141561126d576040517f08c379a0000000000000000000000000000000000000000000000000000000008152600401611264906132ed565b60405180910390fd5b60008390506000815114156112b7576040517f08c379a00000000000000000000000000000000000000000000000000000000081526004016112ae90613359565b60405180910390fd5b6000600a856040516112c991906133b5565b908152602001604051809103902080546112e290613105565b80601f016020809104026020016040519081016040528092919081815260200182805461130e90613105565b801561135b5780601f106113305761010080835404028352916020019161135b565b820191906000526020600020905b81548152906001019060200180831161133e57829003601f168201915b50505050509050600081905060008151146113ad57816040517f995e03530000000000000000000000000000000000000000000000000000000081526004016113a49190612a43565b60405180910390fd5b600060405180606001604052808a815260200189815260200188815250905080600960003373ffffffffffffffffffffffffffffffffffffffff1673ffffffffffffffffffffffffffffffffffffffff1681526020019081526020016000206000820151816000019080519060200190611428929190612329565b506020820151816001019080519060200190611445929190612329565b506040820151816002019080519060200190611462929190612329565b5090505088600a8860405161147791906133b5565b90815260200160405180910390209080519060200190611498929190612329565b50600b339080600181540180825580915050600190039060005260206000200160009091909190916101000a81548173ffffffffffffffffffffffffffffffffffffffff021916908373ffffffffffffffffffffffffffffffffffffffff160217905550505050505050505050565b600960205280600052604060002060009150905080600001805461152a90613105565b80601f016020809104026020016040519081016040528092919081815260200182805461155690613105565b80156115a35780601f10611578576101008083540402835291602001916115a3565b820191906000526020600020905b81548152906001019060200180831161158657829003601f168201915b5050505050908060010180546115b890613105565b80601f01602080910402602001604051908101604052809291908181526020018280546115e490613105565b80156116315780601f1061160657610100808354040283529160200191611631565b820191906000526020600020905b81548152906001019060200180831161161457829003601f168201915b50505050509080600201805461164690613105565b80601f016020809104026020016040519081016040528092919081815260200182805461167290613105565b80156116bf5780601f10611694576101008083540402835291602001916116bf565b820191906000526020600020905b8154815290600101906020018083116116a257829003601f168201915b5050505050905083565b6116d16123af565b600960008373ffffffffffffffffffffffffffffffffffffffff1673ffffffffffffffffffffffffffffffffffffffff16815260200190815260200160002060405180606001604052908160008201805461172b90613105565b80601f016020809104026020016040519081016040528092919081815260200182805461175790613105565b80156117a45780601f10611779576101008083540402835291602001916117a4565b820191906000526020600020905b81548152906001019060200180831161178757829003601f168201915b505050505081526020016001820180546117bd90613105565b80601f01602080910402602001604051908101604052809291908181526020018280546117e990613105565b80156118365780601f1061180b57610100808354040283529160200191611836565b820191906000526020600020905b81548152906001019060200180831161181957829003601f168201915b5050505050815260200160028201805461184f90613105565b80601f016020809104026020016040519081016040528092919081815260200182805461187b90613105565b80156118c85780601f1061189d576101008083540402835291602001916118c8565b820191906000526020600020905b8154815290600101906020018083116118ab57829003601f168201915b5050505050815250509050919050565b600560009054906101000a900473ffffffffffffffffffffffffffffffffffffffff1681565b600560009054906101000a900473ffffffffffffffffffffffffffffffffffffffff1673ffffffffffffffffffffffffffffffffffffffff163373ffffffffffffffffffffffffffffffffffffffff161461198e576040517f08c379a000000000000000000000000000000000000000000000000000000000815260040161198590613418565b60405180910390fd5b6000600560146101000a81548160ff021916908315150217905550565b600460009054906101000a900473ffffffffffffffffffffffffffffffffffffffff1681565b600a818051602081018201805184825260208301602085012081835280955050505050506000915090508054611a0690613105565b80601f0160208091040260200160405190810160405280929190818152602001828054611a3290613105565b8015611a7f5780601f10611a5457610100808354040283529160200191611a7f565b820191906000526020600020905b815481529060010190602001808311611a6257829003601f168201915b505050505081565b6000600b80549050905090565b60028054611aa190613105565b80601f0160208091040260200160405190810160405280929190818152602001828054611acd90613105565b8015611b1a5780601f10611aef57610100808354040283529160200191611b1a565b820191906000526020600020905b815481529060010190602001808311611afd57829003601f168201915b505050505081565b600b8181548110611b3257600080fd5b906000526020600020016000915054906101000a900473ffffffffffffffffffffffffffffffffffffffff1681565b60078181548110611b7157600080fd5b906000526020600020016000915054906101000a900473ffffffffffffffffffffffffffffffffffffffff1681565b6000801515600560149054906101000a900460ff16151514611bf7576040517f08c379a0000000000000000000000000000000000000000000000000000000008152600401611bee90612d96565b60405180910390fd5b600560009054906101000a900473ffffffffffffffffffffffffffffffffffffffff1673ffffffffffffffffffffffffffffffffffffffff163373ffffffffffffffffffffffffffffffffffffffff1614611c87576040517f08c379a0000000000000000000000000000000000000000000000000000000008152600401611c7e90613418565b60405180910390fd5b6000849050600081511415611cd1576040517f08c379a0000000000000000000000000000000000000000000000000000000008152600401611cc890613484565b60405180910390fd5b600860405180606001604052808781526020018681526020018581525090806001815401808255809150506001900390600052602060002090600302016000909190919091506000820151816000019080519060200190611d33929190612329565b50602082015181600101556040820151816002015550506001600880549050611d5c91906134d3565b9150509392505050565b600080611d7233612219565b611db1576040517f08c379a0000000000000000000000000000000000000000000000000000000008152600401611da890613183565b60405180910390fd5b6008805490508310611df8576040517f08c379a0000000000000000000000000000000000000000000000000000000008152600401611def90613579565b60405180910390fd5b6000600c60003373ffffffffffffffffffffffffffffffffffffffff1673ffffffffffffffffffffffffffffffffffffffff16815260200190815260200160002060008581526020019081526020016000206040518060400160405290816000820160009054906101000a900460ff166002811115611e7a57611e79612552565b5b6002811115611e8c57611e8b612552565b5b81526020016001820154815250509050806000015192508060200151915050915091565b600460009054906101000a900473ffffffffffffffffffffffffffffffffffffffff1673ffffffffffffffffffffffffffffffffffffffff163373ffffffffffffffffffffffffffffffffffffffff1614611f40576040517f08c379a0000000000000000000000000000000000000000000000000000000008152600401611f3790612d04565b60405180910390fd5b60001515600560149054906101000a900460ff16151514611f96576040517f08c379a0000000000000000000000000000000000000000000000000000000008152600401611f8d90612d96565b60405180910390fd5b80600560006101000a81548173ffffffffffffffffffffffffffffffffffffffff021916908373ffffffffffffffffffffffffffffffffffffffff16021790555050565b600560009054906101000a900473ffffffffffffffffffffffffffffffffffffffff1673ffffffffffffffffffffffffffffffffffffffff163373ffffffffffffffffffffffffffffffffffffffff161461206a576040517f08c379a000000000000000000000000000000000000000000000000000000000815260040161206190613418565b60405180910390fd5b6001600560146101000a81548160ff021916908315150217905550565b6003805461209490613105565b80601f01602080910402602001604051908101604052809291908181526020018280546120c090613105565b801561210d5780601f106120e25761010080835404028352916020019161210d565b820191906000526020600020905b8154815290600101906020018083116120f057829003601f168201915b505050505081565b600160009054906101000a900473ffffffffffffffffffffffffffffffffffffffff1681565b6060600660008373ffffffffffffffffffffffffffffffffffffffff1673ffffffffffffffffffffffffffffffffffffffff168152602001908152602001600020805461218790613105565b80601f01602080910402602001604051908101604052809291908181526020018280546121b390613105565b80156122005780601f106121d557610100808354040283529160200191612200565b820191906000526020600020905b8154815290600101906020018083116121e357829003601f168201915b50505050509050919050565b6000600780549050905090565b600080600960008473ffffffffffffffffffffffffffffffffffffffff1673ffffffffffffffffffffffffffffffffffffffff168152602001908152602001600020600001805461226990613105565b80601f016020809104026020016040519081016040528092919081815260200182805461229590613105565b80156122e25780601f106122b7576101008083540402835291602001916122e2565b820191906000526020600020905b8154815290600101906020018083116122c557829003601f168201915b50505050509050600081905060008151141592505050919050565b60405180604001604052806000600281111561231c5761231b612552565b5b8152602001600081525090565b82805461233590613105565b90600052602060002090601f016020900481019282612357576000855561239e565b82601f1061237057805160ff191683800117855561239e565b8280016001018555821561239e579182015b8281111561239d578251825591602001919060010190612382565b5b5090506123ab91906123d0565b5090565b60405180606001604052806060815260200160608152602001606081525090565b5b808211156123e95760008160009055506001016123d1565b5090565b600082825260208201905092915050565b7f4e6f206d6f6e6579207472616e7366657220616c6c6f77656400000000000000600082015250565b60006124346019836123ed565b915061243f826123fe565b602082019050919050565b6000602082019050818103600083015261246381612427565b9050919050565b6000604051905090565b600080fd5b600080fd5b600073ffffffffffffffffffffffffffffffffffffffff82169050919050565b60006124a98261247e565b9050919050565b6124b98161249e565b81146124c457600080fd5b50565b6000813590506124d6816124b0565b92915050565b6000819050919050565b6124ef816124dc565b81146124fa57600080fd5b50565b60008135905061250c816124e6565b92915050565b6000806040838503121561252957612528612474565b5b6000612537858286016124c7565b9250506020612548858286016124fd565b9150509250929050565b7f4e487b7100000000000000000000000000000000000000000000000000000000600052602160045260246000fd5b6003811061259257612591612552565b5b50565b60008190506125a382612581565b919050565b60006125b382612595565b9050919050565b6125c3816125a8565b82525050565b6125d2816124dc565b82525050565b6040820160008201516125ee60008501826125ba565b50602082015161260160208501826125c9565b50505050565b600060408201905061261c60008301846125d8565b92915050565b600080fd5b600080fd5b6000601f19601f8301169050919050565b7f4e487b7100000000000000000000000000000000000000000000000000000000600052604160045260246000fd5b6126758261262c565b810181811067ffffffffffffffff821117156126945761269361263d565b5b80604052505050565b60006126a761246a565b90506126b3828261266c565b919050565b600067ffffffffffffffff8211156126d3576126d261263d565b5b6126dc8261262c565b9050602081019050919050565b82818337600083830152505050565b600061270b612706846126b8565b61269d565b90508281526020810184848401111561272757612726612627565b5b6127328482856126e9565b509392505050565b600082601f83011261274f5761274e612622565b5b813561275f8482602086016126f8565b91505092915050565b6000806040838503121561277f5761277e612474565b5b600061278d858286016124c7565b925050602083013567ffffffffffffffff8111156127ae576127ad612479565b5b6127ba8582860161273a565b9150509250929050565b60008115159050919050565b6127d9816127c4565b82525050565b60006020820190506127f460008301846127d0565b92915050565b6003811061280757600080fd5b50565b600081359050612819816127fa565b92915050565b6000806000806080858703121561283957612838612474565b5b6000612847878288016124c7565b9450506020612858878288016124fd565b93505060406128698782880161280a565b925050606061287a878288016124fd565b91505092959194509250565b61288f816125a8565b82525050565b61289e816124dc565b82525050565b60006040820190506128b96000830185612886565b6128c66020830184612895565b9392505050565b6000602082840312156128e3576128e2612474565b5b60006128f1848285016124fd565b91505092915050565b600081519050919050565b60005b83811015612923578082015181840152602081019050612908565b83811115612932576000848401525b50505050565b6000612943826128fa565b61294d81856123ed565b935061295d818560208601612905565b6129668161262c565b840191505092915050565b6000606082019050818103600083015261298b8186612938565b905061299a6020830185612895565b6129a76040830184612895565b949350505050565b60006020820190506129c46000830184612895565b92915050565b600060608201905081810360008301526129e48186612938565b905081810360208301526129f88185612938565b90508181036040830152612a0c8184612938565b9050949350505050565b600060208284031215612a2c57612a2b612474565b5b6000612a3a848285016124c7565b91505092915050565b60006020820190508181036000830152612a5d8184612938565b905092915050565b600080600060608486031215612a7e57612a7d612474565b5b600084013567ffffffffffffffff811115612a9c57612a9b612479565b5b612aa88682870161273a565b935050602084013567ffffffffffffffff811115612ac957612ac8612479565b5b612ad58682870161273a565b925050604084013567ffffffffffffffff811115612af657612af5612479565b5b612b028682870161273a565b9150509250925092565b600082825260208201905092915050565b6000612b28826128fa565b612b328185612b0c565b9350612b42818560208601612905565b612b4b8161262c565b840191505092915050565b60006060830160008301518482036000860152612b738282612b1d565b91505060208301518482036020860152612b8d8282612b1d565b91505060408301518482036040860152612ba78282612b1d565b9150508091505092915050565b60006020820190508181036000830152612bce8184612b56565b905092915050565b612bdf8161249e565b82525050565b6000602082019050612bfa6000830184612bd6565b92915050565b600060208284031215612c1657612c15612474565b5b600082013567ffffffffffffffff811115612c3457612c33612479565b5b612c408482850161273a565b91505092915050565b600080600060608486031215612c6257612c61612474565b5b600084013567ffffffffffffffff811115612c8057612c7f612479565b5b612c8c8682870161273a565b9350506020612c9d868287016124fd565b9250506040612cae868287016124fd565b9150509250925092565b7f4f6e6c7920636f6e74726163742773206f776e657220616c6c6f776564000000600082015250565b6000612cee601d836123ed565b9150612cf982612cb8565b602082019050919050565b60006020820190508181036000830152612d1d81612ce1565b9050919050565b7f4f6e6c7920616c6c6f77656420696620746865207375626a656374206973206f60008201527f70656e0000000000000000000000000000000000000000000000000000000000602082015250565b6000612d806023836123ed565b9150612d8b82612d24565b604082019050919050565b60006020820190508181036000830152612daf81612d73565b9050919050565b7f50726f666573736f722773206e616d652063616e277420626520626c616e6b00600082015250565b6000612dec601f836123ed565b9150612df782612db6565b602082019050919050565b60006020820190508181036000830152612e1b81612ddf565b9050919050565b7f43616e27742061646420612070726f666573736f72206d756c7469706c65207460008201527f696d657300000000000000000000000000000000000000000000000000000000602082015250565b6000612e7e6024836123ed565b9150612e8982612e22565b604082019050919050565b60006020820190508181036000830152612ead81612e71565b9050919050565b7f4f6e6c792070726f666665736f7220616c6c6f77656400000000000000000000600082015250565b6000612eea6016836123ed565b9150612ef582612eb4565b602082019050919050565b60006020820190508181036000830152612f1981612edd565b9050919050565b7f596f752063616e206f6e6c79206d61726b20616e20656e726f6c6c656420737460008201527f7564656e74000000000000000000000000000000000000000000000000000000602082015250565b6000612f7c6025836123ed565b9150612f8782612f20565b604082019050919050565b60006020820190508181036000830152612fab81612f6f565b9050919050565b7f596f752063616e2774206d61726b2061206e6f6e2d6578697374616e7420657660008201527f616c756174696f6e000000000000000000000000000000000000000000000000602082015250565b600061300e6028836123ed565b915061301982612fb2565b604082019050919050565b6000602082019050818103600083015261303d81613001565b9050919050565b7f596f752063616e2774206d61726b207769746820686967686572207468616e2060008201527f3130303000000000000000000000000000000000000000000000000000000000602082015250565b60006130a06024836123ed565b91506130ab82613044565b604082019050919050565b600060208201905081810360008301526130cf81613093565b9050919050565b7f4e487b7100000000000000000000000000000000000000000000000000000000600052602260045260246000fd5b6000600282049050600182168061311d57607f821691505b60208210811415613131576131306130d6565b5b50919050565b7f4f6e6c7920656e726f6c6c65642073747564656e747320616c6c6f7765640000600082015250565b600061316d601e836123ed565b915061317882613137565b602082019050919050565b6000602082019050818103600083015261319c81613160565b9050919050565b7f4f6e6c79206e6f6e2d656e726f6c6c65642073747564656e747320616c6c6f7760008201527f6564000000000000000000000000000000000000000000000000000000000000602082015250565b60006131ff6022836123ed565b915061320a826131a3565b604082019050919050565b6000602082019050818103600083015261322e816131f2565b9050919050565b7f4e616d652063616e277420626520626c616e6b00000000000000000000000000600082015250565b600061326b6013836123ed565b915061327682613235565b602082019050919050565b6000602082019050818103600083015261329a8161325e565b9050919050565b7f456d61696c2063616e277420626520626c616e6b000000000000000000000000600082015250565b60006132d76014836123ed565b91506132e2826132a1565b602082019050919050565b60006020820190508181036000830152613306816132ca565b9050919050565b7f4944206e756d6265722063616e277420626520626c616e6b0000000000000000600082015250565b60006133436018836123ed565b915061334e8261330d565b602082019050919050565b6000602082019050818103600083015261337281613336565b9050919050565b600081905092915050565b600061338f826128fa565b6133998185613379565b93506133a9818560208601612905565b80840191505092915050565b60006133c18284613384565b915081905092915050565b7f4f6e6c7920436f6f7264696e61746f7220616c6c6f7765640000000000000000600082015250565b60006134026018836123ed565b915061340d826133cc565b602082019050919050565b60006020820190508181036000830152613431816133f5565b9050919050565b7f4576616c756174696f6e2773206e616d652063616e277420626520626c616e6b600082015250565b600061346e6020836123ed565b915061347982613438565b602082019050919050565b6000602082019050818103600083015261349d81613461565b9050919050565b7f4e487b7100000000000000000000000000000000000000000000000000000000600052601160045260246000fd5b60006134de826124dc565b91506134e9836124dc565b9250828210156134fc576134fb6134a4565b5b828203905092915050565b7f4576616c756174696f6e277320696e64657820646f6573206e6f74206578697360008201527f7400000000000000000000000000000000000000000000000000000000000000602082015250565b60006135636021836123ed565b915061356e82613507565b604082019050919050565b6000602082019050818103600083015261359281613556565b905091905056fea264697066735822122056d5128dccf305892e7efb57f8b5c839f13a1faabb2bcaadda982c5306d75f2164736f6c634300080b0033",
  "immutableReferences": {},
  "source": "// Authors: Javier Sanz Sez\n//          Javier Antn Yuste\n\n// SPDX-License-Identifier: GPL-3.O\npragma solidity ^0.8.7;\n\ncontract Asignatura {\n    uint public version = 2021;\n    /**\n     * address del profesor que ha desplegado el contrato.\n     * El contrato lo despliega el profesor.\n     */\n\n    address public profesor;\n    string public nombre; // Subject's name\n    string public curso;  // Academic year\n    address public owner; // User that has deployed the contract\n    address public coordinador; // Coordinator's address\n    bool public cerrada; // Boolean to check whether the subject is closed or not\n    mapping(address => string) public datosProfesor;  // Dict: name-address\n    address[] public profesores; // Proffessors' user addresses\n    \n    // Error definition\n    error DNIExistsError (string dni);\n\n    /**\n     * Datos de una evaluacin\n     */\n    struct Evaluacion {\n        string nombre;\n        uint fecha;\n        uint puntos;\n    }\n    \n    /// Evaluaciones de la asignatura\n    Evaluacion[] public evaluaciones;\n    \n    /// Datos de un getAlumno\n    struct DatosAlumno{\n        string nombre;\n        string email;\n        string dni;\n    }\n    \n    /// Acceder a los datos de un alumno dada su direccin\n    mapping(address => DatosAlumno) public datosAlumno;\n    \n    // Mapping para poder comprobar si existe el DNI \n    mapping(string => string) public dniMap;\n    \n    /// Array con las direcciones de los alumnos matriculados\n    address[] public matriculas;\n    \n    /// Tipos de notas: no presentado, nota entre 0 y 10, y matricula\n    enum TipoNota { NP, Normal, MH }\n    \n    /**\n     * Datos de una nota.\n     * La calificacin est multiplicada por 100 porque no hay decimales\n     */\n     struct Nota {\n        TipoNota tipo;\n        uint calificacion;\n    }\n    \n    // Dada pa direccion de un alumno, y el indice de la evaluacin, devuelve\n    // la nota del alumno\n    mapping (address => mapping (uint => Nota)) public calificaciones;\n    \n    // Constructor \n     constructor(string memory _nombre, string memory _curso) {\n         \n        bytes memory bn = bytes(_nombre);\n        require(bn.length != 0, \"Subject's name can't be blank\");\n         \n        bytes memory bc = bytes(_curso);\n        require(bc.length != 0, \"Subject's academic year can't be blank\");\n         \n        nombre = _nombre;\n        curso = _curso;\n        profesor = msg.sender;\n        owner = msg.sender;\n        cerrada = false;\n    }\n    \n    // Getters\n    function getNombreProfesor(address dirProfesor) public view returns (string memory){\n        return datosProfesor[dirProfesor];\n    }\n    function getDatosAlumno(address dirAlumno) public view returns (DatosAlumno memory){\n        return datosAlumno[dirAlumno];\n    }\n    function getCalificacion(address dirAlumno, uint indice) public view returns (Nota memory){\n        return calificaciones[dirAlumno][indice];\n    } \n    function miNota(uint evaluacion) soloMatriculados public view returns (TipoNota tipo, uint calificacion){\n        require(evaluacion < evaluaciones.length, \"Evaluation's index does not exist\");\n        Nota memory nota = calificaciones[msg.sender][evaluacion];\n        \n        tipo = nota.tipo;\n        calificacion = nota.calificacion;\n    }\n     \n    // Setter\n    function setCoordinador(address coord) soloOwner soloAbierta public {\n        coordinador = coord;\n    }\n      \n    function cerrar() soloCoordinador public{\n        cerrada = true;\n    }\n\n    function abrir() soloCoordinador public{\n        cerrada = false;\n    }\n    \n    function addProfesor(address dirProfesor, string memory nombreProfesor) soloOwner soloAbierta public {\n        \n        bytes memory bn = bytes(nombreProfesor);\n        require(bn.length != 0, \"Professor's name can't be blank\");\n        \n        string memory existeProfesor = getNombreProfesor(dirProfesor);\n        bytes memory bep = bytes(existeProfesor);\n        require(bep.length == 0, \"Can't add a professor multiple times\");\n        \n        profesores.push(dirProfesor);\n        datosProfesor[dirProfesor] = nombreProfesor;\n    }\n    \n    function profesoresLength() public view returns (uint) {\n        return profesores.length;\n    }\n\n     function evaluacionesLength () public view returns (uint) {\n        return evaluaciones.length;\n    }\n    \n    function creaEvaluacion (string memory _nombre, uint _fecha, uint _puntos) soloAbierta soloCoordinador public returns (uint) {\n                \n        bytes memory bn = bytes(_nombre);\n        require(bn.length != 0, \"Evaluation's name can't be blank\");\n        \n        evaluaciones.push (Evaluacion (_nombre, _fecha, _puntos));\n        return evaluaciones.length - 1;\n    }\n\n     function matriculasLength () public view returns (uint) {\n        return matriculas.length;\n    }\n\n    function automatricula (string memory _nombre, string memory _email, string memory _dni) soloAbierta noMatriculados public {\n                \n        bytes memory bn = bytes(_nombre);\n        require(bn.length != 0, \"Name can't be blank\");\n        bytes memory em = bytes(_email);\n        require(em.length != 0, \"Email can't be blank\");\n        bytes memory bdni = bytes(_dni);\n        require(bdni.length != 0, \"ID number can't be blank\");\n        \n        string memory DNIExists = dniMap[_dni];\n        bytes memory bdni_exists = bytes(DNIExists);\n\n        if (bdni_exists.length != 0){\n            revert DNIExistsError({\n                dni:DNIExists\n            });\n        }\n        \n        DatosAlumno memory datos = DatosAlumno(_nombre,_email,_dni);\n        \n        datosAlumno[msg.sender] = datos;\n        dniMap[_dni] = _nombre;\n        \n        matriculas.push(msg.sender);\n    \n    }\n    \n    function quienSoy() soloMatriculados public view returns (string memory _nombre, string memory _email, string memory _dni){\n        DatosAlumno memory datos = datosAlumno[msg.sender];\n        _nombre = datos.nombre;\n        _email = datos.email;\n        _dni = datos.dni;\n    }\n    \n    function califica(address alumno, uint evaluacion, TipoNota tipo, uint calificacion) soloProfesor soloAbierta public{\n        \n        require(estaMatriculado(alumno), \"You can only mark an enrolled student\");\n        require(evaluacion < evaluaciones.length, \"You can't mark a non-existant evaluation\");\n        require(calificacion <= 1000, \"You can't mark with higher than 1000\");\n        \n        Nota memory nota = Nota(tipo, calificacion);\n        \n        calificaciones[alumno][evaluacion] = nota;\n    }\n    \n     function estaMatriculado(address alumno) private view returns (bool){\n         \n         string memory _nombre = datosAlumno[alumno].nombre;\n         bytes memory b = bytes(_nombre);\n         return b.length != 0;\n     }\n    \n    \n    // Modifiers\n     modifier soloProfesor() {\n         require(msg.sender == profesor, \"Only proffesor allowed\");\n         _;\n     }\n     modifier soloMatriculados(){\n         require(estaMatriculado(msg.sender), \"Only enrolled students allowed\");\n         _;\n     }\n     modifier noMatriculados(){\n         require(!estaMatriculado(msg.sender), \"Only non-enrolled students allowed\");\n         _;\n     }\n     modifier soloOwner(){\n         require(msg.sender == owner, \"Only contract's owner allowed\");\n         _;\n     }\n     modifier soloCoordinador(){\n         require(msg.sender == coordinador, \"Only Coordinator allowed\");\n         _;\n     }\n      modifier soloAbierta(){\n          require(cerrada == false, \"Only allowed if the subject is open\");\n          _;\n      }\n     \n      receive() external payable{\n          revert(\"No money transfer allowed\");\n      }\n\n}\n",
  "sourcePath": "/home/yildirim/Desktop/UNI/BCDA/Practica4/contracts/Asignatura.sol",
  "compiler": {
    "name": "solc",
    "version": "0.8.11+commit.d7f03943.Emscripten.clang"
  },
  "schemaVersion": "3.4.4",
  "updatedAt": "2022-01-02T23:55:44.858Z",
  "networkType": "ethereum",
  "devdoc": {
    "kind": "dev",
    "methods": {},
    "version": 1
  },
  "userdoc": {
    "kind": "user",
    "methods": {
      "datosAlumno(address)": {
        "notice": "Acceder a los datos de un alumno dada su direccin"
      },
      "evaluaciones(uint256)": {
        "notice": "Evaluaciones de la asignatura"
      },
      "matriculas(uint256)": {
        "notice": "Array con las direcciones de los alumnos matriculados"
      },
      "profesor()": {
        "notice": "address del profesor que ha desplegado el contrato. El contrato lo despliega el profesor."
      }
    },
    "version": 1
  }
}