{
  "contractName": "Asignatura",
  "abi": [
    {
      "inputs": [
        {
          "internalType": "string",
          "name": "_nombre",
          "type": "string"
        },
        {
          "internalType": "string",
          "name": "_curso",
          "type": "string"
        }
      ],
      "stateMutability": "nonpayable",
      "type": "constructor"
    },
    {
      "inputs": [
        {
          "internalType": "string",
          "name": "dni",
          "type": "string"
        }
      ],
      "name": "DNIExistsError",
      "type": "error"
    },
    {
      "inputs": [
        {
          "internalType": "address",
          "name": "",
          "type": "address"
        },
        {
          "internalType": "uint256",
          "name": "",
          "type": "uint256"
        }
      ],
      "name": "calificaciones",
      "outputs": [
        {
          "internalType": "enum Asignatura.TipoNota",
          "name": "tipo",
          "type": "uint8"
        },
        {
          "internalType": "uint256",
          "name": "calificacion",
          "type": "uint256"
        }
      ],
      "stateMutability": "view",
      "type": "function",
      "constant": true
    },
    {
      "inputs": [],
      "name": "cerrada",
      "outputs": [
        {
          "internalType": "bool",
          "name": "",
          "type": "bool"
        }
      ],
      "stateMutability": "view",
      "type": "function",
      "constant": true
    },
    {
      "inputs": [],
      "name": "coordinador",
      "outputs": [
        {
          "internalType": "address",
          "name": "",
          "type": "address"
        }
      ],
      "stateMutability": "view",
      "type": "function",
      "constant": true
    },
    {
      "inputs": [],
      "name": "curso",
      "outputs": [
        {
          "internalType": "string",
          "name": "",
          "type": "string"
        }
      ],
      "stateMutability": "view",
      "type": "function",
      "constant": true
    },
    {
      "inputs": [
        {
          "internalType": "address",
          "name": "",
          "type": "address"
        }
      ],
      "name": "datosAlumno",
      "outputs": [
        {
          "internalType": "string",
          "name": "nombre",
          "type": "string"
        },
        {
          "internalType": "string",
          "name": "email",
          "type": "string"
        },
        {
          "internalType": "string",
          "name": "dni",
          "type": "string"
        }
      ],
      "stateMutability": "view",
      "type": "function",
      "constant": true
    },
    {
      "inputs": [
        {
          "internalType": "address",
          "name": "",
          "type": "address"
        }
      ],
      "name": "datosProfesor",
      "outputs": [
        {
          "internalType": "string",
          "name": "",
          "type": "string"
        }
      ],
      "stateMutability": "view",
      "type": "function",
      "constant": true
    },
    {
      "inputs": [
        {
          "internalType": "string",
          "name": "",
          "type": "string"
        }
      ],
      "name": "dniMap",
      "outputs": [
        {
          "internalType": "string",
          "name": "",
          "type": "string"
        }
      ],
      "stateMutability": "view",
      "type": "function",
      "constant": true
    },
    {
      "inputs": [
        {
          "internalType": "uint256",
          "name": "",
          "type": "uint256"
        }
      ],
      "name": "evaluaciones",
      "outputs": [
        {
          "internalType": "string",
          "name": "nombre",
          "type": "string"
        },
        {
          "internalType": "uint256",
          "name": "fecha",
          "type": "uint256"
        },
        {
          "internalType": "uint256",
          "name": "puntos",
          "type": "uint256"
        }
      ],
      "stateMutability": "view",
      "type": "function",
      "constant": true
    },
    {
      "inputs": [
        {
          "internalType": "address",
          "name": "",
          "type": "address"
        }
      ],
      "name": "isProfesor",
      "outputs": [
        {
          "internalType": "bool",
          "name": "",
          "type": "bool"
        }
      ],
      "stateMutability": "view",
      "type": "function",
      "constant": true
    },
    {
      "inputs": [
        {
          "internalType": "uint256",
          "name": "",
          "type": "uint256"
        }
      ],
      "name": "matriculas",
      "outputs": [
        {
          "internalType": "address",
          "name": "",
          "type": "address"
        }
      ],
      "stateMutability": "view",
      "type": "function",
      "constant": true
    },
    {
      "inputs": [],
      "name": "nombre",
      "outputs": [
        {
          "internalType": "string",
          "name": "",
          "type": "string"
        }
      ],
      "stateMutability": "view",
      "type": "function",
      "constant": true
    },
    {
      "inputs": [],
      "name": "owner",
      "outputs": [
        {
          "internalType": "address",
          "name": "",
          "type": "address"
        }
      ],
      "stateMutability": "view",
      "type": "function",
      "constant": true
    },
    {
      "inputs": [],
      "name": "profesor",
      "outputs": [
        {
          "internalType": "address",
          "name": "",
          "type": "address"
        }
      ],
      "stateMutability": "view",
      "type": "function",
      "constant": true
    },
    {
      "inputs": [
        {
          "internalType": "uint256",
          "name": "",
          "type": "uint256"
        }
      ],
      "name": "profesores",
      "outputs": [
        {
          "internalType": "address",
          "name": "",
          "type": "address"
        }
      ],
      "stateMutability": "view",
      "type": "function",
      "constant": true
    },
    {
      "inputs": [],
      "name": "version",
      "outputs": [
        {
          "internalType": "uint256",
          "name": "",
          "type": "uint256"
        }
      ],
      "stateMutability": "view",
      "type": "function",
      "constant": true
    },
    {
      "stateMutability": "payable",
      "type": "receive",
      "payable": true
    },
    {
      "inputs": [
        {
          "internalType": "address",
          "name": "dirProfesor",
          "type": "address"
        }
      ],
      "name": "getNombreProfesor",
      "outputs": [
        {
          "internalType": "string",
          "name": "",
          "type": "string"
        }
      ],
      "stateMutability": "view",
      "type": "function",
      "constant": true
    },
    {
      "inputs": [
        {
          "internalType": "address",
          "name": "dirAlumno",
          "type": "address"
        }
      ],
      "name": "getDatosAlumno",
      "outputs": [
        {
          "components": [
            {
              "internalType": "string",
              "name": "nombre",
              "type": "string"
            },
            {
              "internalType": "string",
              "name": "email",
              "type": "string"
            },
            {
              "internalType": "string",
              "name": "dni",
              "type": "string"
            }
          ],
          "internalType": "struct Asignatura.DatosAlumno",
          "name": "",
          "type": "tuple"
        }
      ],
      "stateMutability": "view",
      "type": "function",
      "constant": true
    },
    {
      "inputs": [
        {
          "internalType": "address",
          "name": "dirAlumno",
          "type": "address"
        },
        {
          "internalType": "uint256",
          "name": "indice",
          "type": "uint256"
        }
      ],
      "name": "getCalificacion",
      "outputs": [
        {
          "components": [
            {
              "internalType": "enum Asignatura.TipoNota",
              "name": "tipo",
              "type": "uint8"
            },
            {
              "internalType": "uint256",
              "name": "calificacion",
              "type": "uint256"
            }
          ],
          "internalType": "struct Asignatura.Nota",
          "name": "",
          "type": "tuple"
        }
      ],
      "stateMutability": "view",
      "type": "function",
      "constant": true
    },
    {
      "inputs": [
        {
          "internalType": "uint256",
          "name": "evaluacion",
          "type": "uint256"
        }
      ],
      "name": "miNota",
      "outputs": [
        {
          "internalType": "enum Asignatura.TipoNota",
          "name": "tipo",
          "type": "uint8"
        },
        {
          "internalType": "uint256",
          "name": "calificacion",
          "type": "uint256"
        }
      ],
      "stateMutability": "view",
      "type": "function",
      "constant": true
    },
    {
      "inputs": [
        {
          "internalType": "address",
          "name": "coord",
          "type": "address"
        }
      ],
      "name": "setCoordinador",
      "outputs": [],
      "stateMutability": "nonpayable",
      "type": "function"
    },
    {
      "inputs": [],
      "name": "cerrar",
      "outputs": [],
      "stateMutability": "nonpayable",
      "type": "function"
    },
    {
      "inputs": [],
      "name": "abrir",
      "outputs": [],
      "stateMutability": "nonpayable",
      "type": "function"
    },
    {
      "inputs": [
        {
          "internalType": "address",
          "name": "dirProfesor",
          "type": "address"
        },
        {
          "internalType": "string",
          "name": "nombreProfesor",
          "type": "string"
        }
      ],
      "name": "addProfesor",
      "outputs": [],
      "stateMutability": "nonpayable",
      "type": "function"
    },
    {
      "inputs": [],
      "name": "profesoresLength",
      "outputs": [
        {
          "internalType": "uint256",
          "name": "",
          "type": "uint256"
        }
      ],
      "stateMutability": "view",
      "type": "function",
      "constant": true
    },
    {
      "inputs": [],
      "name": "evaluacionesLength",
      "outputs": [
        {
          "internalType": "uint256",
          "name": "",
          "type": "uint256"
        }
      ],
      "stateMutability": "view",
      "type": "function",
      "constant": true
    },
    {
      "inputs": [
        {
          "internalType": "string",
          "name": "_nombre",
          "type": "string"
        },
        {
          "internalType": "uint256",
          "name": "_fecha",
          "type": "uint256"
        },
        {
          "internalType": "uint256",
          "name": "_puntos",
          "type": "uint256"
        }
      ],
      "name": "creaEvaluacion",
      "outputs": [
        {
          "internalType": "uint256",
          "name": "",
          "type": "uint256"
        }
      ],
      "stateMutability": "nonpayable",
      "type": "function"
    },
    {
      "inputs": [],
      "name": "matriculasLength",
      "outputs": [
        {
          "internalType": "uint256",
          "name": "",
          "type": "uint256"
        }
      ],
      "stateMutability": "view",
      "type": "function",
      "constant": true
    },
    {
      "inputs": [
        {
          "internalType": "string",
          "name": "_nombre",
          "type": "string"
        },
        {
          "internalType": "string",
          "name": "_email",
          "type": "string"
        },
        {
          "internalType": "string",
          "name": "_dni",
          "type": "string"
        }
      ],
      "name": "automatricula",
      "outputs": [],
      "stateMutability": "nonpayable",
      "type": "function"
    },
    {
      "inputs": [],
      "name": "quienSoy",
      "outputs": [
        {
          "internalType": "string",
          "name": "_nombre",
          "type": "string"
        },
        {
          "internalType": "string",
          "name": "_email",
          "type": "string"
        },
        {
          "internalType": "string",
          "name": "_dni",
          "type": "string"
        }
      ],
      "stateMutability": "view",
      "type": "function",
      "constant": true
    },
    {
      "inputs": [
        {
          "internalType": "address",
          "name": "alumno",
          "type": "address"
        },
        {
          "internalType": "uint256",
          "name": "evaluacion",
          "type": "uint256"
        },
        {
          "internalType": "enum Asignatura.TipoNota",
          "name": "tipo",
          "type": "uint8"
        },
        {
          "internalType": "uint256",
          "name": "calificacion",
          "type": "uint256"
        }
      ],
      "name": "califica",
      "outputs": [],
      "stateMutability": "nonpayable",
      "type": "function"
    }
  ],
  "bytecode": "0x60806040526107e56000553480156200001757600080fd5b5060405162003c9d38038062003c9d83398181016040528101906200003d9190620003fd565b60008290506000815114156200008a576040517f08c379a00000000000000000000000000000000000000000000000000000000081526004016200008190620004e3565b60405180910390fd5b6000829050600081511415620000d7576040517f08c379a0000000000000000000000000000000000000000000000000000000008152600401620000ce906200057b565b60405180910390fd5b8360029080519060200190620000ef929190620001b0565b50826003908051906020019062000108929190620001b0565b5033600160006101000a81548173ffffffffffffffffffffffffffffffffffffffff021916908373ffffffffffffffffffffffffffffffffffffffff16021790555033600460006101000a81548173ffffffffffffffffffffffffffffffffffffffff021916908373ffffffffffffffffffffffffffffffffffffffff1602179055506000600560146101000a81548160ff0219169083151502179055505050505062000602565b828054620001be90620005cc565b90600052602060002090601f016020900481019282620001e257600085556200022e565b82601f10620001fd57805160ff19168380011785556200022e565b828001600101855582156200022e579182015b828111156200022d57825182559160200191906001019062000210565b5b5090506200023d919062000241565b5090565b5b808211156200025c57600081600090555060010162000242565b5090565b6000604051905090565b600080fd5b600080fd5b600080fd5b600080fd5b6000601f19601f8301169050919050565b7f4e487b7100000000000000000000000000000000000000000000000000000000600052604160045260246000fd5b620002c9826200027e565b810181811067ffffffffffffffff82111715620002eb57620002ea6200028f565b5b80604052505050565b60006200030062000260565b90506200030e8282620002be565b919050565b600067ffffffffffffffff8211156200033157620003306200028f565b5b6200033c826200027e565b9050602081019050919050565b60005b83811015620003695780820151818401526020810190506200034c565b8381111562000379576000848401525b50505050565b600062000396620003908462000313565b620002f4565b905082815260208101848484011115620003b557620003b462000279565b5b620003c284828562000349565b509392505050565b600082601f830112620003e257620003e162000274565b5b8151620003f48482602086016200037f565b91505092915050565b600080604083850312156200041757620004166200026a565b5b600083015167ffffffffffffffff8111156200043857620004376200026f565b5b6200044685828601620003ca565b925050602083015167ffffffffffffffff8111156200046a57620004696200026f565b5b6200047885828601620003ca565b9150509250929050565b600082825260208201905092915050565b7f5375626a6563742773206e616d652063616e277420626520626c616e6b000000600082015250565b6000620004cb601d8362000482565b9150620004d88262000493565b602082019050919050565b60006020820190508181036000830152620004fe81620004bc565b9050919050565b7f5375626a65637427732061636164656d696320796561722063616e277420626560008201527f20626c616e6b0000000000000000000000000000000000000000000000000000602082015250565b60006200056360268362000482565b9150620005708262000505565b604082019050919050565b60006020820190508181036000830152620005968162000554565b9050919050565b7f4e487b7100000000000000000000000000000000000000000000000000000000600052602260045260246000fd5b60006002820490506001821680620005e557607f821691505b60208210811415620005fc57620005fb6200059d565b5b50919050565b61368b80620006126000396000f3fe6080604052600436106101d15760003560e01c80638da5cb5b116100f7578063d27c3f3c11610095578063df09657611610064578063df09657614610712578063e41e28b51461073d578063e81378d91461077a578063f967f986146107b757610211565b8063d27c3f3c14610669578063d51b4584146106a7578063dab6ff28146106d0578063deafcc41146106e757610211565b8063bc7b35b2116100d1578063bc7b35b214610587578063c7918139146105b2578063c8373750146105ef578063d017da1f1461062c57610211565b80638da5cb5b146104f457806393a3a3451461051f5780639e1d8f4b1461055c57610211565b8063537668831161016f5780636bf8aad61161013e5780636bf8aad6146104365780636fbb9dc7146104755780637810ff1e146104b25780638ab724c4146104dd57610211565b8063537668831461037857806354fd4d50146103a5578063641945bf146103d0578063681d4ca61461040d57610211565b806330322c9b116101ab57806330322c9b146102a757806342a6dde2146102d057806344f7a8cc1461030e578063488cf4f51461034d57610211565b80630c2e7895146102165780631d2e4d2b1461025357806322c4e3941461027c57610211565b36610211576040517f08c379a000000000000000000000000000000000000000000000000000000000815260040161020890612506565b60405180910390fd5b600080fd5b34801561022257600080fd5b5061023d600480360381019061023891906125ce565b6107e2565b60405161024a91906126c3565b60405180910390f35b34801561025f57600080fd5b5061027a60048036038101906102759190612824565b610892565b005b34801561028857600080fd5b50610291610b2e565b60405161029e919061289b565b60405180910390f35b3480156102b357600080fd5b506102ce60048036038101906102c991906128db565b610b41565b005b3480156102dc57600080fd5b506102f760048036038101906102f291906125ce565b610db7565b604051610305929190612960565b60405180910390f35b34801561031a57600080fd5b5061033560048036038101906103309190612989565b610df5565b60405161034493929190612a2d565b60405180910390f35b34801561035957600080fd5b50610362610eb7565b60405161036f9190612a6b565b60405180910390f35b34801561038457600080fd5b5061038d610ec4565b60405161039c93929190612a86565b60405180910390f35b3480156103b157600080fd5b506103ba611130565b6040516103c79190612a6b565b60405180910390f35b3480156103dc57600080fd5b506103f760048036038101906103f29190612ad2565b611136565b6040516104049190612aff565b60405180910390f35b34801561041957600080fd5b50610434600480360381019061042f9190612b21565b6111d6565b005b34801561044257600080fd5b5061045d60048036038101906104589190612ad2565b6115a3565b60405161046c93929190612a86565b60405180910390f35b34801561048157600080fd5b5061049c60048036038101906104979190612ad2565b611765565b6040516104a99190612c70565b60405180910390f35b3480156104be57600080fd5b506104c7611974565b6040516104d49190612ca1565b60405180910390f35b3480156104e957600080fd5b506104f261199a565b005b34801561050057600080fd5b50610509611a47565b6040516105169190612ca1565b60405180910390f35b34801561052b57600080fd5b5061054660048036038101906105419190612cbc565b611a6d565b6040516105539190612aff565b60405180910390f35b34801561056857600080fd5b50610571611b23565b60405161057e9190612a6b565b60405180910390f35b34801561059357600080fd5b5061059c611b30565b6040516105a99190612aff565b60405180910390f35b3480156105be57600080fd5b506105d960048036038101906105d49190612989565b611bbe565b6040516105e69190612ca1565b60405180910390f35b3480156105fb57600080fd5b5061061660048036038101906106119190612989565b611bfd565b6040516106239190612ca1565b60405180910390f35b34801561063857600080fd5b50610653600480360381019061064e9190612d05565b611c3c565b6040516106609190612a6b565b60405180910390f35b34801561067557600080fd5b50610690600480360381019061068b9190612989565b611e02565b60405161069e929190612960565b60405180910390f35b3480156106b357600080fd5b506106ce60048036038101906106c99190612ad2565b611f4c565b005b3480156106dc57600080fd5b506106e5612076565b005b3480156106f357600080fd5b506106fc612123565b6040516107099190612aff565b60405180910390f35b34801561071e57600080fd5b506107276121b1565b6040516107349190612ca1565b60405180910390f35b34801561074957600080fd5b50610764600480360381019061075f9190612ad2565b6121d7565b604051610771919061289b565b60405180910390f35b34801561078657600080fd5b506107a1600480360381019061079c9190612ad2565b6121f7565b6040516107ae9190612aff565b60405180910390f35b3480156107c357600080fd5b506107cc6122c8565b6040516107d99190612a6b565b60405180910390f35b6107ea6123b9565b600d60008473ffffffffffffffffffffffffffffffffffffffff1673ffffffffffffffffffffffffffffffffffffffff16815260200190815260200160002060008381526020019081526020016000206040518060400160405290816000820160009054906101000a900460ff16600281111561086a5761086961260e565b5b600281111561087c5761087b61260e565b5b8152602001600182015481525050905092915050565b600460009054906101000a900473ffffffffffffffffffffffffffffffffffffffff1673ffffffffffffffffffffffffffffffffffffffff163373ffffffffffffffffffffffffffffffffffffffff1614610922576040517f08c379a000000000000000000000000000000000000000000000000000000000815260040161091990612dc0565b60405180910390fd5b60001515600560149054906101000a900460ff16151514610978576040517f08c379a000000000000000000000000000000000000000000000000000000000815260040161096f90612e52565b60405180910390fd5b60008190506000815114156109c2576040517f08c379a00000000000000000000000000000000000000000000000000000000081526004016109b990612ebe565b60405180910390fd5b60006109cd846121f7565b905060008190506000815114610a18576040517f08c379a0000000000000000000000000000000000000000000000000000000008152600401610a0f90612f50565b60405180910390fd5b6007859080600181540180825580915050600190039060005260206000200160009091909190916101000a81548173ffffffffffffffffffffffffffffffffffffffff021916908373ffffffffffffffffffffffffffffffffffffffff16021790555083600660008773ffffffffffffffffffffffffffffffffffffffff1673ffffffffffffffffffffffffffffffffffffffff1681526020019081526020016000209080519060200190610ace9291906123e5565b506001600860008773ffffffffffffffffffffffffffffffffffffffff1673ffffffffffffffffffffffffffffffffffffffff16815260200190815260200160002060006101000a81548160ff0219169083151502179055505050505050565b600560149054906101000a900460ff1681565b600860003373ffffffffffffffffffffffffffffffffffffffff1673ffffffffffffffffffffffffffffffffffffffff16815260200190815260200160002060009054906101000a900460ff16610bcd576040517f08c379a0000000000000000000000000000000000000000000000000000000008152600401610bc490612fbc565b60405180910390fd5b60001515600560149054906101000a900460ff16151514610c23576040517f08c379a0000000000000000000000000000000000000000000000000000000008152600401610c1a90612e52565b60405180910390fd5b610c2c846122d5565b610c6b576040517f08c379a0000000000000000000000000000000000000000000000000000000008152600401610c629061304e565b60405180910390fd5b6009805490508310610cb2576040517f08c379a0000000000000000000000000000000000000000000000000000000008152600401610ca9906130e0565b60405180910390fd5b6103e8811115610cf7576040517f08c379a0000000000000000000000000000000000000000000000000000000008152600401610cee90613172565b60405180910390fd5b60006040518060400160405280846002811115610d1757610d1661260e565b5b815260200183815250905080600d60008773ffffffffffffffffffffffffffffffffffffffff1673ffffffffffffffffffffffffffffffffffffffff168152602001908152602001600020600086815260200190815260200160002060008201518160000160006101000a81548160ff02191690836002811115610d9e57610d9d61260e565b5b0217905550602082015181600101559050505050505050565b600d602052816000526040600020602052806000526040600020600091509150508060000160009054906101000a900460ff16908060010154905082565b60098181548110610e0557600080fd5b9060005260206000209060030201600091509050806000018054610e28906131c1565b80601f0160208091040260200160405190810160405280929190818152602001828054610e54906131c1565b8015610ea15780601f10610e7657610100808354040283529160200191610ea1565b820191906000526020600020905b815481529060010190602001808311610e8457829003601f168201915b5050505050908060010154908060020154905083565b6000600980549050905090565b6060806060610ed2336122d5565b610f11576040517f08c379a0000000000000000000000000000000000000000000000000000000008152600401610f089061323f565b60405180910390fd5b6000600a60003373ffffffffffffffffffffffffffffffffffffffff1673ffffffffffffffffffffffffffffffffffffffff168152602001908152602001600020604051806060016040529081600082018054610f6d906131c1565b80601f0160208091040260200160405190810160405280929190818152602001828054610f99906131c1565b8015610fe65780601f10610fbb57610100808354040283529160200191610fe6565b820191906000526020600020905b815481529060010190602001808311610fc957829003601f168201915b50505050508152602001600182018054610fff906131c1565b80601f016020809104026020016040519081016040528092919081815260200182805461102b906131c1565b80156110785780601f1061104d57610100808354040283529160200191611078565b820191906000526020600020905b81548152906001019060200180831161105b57829003601f168201915b50505050508152602001600282018054611091906131c1565b80601f01602080910402602001604051908101604052809291908181526020018280546110bd906131c1565b801561110a5780601f106110df5761010080835404028352916020019161110a565b820191906000526020600020905b8154815290600101906020018083116110ed57829003601f168201915b505050505081525050905080600001519350806020015192508060400151915050909192565b60005481565b60066020528060005260406000206000915090508054611155906131c1565b80601f0160208091040260200160405190810160405280929190818152602001828054611181906131c1565b80156111ce5780601f106111a3576101008083540402835291602001916111ce565b820191906000526020600020905b8154815290600101906020018083116111b157829003601f168201915b505050505081565b60001515600560149054906101000a900460ff1615151461122c576040517f08c379a000000000000000000000000000000000000000000000000000000000815260040161122390612e52565b60405180910390fd5b611235336122d5565b15611275576040517f08c379a000000000000000000000000000000000000000000000000000000000815260040161126c906132d1565b60405180910390fd5b60008390506000815114156112bf576040517f08c379a00000000000000000000000000000000000000000000000000000000081526004016112b69061333d565b60405180910390fd5b6000839050600081511415611309576040517f08c379a0000000000000000000000000000000000000000000000000000000008152600401611300906133a9565b60405180910390fd5b6000839050600081511415611353576040517f08c379a000000000000000000000000000000000000000000000000000000000815260040161134a90613415565b60405180910390fd5b6000600b856040516113659190613471565b9081526020016040518091039020805461137e906131c1565b80601f01602080910402602001604051908101604052809291908181526020018280546113aa906131c1565b80156113f75780601f106113cc576101008083540402835291602001916113f7565b820191906000526020600020905b8154815290600101906020018083116113da57829003601f168201915b505050505090506000819050600081511461144957816040517f995e03530000000000000000000000000000000000000000000000000000000081526004016114409190612aff565b60405180910390fd5b600060405180606001604052808a815260200189815260200188815250905080600a60003373ffffffffffffffffffffffffffffffffffffffff1673ffffffffffffffffffffffffffffffffffffffff16815260200190815260200160002060008201518160000190805190602001906114c49291906123e5565b5060208201518160010190805190602001906114e19291906123e5565b5060408201518160020190805190602001906114fe9291906123e5565b5090505088600b886040516115139190613471565b908152602001604051809103902090805190602001906115349291906123e5565b50600c339080600181540180825580915050600190039060005260206000200160009091909190916101000a81548173ffffffffffffffffffffffffffffffffffffffff021916908373ffffffffffffffffffffffffffffffffffffffff160217905550505050505050505050565b600a6020528060005260406000206000915090508060000180546115c6906131c1565b80601f01602080910402602001604051908101604052809291908181526020018280546115f2906131c1565b801561163f5780601f106116145761010080835404028352916020019161163f565b820191906000526020600020905b81548152906001019060200180831161162257829003601f168201915b505050505090806001018054611654906131c1565b80601f0160208091040260200160405190810160405280929190818152602001828054611680906131c1565b80156116cd5780601f106116a2576101008083540402835291602001916116cd565b820191906000526020600020905b8154815290600101906020018083116116b057829003601f168201915b5050505050908060020180546116e2906131c1565b80601f016020809104026020016040519081016040528092919081815260200182805461170e906131c1565b801561175b5780601f106117305761010080835404028352916020019161175b565b820191906000526020600020905b81548152906001019060200180831161173e57829003601f168201915b5050505050905083565b61176d61246b565b600a60008373ffffffffffffffffffffffffffffffffffffffff1673ffffffffffffffffffffffffffffffffffffffff1681526020019081526020016000206040518060600160405290816000820180546117c7906131c1565b80601f01602080910402602001604051908101604052809291908181526020018280546117f3906131c1565b80156118405780601f1061181557610100808354040283529160200191611840565b820191906000526020600020905b81548152906001019060200180831161182357829003601f168201915b50505050508152602001600182018054611859906131c1565b80601f0160208091040260200160405190810160405280929190818152602001828054611885906131c1565b80156118d25780601f106118a7576101008083540402835291602001916118d2565b820191906000526020600020905b8154815290600101906020018083116118b557829003601f168201915b505050505081526020016002820180546118eb906131c1565b80601f0160208091040260200160405190810160405280929190818152602001828054611917906131c1565b80156119645780601f1061193957610100808354040283529160200191611964565b820191906000526020600020905b81548152906001019060200180831161194757829003601f168201915b5050505050815250509050919050565b600560009054906101000a900473ffffffffffffffffffffffffffffffffffffffff1681565b600560009054906101000a900473ffffffffffffffffffffffffffffffffffffffff1673ffffffffffffffffffffffffffffffffffffffff163373ffffffffffffffffffffffffffffffffffffffff1614611a2a576040517f08c379a0000000000000000000000000000000000000000000000000000000008152600401611a21906134d4565b60405180910390fd5b6000600560146101000a81548160ff021916908315150217905550565b600460009054906101000a900473ffffffffffffffffffffffffffffffffffffffff1681565b600b818051602081018201805184825260208301602085012081835280955050505050506000915090508054611aa2906131c1565b80601f0160208091040260200160405190810160405280929190818152602001828054611ace906131c1565b8015611b1b5780601f10611af057610100808354040283529160200191611b1b565b820191906000526020600020905b815481529060010190602001808311611afe57829003601f168201915b505050505081565b6000600c80549050905090565b60028054611b3d906131c1565b80601f0160208091040260200160405190810160405280929190818152602001828054611b69906131c1565b8015611bb65780601f10611b8b57610100808354040283529160200191611bb6565b820191906000526020600020905b815481529060010190602001808311611b9957829003601f168201915b505050505081565b600c8181548110611bce57600080fd5b906000526020600020016000915054906101000a900473ffffffffffffffffffffffffffffffffffffffff1681565b60078181548110611c0d57600080fd5b906000526020600020016000915054906101000a900473ffffffffffffffffffffffffffffffffffffffff1681565b6000801515600560149054906101000a900460ff16151514611c93576040517f08c379a0000000000000000000000000000000000000000000000000000000008152600401611c8a90612e52565b60405180910390fd5b600560009054906101000a900473ffffffffffffffffffffffffffffffffffffffff1673ffffffffffffffffffffffffffffffffffffffff163373ffffffffffffffffffffffffffffffffffffffff1614611d23576040517f08c379a0000000000000000000000000000000000000000000000000000000008152600401611d1a906134d4565b60405180910390fd5b6000849050600081511415611d6d576040517f08c379a0000000000000000000000000000000000000000000000000000000008152600401611d6490613540565b60405180910390fd5b600960405180606001604052808781526020018681526020018581525090806001815401808255809150506001900390600052602060002090600302016000909190919091506000820151816000019080519060200190611dcf9291906123e5565b50602082015181600101556040820151816002015550506001600980549050611df8919061358f565b9150509392505050565b600080611e0e336122d5565b611e4d576040517f08c379a0000000000000000000000000000000000000000000000000000000008152600401611e449061323f565b60405180910390fd5b6009805490508310611e94576040517f08c379a0000000000000000000000000000000000000000000000000000000008152600401611e8b90613635565b60405180910390fd5b6000600d60003373ffffffffffffffffffffffffffffffffffffffff1673ffffffffffffffffffffffffffffffffffffffff16815260200190815260200160002060008581526020019081526020016000206040518060400160405290816000820160009054906101000a900460ff166002811115611f1657611f1561260e565b5b6002811115611f2857611f2761260e565b5b81526020016001820154815250509050806000015192508060200151915050915091565b600460009054906101000a900473ffffffffffffffffffffffffffffffffffffffff1673ffffffffffffffffffffffffffffffffffffffff163373ffffffffffffffffffffffffffffffffffffffff1614611fdc576040517f08c379a0000000000000000000000000000000000000000000000000000000008152600401611fd390612dc0565b60405180910390fd5b60001515600560149054906101000a900460ff16151514612032576040517f08c379a000000000000000000000000000000000000000000000000000000000815260040161202990612e52565b60405180910390fd5b80600560006101000a81548173ffffffffffffffffffffffffffffffffffffffff021916908373ffffffffffffffffffffffffffffffffffffffff16021790555050565b600560009054906101000a900473ffffffffffffffffffffffffffffffffffffffff1673ffffffffffffffffffffffffffffffffffffffff163373ffffffffffffffffffffffffffffffffffffffff1614612106576040517f08c379a00000000000000000000000000000000000000000000000000000000081526004016120fd906134d4565b60405180910390fd5b6001600560146101000a81548160ff021916908315150217905550565b60038054612130906131c1565b80601f016020809104026020016040519081016040528092919081815260200182805461215c906131c1565b80156121a95780601f1061217e576101008083540402835291602001916121a9565b820191906000526020600020905b81548152906001019060200180831161218c57829003601f168201915b505050505081565b600160009054906101000a900473ffffffffffffffffffffffffffffffffffffffff1681565b60086020528060005260406000206000915054906101000a900460ff1681565b6060600660008373ffffffffffffffffffffffffffffffffffffffff1673ffffffffffffffffffffffffffffffffffffffff1681526020019081526020016000208054612243906131c1565b80601f016020809104026020016040519081016040528092919081815260200182805461226f906131c1565b80156122bc5780601f10612291576101008083540402835291602001916122bc565b820191906000526020600020905b81548152906001019060200180831161229f57829003601f168201915b50505050509050919050565b6000600780549050905090565b600080600a60008473ffffffffffffffffffffffffffffffffffffffff1673ffffffffffffffffffffffffffffffffffffffff1681526020019081526020016000206000018054612325906131c1565b80601f0160208091040260200160405190810160405280929190818152602001828054612351906131c1565b801561239e5780601f106123735761010080835404028352916020019161239e565b820191906000526020600020905b81548152906001019060200180831161238157829003601f168201915b50505050509050600081905060008151141592505050919050565b6040518060400160405280600060028111156123d8576123d761260e565b5b8152602001600081525090565b8280546123f1906131c1565b90600052602060002090601f016020900481019282612413576000855561245a565b82601f1061242c57805160ff191683800117855561245a565b8280016001018555821561245a579182015b8281111561245957825182559160200191906001019061243e565b5b509050612467919061248c565b5090565b60405180606001604052806060815260200160608152602001606081525090565b5b808211156124a557600081600090555060010161248d565b5090565b600082825260208201905092915050565b7f4e6f206d6f6e6579207472616e7366657220616c6c6f77656400000000000000600082015250565b60006124f06019836124a9565b91506124fb826124ba565b602082019050919050565b6000602082019050818103600083015261251f816124e3565b9050919050565b6000604051905090565b600080fd5b600080fd5b600073ffffffffffffffffffffffffffffffffffffffff82169050919050565b60006125658261253a565b9050919050565b6125758161255a565b811461258057600080fd5b50565b6000813590506125928161256c565b92915050565b6000819050919050565b6125ab81612598565b81146125b657600080fd5b50565b6000813590506125c8816125a2565b92915050565b600080604083850312156125e5576125e4612530565b5b60006125f385828601612583565b9250506020612604858286016125b9565b9150509250929050565b7f4e487b7100000000000000000000000000000000000000000000000000000000600052602160045260246000fd5b6003811061264e5761264d61260e565b5b50565b600081905061265f8261263d565b919050565b600061266f82612651565b9050919050565b61267f81612664565b82525050565b61268e81612598565b82525050565b6040820160008201516126aa6000850182612676565b5060208201516126bd6020850182612685565b50505050565b60006040820190506126d86000830184612694565b92915050565b600080fd5b600080fd5b6000601f19601f8301169050919050565b7f4e487b7100000000000000000000000000000000000000000000000000000000600052604160045260246000fd5b612731826126e8565b810181811067ffffffffffffffff821117156127505761274f6126f9565b5b80604052505050565b6000612763612526565b905061276f8282612728565b919050565b600067ffffffffffffffff82111561278f5761278e6126f9565b5b612798826126e8565b9050602081019050919050565b82818337600083830152505050565b60006127c76127c284612774565b612759565b9050828152602081018484840111156127e3576127e26126e3565b5b6127ee8482856127a5565b509392505050565b600082601f83011261280b5761280a6126de565b5b813561281b8482602086016127b4565b91505092915050565b6000806040838503121561283b5761283a612530565b5b600061284985828601612583565b925050602083013567ffffffffffffffff81111561286a57612869612535565b5b612876858286016127f6565b9150509250929050565b60008115159050919050565b61289581612880565b82525050565b60006020820190506128b0600083018461288c565b92915050565b600381106128c357600080fd5b50565b6000813590506128d5816128b6565b92915050565b600080600080608085870312156128f5576128f4612530565b5b600061290387828801612583565b9450506020612914878288016125b9565b9350506040612925878288016128c6565b9250506060612936878288016125b9565b91505092959194509250565b61294b81612664565b82525050565b61295a81612598565b82525050565b60006040820190506129756000830185612942565b6129826020830184612951565b9392505050565b60006020828403121561299f5761299e612530565b5b60006129ad848285016125b9565b91505092915050565b600081519050919050565b60005b838110156129df5780820151818401526020810190506129c4565b838111156129ee576000848401525b50505050565b60006129ff826129b6565b612a0981856124a9565b9350612a198185602086016129c1565b612a22816126e8565b840191505092915050565b60006060820190508181036000830152612a4781866129f4565b9050612a566020830185612951565b612a636040830184612951565b949350505050565b6000602082019050612a806000830184612951565b92915050565b60006060820190508181036000830152612aa081866129f4565b90508181036020830152612ab481856129f4565b90508181036040830152612ac881846129f4565b9050949350505050565b600060208284031215612ae857612ae7612530565b5b6000612af684828501612583565b91505092915050565b60006020820190508181036000830152612b1981846129f4565b905092915050565b600080600060608486031215612b3a57612b39612530565b5b600084013567ffffffffffffffff811115612b5857612b57612535565b5b612b64868287016127f6565b935050602084013567ffffffffffffffff811115612b8557612b84612535565b5b612b91868287016127f6565b925050604084013567ffffffffffffffff811115612bb257612bb1612535565b5b612bbe868287016127f6565b9150509250925092565b600082825260208201905092915050565b6000612be4826129b6565b612bee8185612bc8565b9350612bfe8185602086016129c1565b612c07816126e8565b840191505092915050565b60006060830160008301518482036000860152612c2f8282612bd9565b91505060208301518482036020860152612c498282612bd9565b91505060408301518482036040860152612c638282612bd9565b9150508091505092915050565b60006020820190508181036000830152612c8a8184612c12565b905092915050565b612c9b8161255a565b82525050565b6000602082019050612cb66000830184612c92565b92915050565b600060208284031215612cd257612cd1612530565b5b600082013567ffffffffffffffff811115612cf057612cef612535565b5b612cfc848285016127f6565b91505092915050565b600080600060608486031215612d1e57612d1d612530565b5b600084013567ffffffffffffffff811115612d3c57612d3b612535565b5b612d48868287016127f6565b9350506020612d59868287016125b9565b9250506040612d6a868287016125b9565b9150509250925092565b7f4f6e6c7920636f6e74726163742773206f776e657220616c6c6f776564000000600082015250565b6000612daa601d836124a9565b9150612db582612d74565b602082019050919050565b60006020820190508181036000830152612dd981612d9d565b9050919050565b7f4f6e6c7920616c6c6f77656420696620746865207375626a656374206973206f60008201527f70656e0000000000000000000000000000000000000000000000000000000000602082015250565b6000612e3c6023836124a9565b9150612e4782612de0565b604082019050919050565b60006020820190508181036000830152612e6b81612e2f565b9050919050565b7f50726f666573736f722773206e616d652063616e277420626520626c616e6b00600082015250565b6000612ea8601f836124a9565b9150612eb382612e72565b602082019050919050565b60006020820190508181036000830152612ed781612e9b565b9050919050565b7f43616e27742061646420612070726f666573736f72206d756c7469706c65207460008201527f696d657300000000000000000000000000000000000000000000000000000000602082015250565b6000612f3a6024836124a9565b9150612f4582612ede565b604082019050919050565b60006020820190508181036000830152612f6981612f2d565b9050919050565b7f4f6e6c792070726f666665736f727320616c6c6f776564000000000000000000600082015250565b6000612fa66017836124a9565b9150612fb182612f70565b602082019050919050565b60006020820190508181036000830152612fd581612f99565b9050919050565b7f596f752063616e206f6e6c79206d61726b20616e20656e726f6c6c656420737460008201527f7564656e74000000000000000000000000000000000000000000000000000000602082015250565b60006130386025836124a9565b915061304382612fdc565b604082019050919050565b600060208201905081810360008301526130678161302b565b9050919050565b7f596f752063616e2774206d61726b2061206e6f6e2d6578697374616e7420657660008201527f616c756174696f6e000000000000000000000000000000000000000000000000602082015250565b60006130ca6028836124a9565b91506130d58261306e565b604082019050919050565b600060208201905081810360008301526130f9816130bd565b9050919050565b7f596f752063616e2774206d61726b207769746820686967686572207468616e2060008201527f3130303000000000000000000000000000000000000000000000000000000000602082015250565b600061315c6024836124a9565b915061316782613100565b604082019050919050565b6000602082019050818103600083015261318b8161314f565b9050919050565b7f4e487b7100000000000000000000000000000000000000000000000000000000600052602260045260246000fd5b600060028204905060018216806131d957607f821691505b602082108114156131ed576131ec613192565b5b50919050565b7f4f6e6c7920656e726f6c6c65642073747564656e747320616c6c6f7765640000600082015250565b6000613229601e836124a9565b9150613234826131f3565b602082019050919050565b600060208201905081810360008301526132588161321c565b9050919050565b7f4f6e6c79206e6f6e2d656e726f6c6c65642073747564656e747320616c6c6f7760008201527f6564000000000000000000000000000000000000000000000000000000000000602082015250565b60006132bb6022836124a9565b91506132c68261325f565b604082019050919050565b600060208201905081810360008301526132ea816132ae565b9050919050565b7f4e616d652063616e277420626520626c616e6b00000000000000000000000000600082015250565b60006133276013836124a9565b9150613332826132f1565b602082019050919050565b600060208201905081810360008301526133568161331a565b9050919050565b7f456d61696c2063616e277420626520626c616e6b000000000000000000000000600082015250565b60006133936014836124a9565b915061339e8261335d565b602082019050919050565b600060208201905081810360008301526133c281613386565b9050919050565b7f4944206e756d6265722063616e277420626520626c616e6b0000000000000000600082015250565b60006133ff6018836124a9565b915061340a826133c9565b602082019050919050565b6000602082019050818103600083015261342e816133f2565b9050919050565b600081905092915050565b600061344b826129b6565b6134558185613435565b93506134658185602086016129c1565b80840191505092915050565b600061347d8284613440565b915081905092915050565b7f4f6e6c7920436f6f7264696e61746f7220616c6c6f7765640000000000000000600082015250565b60006134be6018836124a9565b91506134c982613488565b602082019050919050565b600060208201905081810360008301526134ed816134b1565b9050919050565b7f4576616c756174696f6e2773206e616d652063616e277420626520626c616e6b600082015250565b600061352a6020836124a9565b9150613535826134f4565b602082019050919050565b600060208201905081810360008301526135598161351d565b9050919050565b7f4e487b7100000000000000000000000000000000000000000000000000000000600052601160045260246000fd5b600061359a82612598565b91506135a583612598565b9250828210156135b8576135b7613560565b5b828203905092915050565b7f4576616c756174696f6e277320696e64657820646f6573206e6f74206578697360008201527f7400000000000000000000000000000000000000000000000000000000000000602082015250565b600061361f6021836124a9565b915061362a826135c3565b604082019050919050565b6000602082019050818103600083015261364e81613612565b905091905056fea2646970667358221220f57c766aa44d4effdd5fa357445cf9dae14778dadcfcdd88ab06e59e5291661464736f6c634300080b0033",
  "immutableReferences": {},
  "source": "// Authors: Javier Sanz Sez\n//          Javier Antn Yuste\n\n// SPDX-License-Identifier: GPL-3.O\npragma solidity ^0.8.7;\n\ncontract Asignatura {\n    uint public version = 2021;\n    /**\n     * address del profesor que ha desplegado el contrato.\n     * El contrato lo despliega el profesor.\n     */\n\n    address public profesor;\n    string public nombre; // Subject's name\n    string public curso;  // Academic year\n    address public owner; // User that has deployed the contract\n    address public coordinador; // Coordinator's address\n    bool public cerrada; // Boolean to check whether the subject is closed or not\n    mapping(address => string) public datosProfesor;  // Dict: name-address\n    address[] public profesores; // Proffessors' user addresses\n    mapping(address => bool) public isProfesor;\n\n    // Error definition\n    error DNIExistsError (string dni);\n\n    /**\n     * Datos de una evaluacin\n     */\n    struct Evaluacion {\n        string nombre;\n        uint fecha;\n        uint puntos;\n    }\n    \n    /// Evaluaciones de la asignatura\n    Evaluacion[] public evaluaciones;\n    \n    /// Datos de un getAlumno\n    struct DatosAlumno{\n        string nombre;\n        string email;\n        string dni;\n    }\n    \n    /// Acceder a los datos de un alumno dada su direccin\n    mapping(address => DatosAlumno) public datosAlumno;\n    \n    // Mapping para poder comprobar si existe el DNI \n    mapping(string => string) public dniMap;\n    \n    /// Array con las direcciones de los alumnos matriculados\n    address[] public matriculas;\n    \n    /// Tipos de notas: no presentado, nota entre 0 y 10, y matricula\n    enum TipoNota { NP, Normal, MH }\n    \n    /**\n     * Datos de una nota.\n     * La calificacin est multiplicada por 100 porque no hay decimales\n     */\n     struct Nota {\n        TipoNota tipo;\n        uint calificacion;\n    }\n    \n    // Dada pa direccion de un alumno, y el indice de la evaluacin, devuelve\n    // la nota del alumno\n    mapping (address => mapping (uint => Nota)) public calificaciones;\n    \n    // Constructor \n     constructor(string memory _nombre, string memory _curso) {\n         \n        bytes memory bn = bytes(_nombre);\n        require(bn.length != 0, \"Subject's name can't be blank\");\n         \n        bytes memory bc = bytes(_curso);\n        require(bc.length != 0, \"Subject's academic year can't be blank\");\n         \n        nombre = _nombre;\n        curso = _curso;\n        profesor = msg.sender;\n        owner = msg.sender;\n        cerrada = false;\n    }\n    \n    // Getters\n    function getNombreProfesor(address dirProfesor) public view returns (string memory){\n        return datosProfesor[dirProfesor];\n    }\n    function getDatosAlumno(address dirAlumno) public view returns (DatosAlumno memory){\n        return datosAlumno[dirAlumno];\n    }\n    function getCalificacion(address dirAlumno, uint indice) public view returns (Nota memory){\n        return calificaciones[dirAlumno][indice];\n    } \n    function miNota(uint evaluacion) soloMatriculados public view returns (TipoNota tipo, uint calificacion){\n        require(evaluacion < evaluaciones.length, \"Evaluation's index does not exist\");\n        Nota memory nota = calificaciones[msg.sender][evaluacion];\n        \n        tipo = nota.tipo;\n        calificacion = nota.calificacion;\n    }\n     \n    // Setter\n    function setCoordinador(address coord) soloOwner soloAbierta public {\n        coordinador = coord;\n    }\n      \n    function cerrar() soloCoordinador public{\n        cerrada = true;\n    }\n\n    function abrir() soloCoordinador public{\n        cerrada = false;\n    }\n    \n    function addProfesor(address dirProfesor, string memory nombreProfesor) soloOwner soloAbierta public {\n        \n        bytes memory bn = bytes(nombreProfesor);\n        require(bn.length != 0, \"Professor's name can't be blank\");\n        \n        string memory existeProfesor = getNombreProfesor(dirProfesor);\n        bytes memory bep = bytes(existeProfesor);\n        require(bep.length == 0, \"Can't add a professor multiple times\");\n        \n        profesores.push(dirProfesor);\n        datosProfesor[dirProfesor] = nombreProfesor;\n\n        isProfesor[dirProfesor] = true;\n    }\n    \n    function profesoresLength() public view returns (uint) {\n        return profesores.length;\n    }\n\n     function evaluacionesLength () public view returns (uint) {\n        return evaluaciones.length;\n    }\n    \n    function creaEvaluacion (string memory _nombre, uint _fecha, uint _puntos) soloAbierta soloCoordinador public returns (uint) {\n                \n        bytes memory bn = bytes(_nombre);\n        require(bn.length != 0, \"Evaluation's name can't be blank\");\n        \n        evaluaciones.push (Evaluacion (_nombre, _fecha, _puntos));\n        return evaluaciones.length - 1;\n    }\n\n     function matriculasLength () public view returns (uint) {\n        return matriculas.length;\n    }\n\n    function automatricula (string memory _nombre, string memory _email, string memory _dni) soloAbierta noMatriculados public {\n                \n        bytes memory bn = bytes(_nombre);\n        require(bn.length != 0, \"Name can't be blank\");\n        bytes memory em = bytes(_email);\n        require(em.length != 0, \"Email can't be blank\");\n        bytes memory bdni = bytes(_dni);\n        require(bdni.length != 0, \"ID number can't be blank\");\n        \n        string memory DNIExists = dniMap[_dni];\n        bytes memory bdni_exists = bytes(DNIExists);\n\n        if (bdni_exists.length != 0){\n            revert DNIExistsError({\n                dni:DNIExists\n            });\n        }\n        \n        DatosAlumno memory datos = DatosAlumno(_nombre,_email,_dni);\n        \n        datosAlumno[msg.sender] = datos;\n        dniMap[_dni] = _nombre;\n        \n        matriculas.push(msg.sender);\n    \n    }\n    \n    function quienSoy() soloMatriculados public view returns (string memory _nombre, string memory _email, string memory _dni){\n        DatosAlumno memory datos = datosAlumno[msg.sender];\n        _nombre = datos.nombre;\n        _email = datos.email;\n        _dni = datos.dni;\n    }\n    \n    function califica(address alumno, uint evaluacion, TipoNota tipo, uint calificacion) soloProfesor soloAbierta public{\n        \n        require(estaMatriculado(alumno), \"You can only mark an enrolled student\");\n        require(evaluacion < evaluaciones.length, \"You can't mark a non-existant evaluation\");\n        require(calificacion <= 1000, \"You can't mark with higher than 1000\");\n        \n        Nota memory nota = Nota(tipo, calificacion);\n        \n        calificaciones[alumno][evaluacion] = nota;\n    }\n    \n     function estaMatriculado(address alumno) private view returns (bool){\n         \n         string memory _nombre = datosAlumno[alumno].nombre;\n         bytes memory b = bytes(_nombre);\n         return b.length != 0;\n     }\n    \n    \n    // Modifiers\n     modifier soloProfesor() {\n         require(isProfesor[msg.sender], \"Only proffesors allowed\");\n         _;\n     }\n     modifier soloMatriculados(){\n         require(estaMatriculado(msg.sender), \"Only enrolled students allowed\");\n         _;\n     }\n     modifier noMatriculados(){\n         require(!estaMatriculado(msg.sender), \"Only non-enrolled students allowed\");\n         _;\n     }\n     modifier soloOwner(){\n         require(msg.sender == owner, \"Only contract's owner allowed\");\n         _;\n     }\n     modifier soloCoordinador(){\n         require(msg.sender == coordinador, \"Only Coordinator allowed\");\n         _;\n     }\n      modifier soloAbierta(){\n          require(cerrada == false, \"Only allowed if the subject is open\");\n          _;\n      }\n     \n      receive() external payable{\n          revert(\"No money transfer allowed\");\n      }\n\n}\n",
  "sourcePath": "/home/yildirim/Desktop/UNI/BCDA/Practica4/contracts/Asignatura.sol",
  "compiler": {
    "name": "solc",
    "version": "0.8.11+commit.d7f03943.Emscripten.clang"
  },
  "schemaVersion": "3.4.4",
  "updatedAt": "2022-01-04T12:21:34.813Z",
  "networkType": "ethereum",
  "devdoc": {
    "kind": "dev",
    "methods": {},
    "version": 1
  },
  "userdoc": {
    "kind": "user",
    "methods": {
      "datosAlumno(address)": {
        "notice": "Acceder a los datos de un alumno dada su direccin"
      },
      "evaluaciones(uint256)": {
        "notice": "Evaluaciones de la asignatura"
      },
      "matriculas(uint256)": {
        "notice": "Array con las direcciones de los alumnos matriculados"
      },
      "profesor()": {
        "notice": "address del profesor que ha desplegado el contrato. El contrato lo despliega el profesor."
      }
    },
    "version": 1
  }
}